{
  "address": "0xDc64a140Aa3E981100a9becA4E685f962f0cF6C9",
  "abi": [
    {
      "inputs": [
        {
          "internalType": "address",
          "name": "erc20_",
          "type": "address"
        }
      ],
      "stateMutability": "nonpayable",
      "type": "constructor"
    },
    {
      "anonymous": false,
      "inputs": [
        {
          "indexed": true,
          "internalType": "address",
          "name": "collection",
          "type": "address"
        },
        {
          "indexed": true,
          "internalType": "uint256",
          "name": "tokenId",
          "type": "uint256"
        },
        {
          "indexed": false,
          "internalType": "uint256",
          "name": "indexOfOfferMapping",
          "type": "uint256"
        },
        {
          "indexed": false,
          "internalType": "uint256",
          "name": "priceOffer",
          "type": "uint256"
        },
        {
          "indexed": true,
          "internalType": "address",
          "name": "buyer",
          "type": "address"
        }
      ],
      "name": "CancelledOffer",
      "type": "event"
    },
    {
      "anonymous": false,
      "inputs": [
        {
          "indexed": true,
          "internalType": "address",
          "name": "collection",
          "type": "address"
        },
        {
          "indexed": true,
          "internalType": "uint256",
          "name": "nftId",
          "type": "uint256"
        },
        {
          "indexed": true,
          "internalType": "uint256",
          "name": "offerId",
          "type": "uint256"
        },
        {
          "indexed": false,
          "internalType": "uint256",
          "name": "counterofferId",
          "type": "uint256"
        }
      ],
      "name": "CounterofferMade",
      "type": "event"
    },
    {
      "anonymous": false,
      "inputs": [
        {
          "indexed": true,
          "internalType": "uint256",
          "name": "id",
          "type": "uint256"
        },
        {
          "indexed": false,
          "internalType": "uint256",
          "name": "price",
          "type": "uint256"
        },
        {
          "indexed": true,
          "internalType": "address",
          "name": "seller",
          "type": "address"
        }
      ],
      "name": "CounterofferTaken",
      "type": "event"
    },
    {
      "anonymous": false,
      "inputs": [
        {
          "indexed": true,
          "internalType": "address",
          "name": "seller",
          "type": "address"
        },
        {
          "indexed": true,
          "internalType": "address",
          "name": "collection",
          "type": "address"
        },
        {
          "indexed": false,
          "internalType": "uint256",
          "name": "nftId",
          "type": "uint256"
        },
        {
          "indexed": false,
          "internalType": "uint256",
          "name": "price",
          "type": "uint256"
        }
      ],
      "name": "NFTListed",
      "type": "event"
    },
    {
      "anonymous": false,
      "inputs": [
        {
          "indexed": true,
          "internalType": "address",
          "name": "collection",
          "type": "address"
        },
        {
          "indexed": true,
          "internalType": "uint256",
          "name": "nftId",
          "type": "uint256"
        },
        {
          "indexed": false,
          "internalType": "uint256",
          "name": "newPrice",
          "type": "uint256"
        }
      ],
      "name": "NFTPriceChanged",
      "type": "event"
    },
    {
      "anonymous": false,
      "inputs": [
        {
          "indexed": true,
          "internalType": "address",
          "name": "buyer",
          "type": "address"
        },
        {
          "indexed": true,
          "internalType": "address",
          "name": "seller",
          "type": "address"
        },
        {
          "indexed": true,
          "internalType": "address",
          "name": "collection",
          "type": "address"
        },
        {
          "indexed": false,
          "internalType": "uint256",
          "name": "nftId",
          "type": "uint256"
        },
        {
          "indexed": false,
          "internalType": "uint256",
          "name": "price",
          "type": "uint256"
        }
      ],
      "name": "NFTSold",
      "type": "event"
    },
    {
      "anonymous": false,
      "inputs": [
        {
          "indexed": true,
          "internalType": "address",
          "name": "buyer",
          "type": "address"
        },
        {
          "indexed": true,
          "internalType": "address",
          "name": "collection",
          "type": "address"
        },
        {
          "indexed": true,
          "internalType": "uint256",
          "name": "nftId",
          "type": "uint256"
        },
        {
          "indexed": false,
          "internalType": "uint256",
          "name": "offerId",
          "type": "uint256"
        }
      ],
      "name": "OfferMade",
      "type": "event"
    },
    {
      "anonymous": false,
      "inputs": [
        {
          "indexed": true,
          "internalType": "address",
          "name": "previousOwner",
          "type": "address"
        },
        {
          "indexed": true,
          "internalType": "address",
          "name": "newOwner",
          "type": "address"
        }
      ],
      "name": "OwnershipTransferred",
      "type": "event"
    },
    {
      "anonymous": false,
      "inputs": [
        {
          "indexed": true,
          "internalType": "address",
          "name": "beneficiary",
          "type": "address"
        },
        {
          "indexed": false,
          "internalType": "uint256",
          "name": "amount",
          "type": "uint256"
        }
      ],
      "name": "RootWithdrawal",
      "type": "event"
    },
    {
      "anonymous": false,
      "inputs": [
        {
          "indexed": true,
          "internalType": "address",
          "name": "collection",
          "type": "address"
        },
        {
          "indexed": true,
          "internalType": "uint256",
          "name": "tokenId",
          "type": "uint256"
        },
        {
          "indexed": true,
          "internalType": "address",
          "name": "beneficiary",
          "type": "address"
        },
        {
          "indexed": false,
          "internalType": "uint256",
          "name": "royalty",
          "type": "uint256"
        }
      ],
      "name": "RoyaltyPayment",
      "type": "event"
    },
    {
      "inputs": [
        {
          "internalType": "address",
          "name": "collection",
          "type": "address"
        },
        {
          "internalType": "uint256",
          "name": "nftId",
          "type": "uint256"
        }
      ],
      "name": "buy",
      "outputs": [],
      "stateMutability": "payable",
      "type": "function"
    },
    {
      "inputs": [
        {
          "internalType": "address",
          "name": "collection",
          "type": "address"
        },
        {
          "internalType": "uint256",
          "name": "tokenId",
          "type": "uint256"
        },
        {
          "internalType": "uint256",
          "name": "indexOfOfferMapping",
          "type": "uint256"
        }
      ],
      "name": "cancelOffer",
      "outputs": [],
      "stateMutability": "nonpayable",
      "type": "function"
    },
    {
      "inputs": [
        {
          "internalType": "address",
          "name": "collection",
          "type": "address"
        },
        {
          "internalType": "uint256",
          "name": "tokenId",
          "type": "uint256"
        },
        {
          "internalType": "uint256",
          "name": "newPrice",
          "type": "uint256"
        }
      ],
      "name": "changePriceOf",
      "outputs": [],
      "stateMutability": "nonpayable",
      "type": "function"
    },
    {
      "inputs": [],
      "name": "feeRatio",
      "outputs": [
        {
          "internalType": "int128",
          "name": "",
          "type": "int128"
        }
      ],
      "stateMutability": "view",
      "type": "function"
    },
    {
      "inputs": [],
      "name": "floorRatio",
      "outputs": [
        {
          "internalType": "int128",
          "name": "",
          "type": "int128"
        }
      ],
      "stateMutability": "view",
      "type": "function"
    },
    {
      "inputs": [],
      "name": "fusyBenefitsAccumulated",
      "outputs": [
        {
          "internalType": "uint256",
          "name": "",
          "type": "uint256"
        }
      ],
      "stateMutability": "view",
      "type": "function"
    },
    {
      "inputs": [
        {
          "internalType": "uint256",
          "name": "counterofferId",
          "type": "uint256"
        }
      ],
      "name": "getCounteroffer",
      "outputs": [
        {
          "components": [
            {
              "internalType": "address",
              "name": "collection",
              "type": "address"
            },
            {
              "internalType": "uint256",
              "name": "nftId",
              "type": "uint256"
            },
            {
              "internalType": "uint256",
              "name": "offerId",
              "type": "uint256"
            },
            {
              "internalType": "uint256",
              "name": "price",
              "type": "uint256"
            },
            {
              "internalType": "uint64",
              "name": "expirationDate",
              "type": "uint64"
            }
          ],
          "internalType": "struct IMarketplace.Counteroffer",
          "name": "",
          "type": "tuple"
        }
      ],
      "stateMutability": "view",
      "type": "function"
    },
    {
      "inputs": [
        {
          "internalType": "address",
          "name": "collection",
          "type": "address"
        },
        {
          "internalType": "uint256",
          "name": "nftId",
          "type": "uint256"
        },
        {
          "internalType": "uint256",
          "name": "offerId",
          "type": "uint256"
        }
      ],
      "name": "getCounteroffer",
      "outputs": [
        {
          "components": [
            {
              "internalType": "address",
              "name": "collection",
              "type": "address"
            },
            {
              "internalType": "uint256",
              "name": "nftId",
              "type": "uint256"
            },
            {
              "internalType": "uint256",
              "name": "offerId",
              "type": "uint256"
            },
            {
              "internalType": "uint256",
              "name": "price",
              "type": "uint256"
            },
            {
              "internalType": "uint64",
              "name": "expirationDate",
              "type": "uint64"
            }
          ],
          "internalType": "struct IMarketplace.Counteroffer",
          "name": "",
          "type": "tuple"
        }
      ],
      "stateMutability": "view",
      "type": "function"
    },
    {
      "inputs": [
        {
          "internalType": "uint256",
          "name": "netPayment",
          "type": "uint256"
        }
      ],
      "name": "getFusyonaFeeFor",
      "outputs": [
        {
          "internalType": "uint256",
          "name": "",
          "type": "uint256"
        }
      ],
      "stateMutability": "view",
      "type": "function"
    },
    {
      "inputs": [
        {
          "internalType": "address",
          "name": "collection",
          "type": "address"
        },
        {
          "internalType": "uint256",
          "name": "tokenId",
          "type": "uint256"
        }
      ],
      "name": "getNftInfo",
      "outputs": [
        {
          "components": [
            {
              "internalType": "bool",
              "name": "listed",
              "type": "bool"
            },
            {
              "internalType": "uint256",
              "name": "price",
              "type": "uint256"
            },
            {
              "internalType": "address",
              "name": "seller",
              "type": "address"
            },
            {
              "internalType": "uint256",
              "name": "totalOffers",
              "type": "uint256"
            }
          ],
          "internalType": "struct IMarketplace.NftInfo",
          "name": "",
          "type": "tuple"
        }
      ],
      "stateMutability": "view",
      "type": "function"
    },
    {
      "inputs": [
        {
          "internalType": "address",
          "name": "collection",
          "type": "address"
        },
        {
          "internalType": "uint256",
          "name": "nftId",
          "type": "uint256"
        },
        {
          "internalType": "uint256",
          "name": "offerId",
          "type": "uint256"
        }
      ],
      "name": "getOffer",
      "outputs": [
        {
          "components": [
            {
              "internalType": "bool",
              "name": "isInitialized",
              "type": "bool"
            },
            {
              "internalType": "address",
              "name": "buyer",
              "type": "address"
            },
            {
              "internalType": "uint256",
              "name": "price",
              "type": "uint256"
            },
            {
              "internalType": "uint64",
              "name": "expirationDate",
              "type": "uint64"
            },
            {
              "internalType": "uint256",
              "name": "counterofferId",
              "type": "uint256"
            }
          ],
          "internalType": "struct IMarketplace.Offer",
          "name": "",
          "type": "tuple"
        }
      ],
      "stateMutability": "view",
      "type": "function"
    },
    {
      "inputs": [
        {
          "internalType": "address",
          "name": "collection",
          "type": "address"
        },
        {
          "internalType": "uint256",
          "name": "nftId",
          "type": "uint256"
        }
      ],
      "name": "isListed",
      "outputs": [
        {
          "internalType": "bool",
          "name": "",
          "type": "bool"
        }
      ],
      "stateMutability": "view",
      "type": "function"
    },
    {
      "inputs": [
        {
          "internalType": "address",
          "name": "collection",
          "type": "address"
        },
        {
          "internalType": "uint256",
          "name": "nftId",
          "type": "uint256"
        },
        {
          "internalType": "uint256",
          "name": "price",
          "type": "uint256"
        }
      ],
      "name": "list",
      "outputs": [],
      "stateMutability": "nonpayable",
      "type": "function"
    },
    {
      "inputs": [
        {
          "internalType": "address",
          "name": "collection",
          "type": "address"
        },
        {
          "internalType": "uint256",
          "name": "nftId",
          "type": "uint256"
        },
        {
          "internalType": "uint256",
          "name": "offerId",
          "type": "uint256"
        },
        {
          "internalType": "uint256",
          "name": "newPrice",
          "type": "uint256"
        },
        {
          "internalType": "uint64",
          "name": "durationInDays",
          "type": "uint64"
        }
      ],
      "name": "makeCounteroffer",
      "outputs": [],
      "stateMutability": "nonpayable",
      "type": "function"
    },
    {
      "inputs": [
        {
          "internalType": "address",
          "name": "collection",
          "type": "address"
        },
        {
          "internalType": "uint256",
          "name": "nftId",
          "type": "uint256"
        },
        {
          "internalType": "uint256",
          "name": "offerPrice",
          "type": "uint256"
        },
        {
          "internalType": "uint64",
          "name": "durationInDays",
          "type": "uint64"
        }
      ],
      "name": "makeOffer",
      "outputs": [],
      "stateMutability": "nonpayable",
      "type": "function"
    },
    {
      "inputs": [
        {
          "internalType": "address",
          "name": "collection",
          "type": "address"
        },
        {
          "internalType": "uint256",
          "name": "nftId",
          "type": "uint256"
        }
      ],
      "name": "minPriceOffer",
      "outputs": [
        {
          "internalType": "uint256",
          "name": "",
          "type": "uint256"
        }
      ],
      "stateMutability": "view",
      "type": "function"
    },
    {
      "inputs": [
        {
          "internalType": "address",
          "name": "",
          "type": "address"
        },
        {
          "internalType": "address",
          "name": "",
          "type": "address"
        },
        {
          "internalType": "uint256[]",
          "name": "",
          "type": "uint256[]"
        },
        {
          "internalType": "uint256[]",
          "name": "",
          "type": "uint256[]"
        },
        {
          "internalType": "bytes",
          "name": "",
          "type": "bytes"
        }
      ],
      "name": "onERC1155BatchReceived",
      "outputs": [
        {
          "internalType": "bytes4",
          "name": "",
          "type": "bytes4"
        }
      ],
      "stateMutability": "nonpayable",
      "type": "function"
    },
    {
      "inputs": [
        {
          "internalType": "address",
          "name": "",
          "type": "address"
        },
        {
          "internalType": "address",
          "name": "",
          "type": "address"
        },
        {
          "internalType": "uint256",
          "name": "",
          "type": "uint256"
        },
        {
          "internalType": "uint256",
          "name": "",
          "type": "uint256"
        },
        {
          "internalType": "bytes",
          "name": "",
          "type": "bytes"
        }
      ],
      "name": "onERC1155Received",
      "outputs": [
        {
          "internalType": "bytes4",
          "name": "",
          "type": "bytes4"
        }
      ],
      "stateMutability": "nonpayable",
      "type": "function"
    },
    {
      "inputs": [
        {
          "internalType": "address",
          "name": "",
          "type": "address"
        },
        {
          "internalType": "address",
          "name": "",
          "type": "address"
        },
        {
          "internalType": "uint256",
          "name": "",
          "type": "uint256"
        },
        {
          "internalType": "bytes",
          "name": "",
          "type": "bytes"
        }
      ],
      "name": "onERC721Received",
      "outputs": [
        {
          "internalType": "bytes4",
          "name": "",
          "type": "bytes4"
        }
      ],
      "stateMutability": "nonpayable",
      "type": "function"
    },
    {
      "inputs": [],
      "name": "owner",
      "outputs": [
        {
          "internalType": "address",
          "name": "",
          "type": "address"
        }
      ],
      "stateMutability": "view",
      "type": "function"
    },
    {
      "inputs": [],
      "name": "renounceOwnership",
      "outputs": [],
      "stateMutability": "nonpayable",
      "type": "function"
    },
    {
      "inputs": [
        {
          "internalType": "address",
          "name": "collection",
          "type": "address"
        },
        {
          "internalType": "uint256",
          "name": "nftId",
          "type": "uint256"
        },
        {
          "internalType": "uint256",
          "name": "salePrice",
          "type": "uint256"
        }
      ],
      "name": "royaltyInfo",
      "outputs": [
        {
          "internalType": "address",
          "name": "",
          "type": "address"
        },
        {
          "internalType": "uint256",
          "name": "",
          "type": "uint256"
        }
      ],
      "stateMutability": "view",
      "type": "function"
    },
    {
      "inputs": [
        {
          "internalType": "uint8",
          "name": "percentage",
          "type": "uint8"
        }
      ],
      "name": "setFeeRatioFromPercentage",
      "outputs": [],
      "stateMutability": "nonpayable",
      "type": "function"
    },
    {
      "inputs": [
        {
          "internalType": "uint8",
          "name": "percentage",
          "type": "uint8"
        }
      ],
      "name": "setFloorRatioFromPercentage",
      "outputs": [],
      "stateMutability": "nonpayable",
      "type": "function"
    },
    {
      "inputs": [
        {
          "internalType": "bytes4",
          "name": "interfaceId",
          "type": "bytes4"
        }
      ],
      "name": "supportsInterface",
      "outputs": [
        {
          "internalType": "bool",
          "name": "",
          "type": "bool"
        }
      ],
      "stateMutability": "view",
      "type": "function"
    },
    {
      "inputs": [
        {
          "internalType": "address",
          "name": "collection",
          "type": "address"
        }
      ],
      "name": "supportsRoyalties",
      "outputs": [
        {
          "internalType": "bool",
          "name": "",
          "type": "bool"
        }
      ],
      "stateMutability": "view",
      "type": "function"
    },
    {
      "inputs": [
        {
          "internalType": "uint256",
          "name": "id",
          "type": "uint256"
        }
      ],
      "name": "takeCounteroffer",
      "outputs": [],
      "stateMutability": "payable",
      "type": "function"
    },
    {
      "inputs": [
        {
          "internalType": "address",
          "name": "collection",
          "type": "address"
        },
        {
          "internalType": "uint256",
          "name": "tokenId",
          "type": "uint256"
        },
        {
          "internalType": "uint256",
          "name": "indexOfOfferMapping",
          "type": "uint256"
        }
      ],
      "name": "takeOffer",
      "outputs": [],
      "stateMutability": "nonpayable",
      "type": "function"
    },
    {
      "inputs": [
        {
          "internalType": "address",
          "name": "newOwner",
          "type": "address"
        }
      ],
      "name": "transferOwnership",
      "outputs": [],
      "stateMutability": "nonpayable",
      "type": "function"
    },
    {
      "inputs": [],
      "name": "withdraw",
      "outputs": [],
      "stateMutability": "nonpayable",
      "type": "function"
    },
    {
      "stateMutability": "payable",
      "type": "receive"
    }
  ],
  "transactionHash": "0xcc1a0e077bc1faea4a93eeeba24b7bc0b6ed77de2148bc6abd4af7fd5dd6e395",
  "args": [
    "0xCf7Ed3AccA5a467e9e704C703E8D87F634fB0Fc9"
  ],
  "numDeployments": 1,
  "solcInputHash": "58323ec5de95cf2641200dd0c259ba57",
  "bytecode": "0x60a06040526200001b60026200013660201b6200199e1760201c565b600160006101000a8154816fffffffffffffffffffffffffffffffff0219169083600f0b6fffffffffffffffffffffffffffffffff1602179055506200006d60146200013660201b6200199e1760201c565b600160106101000a8154816fffffffffffffffffffffffffffffffff0219169083600f0b6fffffffffffffffffffffffffffffffff160217905550348015620000b557600080fd5b5060405162005993380380620059938339818101604052810190620000db91906200029a565b620000fb620000ef6200016460201b60201c565b6200016c60201b60201c565b8073ffffffffffffffffffffffffffffffffffffffff1660808173ffffffffffffffffffffffffffffffffffffffff168152505050620003f1565b60006064680100000000000000008362000151919062000308565b6200015d91906200037d565b9050919050565b600033905090565b60008060009054906101000a900473ffffffffffffffffffffffffffffffffffffffff169050816000806101000a81548173ffffffffffffffffffffffffffffffffffffffff021916908373ffffffffffffffffffffffffffffffffffffffff1602179055508173ffffffffffffffffffffffffffffffffffffffff168173ffffffffffffffffffffffffffffffffffffffff167f8be0079c531659141344cd1fd0a4f28419497f9722a3daafe3b4186f6b6457e060405160405180910390a35050565b600080fd5b600073ffffffffffffffffffffffffffffffffffffffff82169050919050565b6000620002628262000235565b9050919050565b620002748162000255565b81146200028057600080fd5b50565b600081519050620002948162000269565b92915050565b600060208284031215620002b357620002b262000230565b5b6000620002c38482850162000283565b91505092915050565b600081600f0b9050919050565b7f4e487b7100000000000000000000000000000000000000000000000000000000600052601160045260246000fd5b60006200031582620002cc565b91506200032283620002cc565b92508282026200033281620002cc565b9150808214620003475762000346620002d9565b5b5092915050565b7f4e487b7100000000000000000000000000000000000000000000000000000000600052601260045260246000fd5b60006200038a82620002cc565b91506200039783620002cc565b925082620003aa57620003a96200034e565b5b600160000383147fffffffffffffffffffffffffffffffff8000000000000000000000000000000083141615620003e657620003e5620002d9565b5b828205905092915050565b60805161557f6200041460003960008181611cef0152612b72015261557f6000f3fe6080604052600436106101d15760003560e01c806384d8cf20116100f7578063bc197c8111610095578063dda342bb11610064578063dda342bb146106c2578063f23a6e61146106eb578063f2fde38b14610728578063fe4f0dde14610751576101d8565b8063bc197c81146105ef578063cce7ec131461062c578063cdb3cd2514610648578063dbde383014610685576101d8565b80638ed457e0116100d15780638ed457e01461052e57806392e3a5d6146105595780639ccc3fc714610596578063a5e51355146105d3576101d8565b806384d8cf201461049d5780638a82626f146104c65780638da5cb5b14610503576101d8565b806341744dd41161016f5780636425cb051161013e5780636425cb05146103f7578063715018a614610434578063730ed93b1461044b5780637766ba9214610474576101d8565b806341744dd41461032857806345348a8c1461035357806350e9950314610390578063538bd5ea146103b9576101d8565b8063150b7a02116101ab578063150b7a021461028057806320546607146102bd57806329a1a8f2146102e85780633ccfd60b14610311576101d8565b806301ffc9a7146101dd5780630b75e33b1461021a5780630e030d6a14610257576101d8565b366101d857005b600080fd5b3480156101e957600080fd5b5061020460048036038101906101ff91906136dc565b61077a565b6040516102119190613724565b60405180910390f35b34801561022657600080fd5b50610241600480360381019061023c919061379d565b61078c565b60405161024e9190613724565b60405180910390f35b34801561026357600080fd5b5061027e60048036038101906102799190613800565b6107ab565b005b34801561028c57600080fd5b506102a760048036038101906102a29190613999565b6108e7565b6040516102b49190613a2b565b60405180910390f35b3480156102c957600080fd5b506102d26108fb565b6040516102df9190613a55565b60405180910390f35b3480156102f457600080fd5b5061030f600480360381019061030a9190613aa9565b610901565b005b34801561031d57600080fd5b506103266109f7565b005b34801561033457600080fd5b5061033d610abc565b60405161034a9190613af2565b60405180910390f35b34801561035f57600080fd5b5061037a60048036038101906103759190613b0d565b610acf565b6040516103879190613bcf565b60405180910390f35b34801561039c57600080fd5b506103b760048036038101906103b29190613c2a565b610baa565b005b3480156103c557600080fd5b506103e060048036038101906103db9190613800565b610c8e565b6040516103ee929190613cb4565b60405180910390f35b34801561040357600080fd5b5061041e60048036038101906104199190613800565b610d1e565b60405161042b9190613d54565b60405180910390f35b34801561044057600080fd5b50610449610e55565b005b34801561045757600080fd5b50610472600480360381019061046d9190613d6f565b610e69565b005b34801561048057600080fd5b5061049b60048036038101906104969190613800565b610e7b565b005b3480156104a957600080fd5b506104c460048036038101906104bf9190613800565b610f37565b005b3480156104d257600080fd5b506104ed60048036038101906104e89190613dd6565b61111d565b6040516104fa9190613e6b565b60405180910390f35b34801561050f57600080fd5b50610518611189565b6040516105259190613e86565b60405180910390f35b34801561053a57600080fd5b506105436111b2565b6040516105509190613af2565b60405180910390f35b34801561056557600080fd5b50610580600480360381019061057b9190613b0d565b6111c5565b60405161058d9190613a55565b60405180910390f35b3480156105a257600080fd5b506105bd60048036038101906105b89190613800565b61125d565b6040516105ca9190613e6b565b60405180910390f35b6105ed60048036038101906105e89190613dd6565b61128b565b005b3480156105fb57600080fd5b5061061660048036038101906106119190613f69565b6113f4565b6040516106239190613a2b565b60405180910390f35b61064660048036038101906106419190613b0d565b611409565b005b34801561065457600080fd5b5061066f600480360381019061066a9190613b0d565b611529565b60405161067c9190613724565b60405180910390f35b34801561069157600080fd5b506106ac60048036038101906106a79190613dd6565b611599565b6040516106b99190613a55565b60405180910390f35b3480156106ce57600080fd5b506106e960048036038101906106e49190613800565b6115c7565b005b3480156106f757600080fd5b50610712600480360381019061070d9190614038565b611810565b60405161071f9190613a2b565b60405180910390f35b34801561073457600080fd5b5061074f600480360381019061074a919061379d565b611825565b005b34801561075d57600080fd5b5061077860048036038101906107739190613aa9565b6118a8565b005b6000610785826119c8565b9050919050565b600080632a55205a60e01b90506107a38382611a42565b915050919050565b6107b6838383611a67565b6000600360008573ffffffffffffffffffffffffffffffffffffffff1673ffffffffffffffffffffffffffffffffffffffff16815260200190815260200160002060008481526020019081526020016000206003016000838152602001908152602001600020905060008160000160006101000a81548160ff02191690831515021790555060008160010154905060008260000160019054906101000a900473ffffffffffffffffffffffffffffffffffffffff1690506108778183611ce8565b8073ffffffffffffffffffffffffffffffffffffffff16858773ffffffffffffffffffffffffffffffffffffffff167f728d55bc695c93d61e4428fa1324993d6ae3da4efa718b13361fa0d70fd53eaf87866040516108d79291906140cf565b60405180910390a4505050505050565b600063150b7a0260e01b9050949350505050565b60025481565b610909611d37565b60648160ff161115610950576040517f08c379a00000000000000000000000000000000000000000000000000000000081526004016109479061417b565b60405180910390fd5b600061095e8260ff1661199e565b9050600160109054906101000a9004600f0b600f0b81600f0b036109b7576040517f08c379a00000000000000000000000000000000000000000000000000000000081526004016109ae9061420d565b60405180910390fd5b80600160106101000a8154816fffffffffffffffffffffffffffffffff0219169083600f0b6fffffffffffffffffffffffffffffffff1602179055505050565b6109ff611d37565b600060025411610a44576040517f08c379a0000000000000000000000000000000000000000000000000000000008152600401610a3b9061429f565b60405180910390fd5b600060025490506000600281905550610a64610a5e611189565b82611ce8565b610a6c611189565b73ffffffffffffffffffffffffffffffffffffffff167f4a5596857f699aca8f90f020d443f83690ee93f5c4e147e3353a22c79da0506f82604051610ab19190613a55565b60405180910390a250565b600160009054906101000a9004600f0b81565b610ad7613590565b6000600360008573ffffffffffffffffffffffffffffffffffffffff1673ffffffffffffffffffffffffffffffffffffffff1681526020019081526020016000206000848152602001908152602001600020905060405180608001604052808260000160009054906101000a900460ff1615158152602001826001015481526020018260020160009054906101000a900473ffffffffffffffffffffffffffffffffffffffff1673ffffffffffffffffffffffffffffffffffffffff168152602001826004015481525091505092915050565b6000600360008773ffffffffffffffffffffffffffffffffffffffff1673ffffffffffffffffffffffffffffffffffffffff1681526020019081526020016000206000868152602001908152602001600020905060008160030160008681526020019081526020016000209050610c22828286611db5565b6000610c32888888888887612027565b905085878973ffffffffffffffffffffffffffffffffffffffff167f26754258c853565574afb716245befc7213e9016fa1d4eef5cda7d8508acc15784604051610c7c9190613a55565b60405180910390a45050505050505050565b60008060008590508073ffffffffffffffffffffffffffffffffffffffff16632a55205a86866040518363ffffffff1660e01b8152600401610cd19291906140cf565b6040805180830381865afa158015610ced573d6000803e3d6000fd5b505050506040513d601f19601f82011682018060405250810190610d1191906142e9565b9250925050935093915050565b610d266135d0565b600360008573ffffffffffffffffffffffffffffffffffffffff1673ffffffffffffffffffffffffffffffffffffffff168152602001908152602001600020600084815260200190815260200160002060030160008381526020019081526020016000206040518060a00160405290816000820160009054906101000a900460ff161515151581526020016000820160019054906101000a900473ffffffffffffffffffffffffffffffffffffffff1673ffffffffffffffffffffffffffffffffffffffff1673ffffffffffffffffffffffffffffffffffffffff168152602001600182015481526020016002820160009054906101000a900467ffffffffffffffff1667ffffffffffffffff1667ffffffffffffffff16815260200160038201548152505090509392505050565b610e5d611d37565b610e676000612165565b565b610e7584848484612229565b50505050565b6000600360008573ffffffffffffffffffffffffffffffffffffffff1673ffffffffffffffffffffffffffffffffffffffff16815260200190815260200160002060008481526020019081526020016000209050610ed9818361245b565b818160010181905550828473ffffffffffffffffffffffffffffffffffffffff167f8fc4ddb47ef20cd66b81525933f0644f462c23d7783cd012c20bc360d4458a5584604051610f299190613a55565b60405180910390a350505050565b6000600360008573ffffffffffffffffffffffffffffffffffffffff1673ffffffffffffffffffffffffffffffffffffffff168152602001908152602001600020600084815260200190815260200160002090506000816003016000848152602001908152602001600020905061107182826040518060a00160405290816000820160009054906101000a900460ff161515151581526020016000820160019054906101000a900473ffffffffffffffffffffffffffffffffffffffff1673ffffffffffffffffffffffffffffffffffffffff1673ffffffffffffffffffffffffffffffffffffffff168152602001600182015481526020016002820160009054906101000a900467ffffffffffffffff1667ffffffffffffffff1667ffffffffffffffff16815260200160038201548152505085612588565b60008260020160009054906101000a900473ffffffffffffffffffffffffffffffffffffffff16905060008260000160019054906101000a900473ffffffffffffffffffffffffffffffffffffffff16905060008360010154905060008560000160006101000a81548160ff02191690831515021790555060008460000160006101000a81548160ff02191690831515021790555061111382848a8a85612763565b5050505050505050565b611125613621565b60008211801561113a57506004805490508211155b611179576040517f08c379a00000000000000000000000000000000000000000000000000000000081526004016111709061439b565b60405180910390fd5b6111828261280e565b9050919050565b60008060009054906101000a900473ffffffffffffffffffffffffffffffffffffffff16905090565b600160109054906101000a9004600f0b81565b600080600360008573ffffffffffffffffffffffffffffffffffffffff1673ffffffffffffffffffffffffffffffffffffffff1681526020019081526020016000206000848152602001908152602001600020905060008160010154905061124881600160109054906101000a9004600f0b600f0b6128fc90919063ffffffff16565b8161125391906143ea565b9250505092915050565b611265613621565b6000611272858585610d1e565b9050611281816080015161280e565b9150509392505050565b611294816129b6565b600061129f82612b22565b905060006112ac8361280e565b9050600060036000836000015173ffffffffffffffffffffffffffffffffffffffff1673ffffffffffffffffffffffffffffffffffffffff168152602001908152602001600020600083602001518152602001908152602001600020905060008360400151836060015161132091906143ea565b9050600061132d82612b68565b905060008360000160006101000a81548160ff0219169083151502179055506113568183612bbf565b60008360020160009054906101000a900473ffffffffffffffffffffffffffffffffffffffff1690506113983382876000015188602001518960600151612763565b8073ffffffffffffffffffffffffffffffffffffffff16877f332175f2dcab833624be15496835f787a7b519737d4a85f212022ac3bcd030ad87606001516040516113e39190613a55565b60405180910390a350505050505050565b600063bc197c8160e01b905095945050505050565b6000600360008473ffffffffffffffffffffffffffffffffffffffff1673ffffffffffffffffffffffffffffffffffffffff1681526020019081526020016000206000838152602001908152602001600020905060008160020160009054906101000a900473ffffffffffffffffffffffffffffffffffffffff169050600082600101549050600061149a82612b68565b90508360000160009054906101000a900460ff166114ed576040517f08c379a00000000000000000000000000000000000000000000000000000000081526004016114e49061446a565b60405180910390fd5b60008460000160006101000a81548160ff0219169083151502179055506115148183612bbf565b6115213384888886612763565b505050505050565b600080600360008573ffffffffffffffffffffffffffffffffffffffff1673ffffffffffffffffffffffffffffffffffffffff168152602001908152602001600020600084815260200190815260200160002090508060000160009054906101000a900460ff1691505092915050565b60006115c082600160009054906101000a9004600f0b600f0b6128fc90919063ffffffff16565b9050919050565b6115d18383611529565b15611611576040517f08c379a0000000000000000000000000000000000000000000000000000000008152600401611608906144d6565b60405180910390fd5b600061161c84612c25565b9050806116325761162d8484612c44565b61163d565b61163c8484612cfb565b5b61167c576040517f08c379a000000000000000000000000000000000000000000000000000000000815260040161167390614568565b60405180910390fd5b600082116116bf576040517f08c379a00000000000000000000000000000000000000000000000000000000081526004016116b6906145fa565b60405180910390fd5b600033905081156116d9576116d48585612d88565b6116e4565b6116e38585612d98565b5b6000600360008773ffffffffffffffffffffffffffffffffffffffff1673ffffffffffffffffffffffffffffffffffffffff1681526020019081526020016000206000868152602001908152602001600020905060018160000160006101000a81548160ff021916908315150217905550838160010181905550818160020160006101000a81548173ffffffffffffffffffffffffffffffffffffffff021916908373ffffffffffffffffffffffffffffffffffffffff1602179055508573ffffffffffffffffffffffffffffffffffffffff168273ffffffffffffffffffffffffffffffffffffffff167fbeab3a2bb824b124a8a1eb465eec003338d61b414db132d37e9b3a984fdcf01087876040516118009291906140cf565b60405180910390a3505050505050565b600063f23a6e6160e01b905095945050505050565b61182d611d37565b600073ffffffffffffffffffffffffffffffffffffffff168173ffffffffffffffffffffffffffffffffffffffff160361189c576040517f08c379a00000000000000000000000000000000000000000000000000000000081526004016118939061468c565b60405180910390fd5b6118a581612165565b50565b6118b0611d37565b60648160ff1611156118f7576040517f08c379a00000000000000000000000000000000000000000000000000000000081526004016118ee9061417b565b60405180910390fd5b60006119058260ff1661199e565b905080600f0b600160009054906101000a9004600f0b600f0b0361195e576040517f08c379a00000000000000000000000000000000000000000000000000000000081526004016119559061420d565b60405180910390fd5b80600160006101000a8154816fffffffffffffffffffffffffffffffff0219169083600f0b6fffffffffffffffffffffffffffffffff1602179055505050565b6000606468010000000000000000836119b791906146ac565b6119c19190614718565b9050919050565b60007f4e2312e0000000000000000000000000000000000000000000000000000000007bffffffffffffffffffffffffffffffffffffffffffffffffffffffff1916827bffffffffffffffffffffffffffffffffffffffffffffffffffffffff19161480611a3b5750611a3a82612da8565b5b9050919050565b6000611a4d83612e12565b8015611a5f5750611a5e8383612e5f565b5b905092915050565b6000600360008573ffffffffffffffffffffffffffffffffffffffff1673ffffffffffffffffffffffffffffffffffffffff1681526020019081526020016000206000848152602001908152602001600020905081816004015411611b01576040517f08c379a0000000000000000000000000000000000000000000000000000000008152600401611af8906147ce565b60405180910390fd5b6000600360008673ffffffffffffffffffffffffffffffffffffffff1673ffffffffffffffffffffffffffffffffffffffff168152602001908152602001600020600085815260200190815260200160002060030160008481526020019081526020016000206040518060a00160405290816000820160009054906101000a900460ff161515151581526020016000820160019054906101000a900473ffffffffffffffffffffffffffffffffffffffff1673ffffffffffffffffffffffffffffffffffffffff1673ffffffffffffffffffffffffffffffffffffffff168152602001600182015481526020016002820160009054906101000a900467ffffffffffffffff1667ffffffffffffffff1667ffffffffffffffff1681526020016003820154815250509050806020015173ffffffffffffffffffffffffffffffffffffffff163373ffffffffffffffffffffffffffffffffffffffff1614611c9d576040517f08c379a0000000000000000000000000000000000000000000000000000000008152600401611c949061483a565b60405180910390fd5b8060000151611ce1576040517f08c379a0000000000000000000000000000000000000000000000000000000008152600401611cd8906148cc565b60405180910390fd5b5050505050565b611d3382827f000000000000000000000000000000000000000000000000000000000000000073ffffffffffffffffffffffffffffffffffffffff16612f1e9092919063ffffffff16565b5050565b611d3f612fa4565b73ffffffffffffffffffffffffffffffffffffffff16611d5d611189565b73ffffffffffffffffffffffffffffffffffffffff1614611db3576040517f08c379a0000000000000000000000000000000000000000000000000000000008152600401611daa90614938565b60405180910390fd5b565b8260000160009054906101000a900460ff16611e06576040517f08c379a0000000000000000000000000000000000000000000000000000000008152600401611dfd9061446a565b60405180910390fd5b8160000160009054906101000a900460ff16611e57576040517f08c379a0000000000000000000000000000000000000000000000000000000008152600401611e4e906147ce565b60405180910390fd5b81600101548111611e9d576040517f08c379a0000000000000000000000000000000000000000000000000000000008152600401611e94906149ca565b60405180910390fd5b82600101548110611ee3576040517f08c379a0000000000000000000000000000000000000000000000000000000008152600401611eda90614a5c565b60405180910390fd5b428260020160009054906101000a900467ffffffffffffffff1667ffffffffffffffff161015611f48576040517f08c379a0000000000000000000000000000000000000000000000000000000008152600401611f3f90614ac8565b60405180910390fd5b8260020160009054906101000a900473ffffffffffffffffffffffffffffffffffffffff1673ffffffffffffffffffffffffffffffffffffffff163373ffffffffffffffffffffffffffffffffffffffff1614611fda576040517f08c379a0000000000000000000000000000000000000000000000000000000008152600401611fd190614b5a565b60405180910390fd5b611fe382612fac565b612022576040517f08c379a000000000000000000000000000000000000000000000000000000000815260040161201990614bec565b60405180910390fd5b505050565b600060046040518060a001604052808973ffffffffffffffffffffffffffffffffffffffff16815260200188815260200187815260200186815260200162015180866120739190614c0c565b4261207e9190614c49565b67ffffffffffffffff16815250908060018154018082558091505060019003906000526020600020906005020160009091909190915060008201518160000160006101000a81548173ffffffffffffffffffffffffffffffffffffffff021916908373ffffffffffffffffffffffffffffffffffffffff16021790555060208201518160010155604082015181600201556060820151816003015560808201518160040160006101000a81548167ffffffffffffffff021916908367ffffffffffffffff160217905550505060048054905090508082600301819055509695505050505050565b60008060009054906101000a900473ffffffffffffffffffffffffffffffffffffffff169050816000806101000a81548173ffffffffffffffffffffffffffffffffffffffff021916908373ffffffffffffffffffffffffffffffffffffffff1602179055508173ffffffffffffffffffffffffffffffffffffffff168173ffffffffffffffffffffffffffffffffffffffff167f8be0079c531659141344cd1fd0a4f28419497f9722a3daafe3b4186f6b6457e060405160405180910390a35050565b600061223483612b68565b9050612241858583612fbc565b600033905060006040518060a001604052806001151581526020018373ffffffffffffffffffffffffffffffffffffffff168152602001848152602001620151808661228d9190614c0c565b426122989190614c49565b67ffffffffffffffff168152602001600081525090506000600360008973ffffffffffffffffffffffffffffffffffffffff1673ffffffffffffffffffffffffffffffffffffffff168152602001908152602001600020600088815260200190815260200160002090506000816004015490508282600301600083815260200190815260200160002060008201518160000160006101000a81548160ff02191690831515021790555060208201518160000160016101000a81548173ffffffffffffffffffffffffffffffffffffffff021916908373ffffffffffffffffffffffffffffffffffffffff1602179055506040820151816001015560608201518160020160006101000a81548167ffffffffffffffff021916908367ffffffffffffffff1602179055506080820151816003015590505060018260040160008282546123e39190614c85565b92505081905550878973ffffffffffffffffffffffffffffffffffffffff168573ffffffffffffffffffffffffffffffffffffffff167f6a7a64ee90bd2fcf9f942e947c6a521c6e27711befb22fa80f887ccb8a6f3fd0846040516124489190613a55565b60405180910390a4505050505050505050565b8160000160009054906101000a900460ff166124ac576040517f08c379a00000000000000000000000000000000000000000000000000000000081526004016124a39061446a565b60405180910390fd5b8160020160009054906101000a900473ffffffffffffffffffffffffffffffffffffffff1673ffffffffffffffffffffffffffffffffffffffff163373ffffffffffffffffffffffffffffffffffffffff161461253e576040517f08c379a000000000000000000000000000000000000000000000000000000000815260040161253590614b5a565b60405180910390fd5b81600101548103612584576040517f08c379a000000000000000000000000000000000000000000000000000000000815260040161257b90614d2b565b60405180910390fd5b5050565b60008360020160009054906101000a900473ffffffffffffffffffffffffffffffffffffffff16905060008460000160009054906101000a900460ff1690506000856004015490506000856060015190508373ffffffffffffffffffffffffffffffffffffffff163373ffffffffffffffffffffffffffffffffffffffff1614612647576040517f08c379a000000000000000000000000000000000000000000000000000000000815260040161263e90614dbd565b60405180910390fd5b82612687576040517f08c379a000000000000000000000000000000000000000000000000000000000815260040161267e90614e29565b60405180910390fd5b8482116126c9576040517f08c379a00000000000000000000000000000000000000000000000000000000081526004016126c090614e95565b60405180910390fd5b856000015161270d576040517f08c379a000000000000000000000000000000000000000000000000000000000815260040161270490614f01565b60405180910390fd5b428167ffffffffffffffff16101561275a576040517f08c379a000000000000000000000000000000000000000000000000000000000815260040161275190614ac8565b60405180910390fd5b50505050505050565b6000612770848484613056565b905061277d8583836130fd565b612788868585613149565b8373ffffffffffffffffffffffffffffffffffffffff168573ffffffffffffffffffffffffffffffffffffffff168773ffffffffffffffffffffffffffffffffffffffff167f1b81ea9818518fffa07ee623cfd9ce8af1900f3e0c918f2ca4fcfc9745cdc16586866040516127fe9291906140cf565b60405180910390a4505050505050565b612816613621565b600460018361282591906143ea565b8154811061283657612835614f21565b5b90600052602060002090600502016040518060a00160405290816000820160009054906101000a900473ffffffffffffffffffffffffffffffffffffffff1673ffffffffffffffffffffffffffffffffffffffff1673ffffffffffffffffffffffffffffffffffffffff1681526020016001820154815260200160028201548152602001600382015481526020016004820160009054906101000a900467ffffffffffffffff1667ffffffffffffffff1667ffffffffffffffff16815250509050919050565b600080820361290e57600090506129b0565b600083600f0b121561291f57600080fd5b600060406fffffffffffffffffffffffffffffffff841685600f0b02901c90506000608084901c85600f0b02905077ffffffffffffffffffffffffffffffffffffffffffffffff81111561297257600080fd5b604081901b9050817fffffffffffffffffffffffffffffffffffffffffffffffffffffffffffffffff038111156129a857600080fd5b818101925050505b92915050565b600081116129f9576040517f08c379a00000000000000000000000000000000000000000000000000000000081526004016129f09061439b565b60405180910390fd5b600480549050811115612a41576040517f08c379a0000000000000000000000000000000000000000000000000000000008152600401612a389061439b565b60405180910390fd5b6000612a4c82612b22565b90503373ffffffffffffffffffffffffffffffffffffffff16816020015173ffffffffffffffffffffffffffffffffffffffff1614612ac0576040517f08c379a0000000000000000000000000000000000000000000000000000000008152600401612ab790614fc2565b60405180910390fd5b6000612acb8361280e565b905042816080015167ffffffffffffffff1611612b1d576040517f08c379a0000000000000000000000000000000000000000000000000000000008152600401612b1490615054565b60405180910390fd5b505050565b612b2a6135d0565b6000612b358361280e565b9050600081600001519050600082602001519050600083604001519050612b5d838383610d1e565b945050505050919050565b6000612bb73330847f000000000000000000000000000000000000000000000000000000000000000073ffffffffffffffffffffffffffffffffffffffff1661317a909392919063ffffffff16565b819050919050565b60008183612bcd91906143ea565b90506000811115612c20573373ffffffffffffffffffffffffffffffffffffffff166108fc829081150290604051600060405180830381858888f19350505050158015612c1e573d6000803e3d6000fd5b505b505050565b60008063d9b67a2660e01b9050612c3c8382612e5f565b915050919050565b6000808390503373ffffffffffffffffffffffffffffffffffffffff168173ffffffffffffffffffffffffffffffffffffffff16636352211e856040518263ffffffff1660e01b8152600401612c9a9190613a55565b602060405180830381865afa158015612cb7573d6000803e3d6000fd5b505050506040513d601f19601f82011682018060405250810190612cdb9190615074565b73ffffffffffffffffffffffffffffffffffffffff161491505092915050565b60008083905060008173ffffffffffffffffffffffffffffffffffffffff1662fdd58e33866040518363ffffffff1660e01b8152600401612d3d929190613cb4565b602060405180830381865afa158015612d5a573d6000803e3d6000fd5b505050506040513d601f19601f82011682018060405250810190612d7e91906150a1565b1191505092915050565b612d9482823330613203565b5050565b612da482823330613281565b5050565b60007f01ffc9a7000000000000000000000000000000000000000000000000000000007bffffffffffffffffffffffffffffffffffffffffffffffffffffffff1916827bffffffffffffffffffffffffffffffffffffffffffffffffffffffff1916149050919050565b6000612e3e827f01ffc9a700000000000000000000000000000000000000000000000000000000612e5f565b8015612e585750612e568263ffffffff60e01b612e5f565b155b9050919050565b6000806301ffc9a760e01b83604051602401612e7b9190613a2b565b604051602081830303815290604052907bffffffffffffffffffffffffffffffffffffffffffffffffffffffff19166020820180517bffffffffffffffffffffffffffffffffffffffffffffffffffffffff838183161783525050505090506000806000602060008551602087018a617530fa92503d91506000519050828015612f06575060208210155b8015612f125750600081115b94505050505092915050565b612f9f8363a9059cbb60e01b8484604051602401612f3d929190613cb4565b604051602081830303815290604052907bffffffffffffffffffffffffffffffffffffffffffffffffffffffff19166020820180517bffffffffffffffffffffffffffffffffffffffffffffffffffffffff83818316178352505050506132fc565b505050565b600033905090565b6000808260030154149050919050565b612fc683836111c5565b811015613008576040517f08c379a0000000000000000000000000000000000000000000000000000000008152600401612fff9061518c565b60405180910390fd5b6130128383611529565b613051576040517f08c379a00000000000000000000000000000000000000000000000000000000081526004016130489061446a565b60405180910390fd5b505050565b60006130618461078c565b61306e57600090506130f6565b60008061307c868686610c8e565b9150915061308a8282611ce8565b8173ffffffffffffffffffffffffffffffffffffffff16858773ffffffffffffffffffffffffffffffffffffffff167fff2e45a3ef00a9f7ac5964f5c99b4076de5ac15411f355f6163e1f9bb5f2c9a9846040516130e89190613a55565b60405180910390a480925050505b9392505050565b600061310883611599565b9050806002600082825461311c9190614c85565b925050819055506131438483838661313491906143ea565b61313e91906143ea565b611ce8565b50505050565b61315282612c25565b156131685761316382823086613203565b613175565b61317482823086613281565b5b505050565b6131fd846323b872dd60e01b85858560405160240161319b939291906151ac565b604051602081830303815290604052907bffffffffffffffffffffffffffffffffffffffffffffffffffffffff19166020820180517bffffffffffffffffffffffffffffffffffffffffffffffffffffffff83818316178352505050506132fc565b50505050565b60008490508073ffffffffffffffffffffffffffffffffffffffff1663f242432a84848760016040518563ffffffff1660e01b8152600401613248949392919061521a565b600060405180830381600087803b15801561326257600080fd5b505af1158015613276573d6000803e3d6000fd5b505050505050505050565b60008490508073ffffffffffffffffffffffffffffffffffffffff166342842e0e8484876040518463ffffffff1660e01b81526004016132c3939291906151ac565b600060405180830381600087803b1580156132dd57600080fd5b505af11580156132f1573d6000803e3d6000fd5b505050505050505050565b600061335e826040518060400160405280602081526020017f5361666545524332303a206c6f772d6c6576656c2063616c6c206661696c65648152508573ffffffffffffffffffffffffffffffffffffffff166133c39092919063ffffffff16565b90506000815111156133be578080602001905181019061337e919061529e565b6133bd576040517f08c379a00000000000000000000000000000000000000000000000000000000081526004016133b49061533d565b60405180910390fd5b5b505050565b60606133d284846000856133db565b90509392505050565b606082471015613420576040517f08c379a0000000000000000000000000000000000000000000000000000000008152600401613417906153cf565b60405180910390fd5b6000808673ffffffffffffffffffffffffffffffffffffffff1685876040516134499190615460565b60006040518083038185875af1925050503d8060008114613486576040519150601f19603f3d011682016040523d82523d6000602084013e61348b565b606091505b509150915061349c878383876134a8565b92505050949350505050565b6060831561350a576000835103613502576134c28561351d565b613501576040517f08c379a00000000000000000000000000000000000000000000000000000000081526004016134f8906154c3565b60405180910390fd5b5b829050613515565b6135148383613540565b5b949350505050565b6000808273ffffffffffffffffffffffffffffffffffffffff163b119050919050565b6000825111156135535781518083602001fd5b806040517f08c379a00000000000000000000000000000000000000000000000000000000081526004016135879190615527565b60405180910390fd5b604051806080016040528060001515815260200160008152602001600073ffffffffffffffffffffffffffffffffffffffff168152602001600081525090565b6040518060a00160405280600015158152602001600073ffffffffffffffffffffffffffffffffffffffff16815260200160008152602001600067ffffffffffffffff168152602001600081525090565b6040518060a00160405280600073ffffffffffffffffffffffffffffffffffffffff168152602001600081526020016000815260200160008152602001600067ffffffffffffffff1681525090565b6000604051905090565b600080fd5b600080fd5b60007fffffffff0000000000000000000000000000000000000000000000000000000082169050919050565b6136b981613684565b81146136c457600080fd5b50565b6000813590506136d6816136b0565b92915050565b6000602082840312156136f2576136f161367a565b5b6000613700848285016136c7565b91505092915050565b60008115159050919050565b61371e81613709565b82525050565b60006020820190506137396000830184613715565b92915050565b600073ffffffffffffffffffffffffffffffffffffffff82169050919050565b600061376a8261373f565b9050919050565b61377a8161375f565b811461378557600080fd5b50565b60008135905061379781613771565b92915050565b6000602082840312156137b3576137b261367a565b5b60006137c184828501613788565b91505092915050565b6000819050919050565b6137dd816137ca565b81146137e857600080fd5b50565b6000813590506137fa816137d4565b92915050565b6000806000606084860312156138195761381861367a565b5b600061382786828701613788565b9350506020613838868287016137eb565b9250506040613849868287016137eb565b9150509250925092565b600080fd5b600080fd5b6000601f19601f8301169050919050565b7f4e487b7100000000000000000000000000000000000000000000000000000000600052604160045260246000fd5b6138a68261385d565b810181811067ffffffffffffffff821117156138c5576138c461386e565b5b80604052505050565b60006138d8613670565b90506138e4828261389d565b919050565b600067ffffffffffffffff8211156139045761390361386e565b5b61390d8261385d565b9050602081019050919050565b82818337600083830152505050565b600061393c613937846138e9565b6138ce565b90508281526020810184848401111561395857613957613858565b5b61396384828561391a565b509392505050565b600082601f8301126139805761397f613853565b5b8135613990848260208601613929565b91505092915050565b600080600080608085870312156139b3576139b261367a565b5b60006139c187828801613788565b94505060206139d287828801613788565b93505060406139e3878288016137eb565b925050606085013567ffffffffffffffff811115613a0457613a0361367f565b5b613a108782880161396b565b91505092959194509250565b613a2581613684565b82525050565b6000602082019050613a406000830184613a1c565b92915050565b613a4f816137ca565b82525050565b6000602082019050613a6a6000830184613a46565b92915050565b600060ff82169050919050565b613a8681613a70565b8114613a9157600080fd5b50565b600081359050613aa381613a7d565b92915050565b600060208284031215613abf57613abe61367a565b5b6000613acd84828501613a94565b91505092915050565b600081600f0b9050919050565b613aec81613ad6565b82525050565b6000602082019050613b076000830184613ae3565b92915050565b60008060408385031215613b2457613b2361367a565b5b6000613b3285828601613788565b9250506020613b43858286016137eb565b9150509250929050565b613b5681613709565b82525050565b613b65816137ca565b82525050565b613b748161375f565b82525050565b608082016000820151613b906000850182613b4d565b506020820151613ba36020850182613b5c565b506040820151613bb66040850182613b6b565b506060820151613bc96060850182613b5c565b50505050565b6000608082019050613be46000830184613b7a565b92915050565b600067ffffffffffffffff82169050919050565b613c0781613bea565b8114613c1257600080fd5b50565b600081359050613c2481613bfe565b92915050565b600080600080600060a08688031215613c4657613c4561367a565b5b6000613c5488828901613788565b9550506020613c65888289016137eb565b9450506040613c76888289016137eb565b9350506060613c87888289016137eb565b9250506080613c9888828901613c15565b9150509295509295909350565b613cae8161375f565b82525050565b6000604082019050613cc96000830185613ca5565b613cd66020830184613a46565b9392505050565b613ce681613bea565b82525050565b60a082016000820151613d026000850182613b4d565b506020820151613d156020850182613b6b565b506040820151613d286040850182613b5c565b506060820151613d3b6060850182613cdd565b506080820151613d4e6080850182613b5c565b50505050565b600060a082019050613d696000830184613cec565b92915050565b60008060008060808587031215613d8957613d8861367a565b5b6000613d9787828801613788565b9450506020613da8878288016137eb565b9350506040613db9878288016137eb565b9250506060613dca87828801613c15565b91505092959194509250565b600060208284031215613dec57613deb61367a565b5b6000613dfa848285016137eb565b91505092915050565b60a082016000820151613e196000850182613b6b565b506020820151613e2c6020850182613b5c565b506040820151613e3f6040850182613b5c565b506060820151613e526060850182613b5c565b506080820151613e656080850182613cdd565b50505050565b600060a082019050613e806000830184613e03565b92915050565b6000602082019050613e9b6000830184613ca5565b92915050565b600067ffffffffffffffff821115613ebc57613ebb61386e565b5b602082029050602081019050919050565b600080fd5b6000613ee5613ee084613ea1565b6138ce565b90508083825260208201905060208402830185811115613f0857613f07613ecd565b5b835b81811015613f315780613f1d88826137eb565b845260208401935050602081019050613f0a565b5050509392505050565b600082601f830112613f5057613f4f613853565b5b8135613f60848260208601613ed2565b91505092915050565b600080600080600060a08688031215613f8557613f8461367a565b5b6000613f9388828901613788565b9550506020613fa488828901613788565b945050604086013567ffffffffffffffff811115613fc557613fc461367f565b5b613fd188828901613f3b565b935050606086013567ffffffffffffffff811115613ff257613ff161367f565b5b613ffe88828901613f3b565b925050608086013567ffffffffffffffff81111561401f5761401e61367f565b5b61402b8882890161396b565b9150509295509295909350565b600080600080600060a086880312156140545761405361367a565b5b600061406288828901613788565b955050602061407388828901613788565b9450506040614084888289016137eb565b9350506060614095888289016137eb565b925050608086013567ffffffffffffffff8111156140b6576140b561367f565b5b6140c28882890161396b565b9150509295509295909350565b60006040820190506140e46000830185613a46565b6140f16020830184613a46565b9392505050565b600082825260208201905092915050565b7f4d61726b6574706c6163653a2050657263656e74616765206d7573742062652060008201527f6c657373206f7220657175616c207468616e2031303000000000000000000000602082015250565b60006141656036836140f8565b915061417082614109565b604082019050919050565b6000602082019050818103600083015261419481614158565b9050919050565b7f4d61726b6574706c6163653a204e65772070657263656e74616765206973207460008201527f68652073616d65206173207468652063757272656e74206f6e65000000000000602082015250565b60006141f7603a836140f8565b91506142028261419b565b604082019050919050565b60006020820190508181036000830152614226816141ea565b9050919050565b7f4d61726b6574706c6163653a204e6f7468696e6720746f20776974686472617760008201527f2e00000000000000000000000000000000000000000000000000000000000000602082015250565b60006142896021836140f8565b91506142948261422d565b604082019050919050565b600060208201905081810360008301526142b88161427c565b9050919050565b6000815190506142ce81613771565b92915050565b6000815190506142e3816137d4565b92915050565b60008060408385031215614300576142ff61367a565b5b600061430e858286016142bf565b925050602061431f858286016142d4565b9150509250929050565b7f4d61726b6574706c6163653a20436f756e7465726f66666572206e6f7420666f60008201527f756e640000000000000000000000000000000000000000000000000000000000602082015250565b60006143856023836140f8565b915061439082614329565b604082019050919050565b600060208201905081810360008301526143b481614378565b9050919050565b7f4e487b7100000000000000000000000000000000000000000000000000000000600052601160045260246000fd5b60006143f5826137ca565b9150614400836137ca565b9250828203905081811115614418576144176143bb565b5b92915050565b7f4d61726b6574706c6163653a204e4654206e6f74206c69737465640000000000600082015250565b6000614454601b836140f8565b915061445f8261441e565b602082019050919050565b6000602082019050818103600083015261448381614447565b9050919050565b7f4d61726b6574706c6163653a204e465420616c7265616479206c697374656400600082015250565b60006144c0601f836140f8565b91506144cb8261448a565b602082019050919050565b600060208201905081810360008301526144ef816144b3565b9050919050565b7f4d61726b6574706c6163653a20596f7520646f6e2774206f776e20746865204e60008201527f4654000000000000000000000000000000000000000000000000000000000000602082015250565b60006145526022836140f8565b915061455d826144f6565b604082019050919050565b6000602082019050818103600083015261458181614545565b9050919050565b7f4d61726b6574706c6163653a205072696365206d75737420626520677265617460008201527f6572207468616e20300000000000000000000000000000000000000000000000602082015250565b60006145e46029836140f8565b91506145ef82614588565b604082019050919050565b60006020820190508181036000830152614613816145d7565b9050919050565b7f4f776e61626c653a206e6577206f776e657220697320746865207a65726f206160008201527f6464726573730000000000000000000000000000000000000000000000000000602082015250565b60006146766026836140f8565b91506146818261461a565b604082019050919050565b600060208201905081810360008301526146a581614669565b9050919050565b60006146b782613ad6565b91506146c283613ad6565b92508282026146d081613ad6565b91508082146146e2576146e16143bb565b5b5092915050565b7f4e487b7100000000000000000000000000000000000000000000000000000000600052601260045260246000fd5b600061472382613ad6565b915061472e83613ad6565b92508261473e5761473d6146e9565b5b600160000383147fffffffffffffffffffffffffffffffff8000000000000000000000000000000083141615614777576147766143bb565b5b828205905092915050565b7f4d61726b6574706c6163653a204f66666572206e6f7420666f756e6400000000600082015250565b60006147b8601c836140f8565b91506147c382614782565b602082019050919050565b600060208201905081810360008301526147e7816147ab565b9050919050565b7f4d61726b6574706c6163653a2057726f6e672042757965720000000000000000600082015250565b60006148246018836140f8565b915061482f826147ee565b602082019050919050565b6000602082019050818103600083015261485381614817565b9050919050565b7f4d61726b6574706c6163653a204f6666657220616c726561647920776173206360008201527f616e63656c6c6564000000000000000000000000000000000000000000000000602082015250565b60006148b66028836140f8565b91506148c18261485a565b604082019050919050565b600060208201905081810360008301526148e5816148a9565b9050919050565b7f4f776e61626c653a2063616c6c6572206973206e6f7420746865206f776e6572600082015250565b60006149226020836140f8565b915061492d826148ec565b602082019050919050565b6000602082019050818103600083015261495181614915565b9050919050565b7f4d61726b6574706c6163653a205072696365206d75737420626520677265617460008201527f6572207468616e206f6666657200000000000000000000000000000000000000602082015250565b60006149b4602d836140f8565b91506149bf82614958565b604082019050919050565b600060208201905081810360008301526149e3816149a7565b9050919050565b7f4d61726b6574706c6163653a205072696365206d757374206265206c6573732060008201527f7468616e204e4654207072696365000000000000000000000000000000000000602082015250565b6000614a46602e836140f8565b9150614a51826149ea565b604082019050919050565b60006020820190508181036000830152614a7581614a39565b9050919050565b7f4d61726b6574706c6163653a204f666665722065787069726564000000000000600082015250565b6000614ab2601a836140f8565b9150614abd82614a7c565b602082019050919050565b60006020820190508181036000830152614ae181614aa5565b9050919050565b7f4d61726b6574706c6163653a20596f75206172656e27742073656c6c696e672060008201527f746865204e465400000000000000000000000000000000000000000000000000602082015250565b6000614b446027836140f8565b9150614b4f82614ae8565b604082019050919050565b60006020820190508181036000830152614b7381614b37565b9050919050565b7f4d61726b6574706c6163653a20436f756e7465726f6666657220616c7265616460008201527f7920657869737473000000000000000000000000000000000000000000000000602082015250565b6000614bd66028836140f8565b9150614be182614b7a565b604082019050919050565b60006020820190508181036000830152614c0581614bc9565b9050919050565b6000614c1782613bea565b9150614c2283613bea565b9250828202614c3081613bea565b9150808214614c4257614c416143bb565b5b5092915050565b6000614c5482613bea565b9150614c5f83613bea565b9250828201905067ffffffffffffffff811115614c7f57614c7e6143bb565b5b92915050565b6000614c90826137ca565b9150614c9b836137ca565b9250828201905080821115614cb357614cb26143bb565b5b92915050565b7f4d61726b6574706c6163653a204e65772070726963652069732074686520736160008201527f6d652061732063757272656e7420707269636500000000000000000000000000602082015250565b6000614d156033836140f8565b9150614d2082614cb9565b604082019050919050565b60006020820190508181036000830152614d4481614d08565b9050919050565b7f4d61726b6574706c6163653a2053656e6465722073686f756c6420626520746860008201527f652073656c6c6572000000000000000000000000000000000000000000000000602082015250565b6000614da76028836140f8565b9150614db282614d4b565b604082019050919050565b60006020820190508181036000830152614dd681614d9a565b9050919050565b7f4d61726b6574706c6163653a204e4654206e6f7420666f756e64000000000000600082015250565b6000614e13601a836140f8565b9150614e1e82614ddd565b602082019050919050565b60006020820190508181036000830152614e4281614e06565b9050919050565b7f4d61726b6574706c6163653a204f6666657220646f65736e2774206578697374600082015250565b6000614e7f6020836140f8565b9150614e8a82614e49565b602082019050919050565b60006020820190508181036000830152614eae81614e72565b9050919050565b7f4d61726b6574706c6163653a204f666665722077617320757365640000000000600082015250565b6000614eeb601b836140f8565b9150614ef682614eb5565b602082019050919050565b60006020820190508181036000830152614f1a81614ede565b9050919050565b7f4e487b7100000000000000000000000000000000000000000000000000000000600052603260045260246000fd5b7f4d61726b6574706c6163653a20596f75206469646e2774206d616b652074686560008201527f206f666665720000000000000000000000000000000000000000000000000000602082015250565b6000614fac6026836140f8565b9150614fb782614f50565b604082019050919050565b60006020820190508181036000830152614fdb81614f9f565b9050919050565b7f4d61726b6574706c6163653a20436f756e7465726f666665722065787069726560008201527f6400000000000000000000000000000000000000000000000000000000000000602082015250565b600061503e6021836140f8565b915061504982614fe2565b604082019050919050565b6000602082019050818103600083015261506d81615031565b9050919050565b60006020828403121561508a5761508961367a565b5b6000615098848285016142bf565b91505092915050565b6000602082840312156150b7576150b661367a565b5b60006150c5848285016142d4565b91505092915050565b7f4d61726b6574706c6163653a205072696365206d75737420626520677265617460008201527f6572206f7220657175616c207468616e20746865206d696e696d756d206f666660208201527f657220707269636520666f722074686174204e4654202863616c6c206d696e5060408201527f726963654f666665722829290000000000000000000000000000000000000000606082015250565b6000615176606c836140f8565b9150615181826150ce565b608082019050919050565b600060208201905081810360008301526151a581615169565b9050919050565b60006060820190506151c16000830186613ca5565b6151ce6020830185613ca5565b6151db6040830184613a46565b949350505050565b600082825260208201905092915050565b50565b60006152046000836151e3565b915061520f826151f4565b600082019050919050565b600060a08201905061522f6000830187613ca5565b61523c6020830186613ca5565b6152496040830185613a46565b6152566060830184613a46565b8181036080830152615267816151f7565b905095945050505050565b61527b81613709565b811461528657600080fd5b50565b60008151905061529881615272565b92915050565b6000602082840312156152b4576152b361367a565b5b60006152c284828501615289565b91505092915050565b7f5361666545524332303a204552433230206f7065726174696f6e20646964206e60008201527f6f74207375636365656400000000000000000000000000000000000000000000602082015250565b6000615327602a836140f8565b9150615332826152cb565b604082019050919050565b600060208201905081810360008301526153568161531a565b9050919050565b7f416464726573733a20696e73756666696369656e742062616c616e636520666f60008201527f722063616c6c0000000000000000000000000000000000000000000000000000602082015250565b60006153b96026836140f8565b91506153c48261535d565b604082019050919050565b600060208201905081810360008301526153e8816153ac565b9050919050565b600081519050919050565b600081905092915050565b60005b83811015615423578082015181840152602081019050615408565b60008484015250505050565b600061543a826153ef565b61544481856153fa565b9350615454818560208601615405565b80840191505092915050565b600061546c828461542f565b915081905092915050565b7f416464726573733a2063616c6c20746f206e6f6e2d636f6e7472616374000000600082015250565b60006154ad601d836140f8565b91506154b882615477565b602082019050919050565b600060208201905081810360008301526154dc816154a0565b9050919050565b600081519050919050565b60006154f9826154e3565b61550381856140f8565b9350615513818560208601615405565b61551c8161385d565b840191505092915050565b6000602082019050818103600083015261554181846154ee565b90509291505056fea26469706673582212204ab5fc5530d485cc10fffaeb28b3fc5c1dfe7fc566b4716c71385dd971152e3564736f6c63430008120033",
  "devdoc": {
    "kind": "dev",
    "methods": {
      "onERC721Received(address,address,uint256,bytes)": {
        "details": "See {IERC721Receiver-onERC721Received}. Always returns `IERC721Receiver.onERC721Received.selector`."
      },
      "owner()": {
        "details": "Returns the address of the current owner."
      },
      "renounceOwnership()": {
        "details": "Leaves the contract without owner. It will not be possible to call `onlyOwner` functions anymore. Can only be called by the current owner. NOTE: Renouncing ownership will leave the contract without an owner, thereby removing any functionality that is only available to the owner."
      },
      "supportsInterface(bytes4)": {
        "details": "See {IERC165-supportsInterface}."
      },
      "transferOwnership(address)": {
        "details": "Transfers ownership of the contract to a new account (`newOwner`). Can only be called by the current owner."
      }
    },
    "version": 1
  },
  "userdoc": {
    "kind": "user",
    "methods": {},
    "version": 1
  },
  "storageLayout": {
    "storage": [
      {
        "astId": 7,
        "contract": "contracts/Erc20PaymentMarketplace.sol:Erc20PaymentMarketplace",
        "label": "_owner",
        "offset": 0,
        "slot": "0",
        "type": "t_address"
      },
      {
        "astId": 1966,
        "contract": "contracts/Erc20PaymentMarketplace.sol:Erc20PaymentMarketplace",
        "label": "feeRatio",
        "offset": 0,
        "slot": "1",
        "type": "t_int128"
      },
      {
        "astId": 1975,
        "contract": "contracts/Erc20PaymentMarketplace.sol:Erc20PaymentMarketplace",
        "label": "floorRatio",
        "offset": 16,
        "slot": "1",
        "type": "t_int128"
      },
      {
        "astId": 1993,
        "contract": "contracts/Erc20PaymentMarketplace.sol:Erc20PaymentMarketplace",
        "label": "fusyBenefitsAccumulated",
        "offset": 0,
        "slot": "2",
        "type": "t_uint256"
      },
      {
        "astId": 2000,
        "contract": "contracts/Erc20PaymentMarketplace.sol:Erc20PaymentMarketplace",
        "label": "nftsListed",
        "offset": 0,
        "slot": "3",
        "type": "t_mapping(t_address,t_mapping(t_uint256,t_struct(NFTForSale)1957_storage))"
      },
      {
        "astId": 2004,
        "contract": "contracts/Erc20PaymentMarketplace.sol:Erc20PaymentMarketplace",
        "label": "counteroffers",
        "offset": 0,
        "slot": "4",
        "type": "t_array(t_struct(Counteroffer)1763_storage)dyn_storage"
      }
    ],
    "types": {
      "t_address": {
        "encoding": "inplace",
        "label": "address",
        "numberOfBytes": "20"
      },
      "t_array(t_struct(Counteroffer)1763_storage)dyn_storage": {
        "base": "t_struct(Counteroffer)1763_storage",
        "encoding": "dynamic_array",
        "label": "struct IMarketplace.Counteroffer[]",
        "numberOfBytes": "32"
      },
      "t_bool": {
        "encoding": "inplace",
        "label": "bool",
        "numberOfBytes": "1"
      },
      "t_int128": {
        "encoding": "inplace",
        "label": "int128",
        "numberOfBytes": "16"
      },
      "t_mapping(t_address,t_mapping(t_uint256,t_struct(NFTForSale)1957_storage))": {
        "encoding": "mapping",
        "key": "t_address",
        "label": "mapping(address => mapping(uint256 => struct Marketplace.NFTForSale))",
        "numberOfBytes": "32",
        "value": "t_mapping(t_uint256,t_struct(NFTForSale)1957_storage)"
      },
      "t_mapping(t_uint256,t_struct(NFTForSale)1957_storage)": {
        "encoding": "mapping",
        "key": "t_uint256",
        "label": "mapping(uint256 => struct Marketplace.NFTForSale)",
        "numberOfBytes": "32",
        "value": "t_struct(NFTForSale)1957_storage"
      },
      "t_mapping(t_uint256,t_struct(Offer)1701_storage)": {
        "encoding": "mapping",
        "key": "t_uint256",
        "label": "mapping(uint256 => struct IMarketplace.Offer)",
        "numberOfBytes": "32",
        "value": "t_struct(Offer)1701_storage"
      },
      "t_struct(Counteroffer)1763_storage": {
        "encoding": "inplace",
        "label": "struct IMarketplace.Counteroffer",
        "members": [
          {
            "astId": 1754,
            "contract": "contracts/Erc20PaymentMarketplace.sol:Erc20PaymentMarketplace",
            "label": "collection",
            "offset": 0,
            "slot": "0",
            "type": "t_address"
          },
          {
            "astId": 1756,
            "contract": "contracts/Erc20PaymentMarketplace.sol:Erc20PaymentMarketplace",
            "label": "nftId",
            "offset": 0,
            "slot": "1",
            "type": "t_uint256"
          },
          {
            "astId": 1758,
            "contract": "contracts/Erc20PaymentMarketplace.sol:Erc20PaymentMarketplace",
            "label": "offerId",
            "offset": 0,
            "slot": "2",
            "type": "t_uint256"
          },
          {
            "astId": 1760,
            "contract": "contracts/Erc20PaymentMarketplace.sol:Erc20PaymentMarketplace",
            "label": "price",
            "offset": 0,
            "slot": "3",
            "type": "t_uint256"
          },
          {
            "astId": 1762,
            "contract": "contracts/Erc20PaymentMarketplace.sol:Erc20PaymentMarketplace",
            "label": "expirationDate",
            "offset": 0,
            "slot": "4",
            "type": "t_uint64"
          }
        ],
        "numberOfBytes": "160"
      },
      "t_struct(NFTForSale)1957_storage": {
        "encoding": "inplace",
        "label": "struct Marketplace.NFTForSale",
        "members": [
          {
            "astId": 1945,
            "contract": "contracts/Erc20PaymentMarketplace.sol:Erc20PaymentMarketplace",
            "label": "listed",
            "offset": 0,
            "slot": "0",
            "type": "t_bool"
          },
          {
            "astId": 1947,
            "contract": "contracts/Erc20PaymentMarketplace.sol:Erc20PaymentMarketplace",
            "label": "price",
            "offset": 0,
            "slot": "1",
            "type": "t_uint256"
          },
          {
            "astId": 1949,
            "contract": "contracts/Erc20PaymentMarketplace.sol:Erc20PaymentMarketplace",
            "label": "seller",
            "offset": 0,
            "slot": "2",
            "type": "t_address"
          },
          {
            "astId": 1954,
            "contract": "contracts/Erc20PaymentMarketplace.sol:Erc20PaymentMarketplace",
            "label": "offers",
            "offset": 0,
            "slot": "3",
            "type": "t_mapping(t_uint256,t_struct(Offer)1701_storage)"
          },
          {
            "astId": 1956,
            "contract": "contracts/Erc20PaymentMarketplace.sol:Erc20PaymentMarketplace",
            "label": "totalOffers",
            "offset": 0,
            "slot": "4",
            "type": "t_uint256"
          }
        ],
        "numberOfBytes": "160"
      },
      "t_struct(Offer)1701_storage": {
        "encoding": "inplace",
        "label": "struct IMarketplace.Offer",
        "members": [
          {
            "astId": 1692,
            "contract": "contracts/Erc20PaymentMarketplace.sol:Erc20PaymentMarketplace",
            "label": "isInitialized",
            "offset": 0,
            "slot": "0",
            "type": "t_bool"
          },
          {
            "astId": 1694,
            "contract": "contracts/Erc20PaymentMarketplace.sol:Erc20PaymentMarketplace",
            "label": "buyer",
            "offset": 1,
            "slot": "0",
            "type": "t_address"
          },
          {
            "astId": 1696,
            "contract": "contracts/Erc20PaymentMarketplace.sol:Erc20PaymentMarketplace",
            "label": "price",
            "offset": 0,
            "slot": "1",
            "type": "t_uint256"
          },
          {
            "astId": 1698,
            "contract": "contracts/Erc20PaymentMarketplace.sol:Erc20PaymentMarketplace",
            "label": "expirationDate",
            "offset": 0,
            "slot": "2",
            "type": "t_uint64"
          },
          {
            "astId": 1700,
            "contract": "contracts/Erc20PaymentMarketplace.sol:Erc20PaymentMarketplace",
            "label": "counterofferId",
            "offset": 0,
            "slot": "3",
            "type": "t_uint256"
          }
        ],
        "numberOfBytes": "128"
      },
      "t_uint256": {
        "encoding": "inplace",
        "label": "uint256",
        "numberOfBytes": "32"
      },
      "t_uint64": {
        "encoding": "inplace",
        "label": "uint64",
        "numberOfBytes": "8"
      }
    }
  }
}