{
  "address": "0xbdEd0D2bf404bdcBa897a74E6657f1f12e5C6fb6",
  "abi": [
    {
      "inputs": [
        {
          "internalType": "string",
          "name": "baseUri_",
          "type": "string"
        },
        {
          "internalType": "uint64",
          "name": "cap_",
          "type": "uint64"
        },
        {
          "internalType": "string",
          "name": "name_",
          "type": "string"
        },
        {
          "internalType": "string",
          "name": "symbol_",
          "type": "string"
        },
        {
          "internalType": "uint96",
          "name": "feeNumerator_",
          "type": "uint96"
        }
      ],
      "stateMutability": "nonpayable",
      "type": "constructor"
    },
    {
      "anonymous": false,
      "inputs": [
        {
          "indexed": true,
          "internalType": "address",
          "name": "owner",
          "type": "address"
        },
        {
          "indexed": true,
          "internalType": "address",
          "name": "approved",
          "type": "address"
        },
        {
          "indexed": true,
          "internalType": "uint256",
          "name": "tokenId",
          "type": "uint256"
        }
      ],
      "name": "Approval",
      "type": "event"
    },
    {
      "anonymous": false,
      "inputs": [
        {
          "indexed": true,
          "internalType": "address",
          "name": "owner",
          "type": "address"
        },
        {
          "indexed": true,
          "internalType": "address",
          "name": "operator",
          "type": "address"
        },
        {
          "indexed": false,
          "internalType": "bool",
          "name": "approved",
          "type": "bool"
        }
      ],
      "name": "ApprovalForAll",
      "type": "event"
    },
    {
      "anonymous": false,
      "inputs": [
        {
          "indexed": true,
          "internalType": "address",
          "name": "previousOwner",
          "type": "address"
        },
        {
          "indexed": true,
          "internalType": "address",
          "name": "newOwner",
          "type": "address"
        }
      ],
      "name": "OwnershipTransferred",
      "type": "event"
    },
    {
      "anonymous": false,
      "inputs": [
        {
          "indexed": true,
          "internalType": "address",
          "name": "from",
          "type": "address"
        },
        {
          "indexed": true,
          "internalType": "address",
          "name": "to",
          "type": "address"
        },
        {
          "indexed": true,
          "internalType": "uint256",
          "name": "tokenId",
          "type": "uint256"
        }
      ],
      "name": "Transfer",
      "type": "event"
    },
    {
      "inputs": [],
      "name": "_verifyCap",
      "outputs": [],
      "stateMutability": "view",
      "type": "function"
    },
    {
      "inputs": [
        {
          "internalType": "address",
          "name": "to",
          "type": "address"
        },
        {
          "internalType": "uint256",
          "name": "tokenId",
          "type": "uint256"
        }
      ],
      "name": "approve",
      "outputs": [],
      "stateMutability": "nonpayable",
      "type": "function"
    },
    {
      "inputs": [
        {
          "internalType": "address",
          "name": "owner",
          "type": "address"
        }
      ],
      "name": "balanceOf",
      "outputs": [
        {
          "internalType": "uint256",
          "name": "",
          "type": "uint256"
        }
      ],
      "stateMutability": "view",
      "type": "function"
    },
    {
      "inputs": [],
      "name": "baseUri",
      "outputs": [
        {
          "internalType": "string",
          "name": "",
          "type": "string"
        }
      ],
      "stateMutability": "view",
      "type": "function"
    },
    {
      "inputs": [],
      "name": "createNFT",
      "outputs": [],
      "stateMutability": "nonpayable",
      "type": "function"
    },
    {
      "inputs": [
        {
          "internalType": "uint256",
          "name": "tokenId",
          "type": "uint256"
        }
      ],
      "name": "getApproved",
      "outputs": [
        {
          "internalType": "address",
          "name": "",
          "type": "address"
        }
      ],
      "stateMutability": "view",
      "type": "function"
    },
    {
      "inputs": [
        {
          "internalType": "address",
          "name": "owner",
          "type": "address"
        },
        {
          "internalType": "address",
          "name": "operator",
          "type": "address"
        }
      ],
      "name": "isApprovedForAll",
      "outputs": [
        {
          "internalType": "bool",
          "name": "",
          "type": "bool"
        }
      ],
      "stateMutability": "view",
      "type": "function"
    },
    {
      "inputs": [],
      "name": "maxFeeNumerator",
      "outputs": [
        {
          "internalType": "uint16",
          "name": "",
          "type": "uint16"
        }
      ],
      "stateMutability": "view",
      "type": "function"
    },
    {
      "inputs": [],
      "name": "name",
      "outputs": [
        {
          "internalType": "string",
          "name": "",
          "type": "string"
        }
      ],
      "stateMutability": "view",
      "type": "function"
    },
    {
      "inputs": [],
      "name": "owner",
      "outputs": [
        {
          "internalType": "address",
          "name": "",
          "type": "address"
        }
      ],
      "stateMutability": "view",
      "type": "function"
    },
    {
      "inputs": [
        {
          "internalType": "uint256",
          "name": "tokenId",
          "type": "uint256"
        }
      ],
      "name": "ownerOf",
      "outputs": [
        {
          "internalType": "address",
          "name": "",
          "type": "address"
        }
      ],
      "stateMutability": "view",
      "type": "function"
    },
    {
      "inputs": [],
      "name": "renounceOwnership",
      "outputs": [],
      "stateMutability": "nonpayable",
      "type": "function"
    },
    {
      "inputs": [
        {
          "internalType": "uint256",
          "name": "_tokenId",
          "type": "uint256"
        },
        {
          "internalType": "uint256",
          "name": "_salePrice",
          "type": "uint256"
        }
      ],
      "name": "royaltyInfo",
      "outputs": [
        {
          "internalType": "address",
          "name": "",
          "type": "address"
        },
        {
          "internalType": "uint256",
          "name": "",
          "type": "uint256"
        }
      ],
      "stateMutability": "view",
      "type": "function"
    },
    {
      "inputs": [
        {
          "internalType": "address",
          "name": "from",
          "type": "address"
        },
        {
          "internalType": "address",
          "name": "to",
          "type": "address"
        },
        {
          "internalType": "uint256",
          "name": "tokenId",
          "type": "uint256"
        }
      ],
      "name": "safeTransferFrom",
      "outputs": [],
      "stateMutability": "nonpayable",
      "type": "function"
    },
    {
      "inputs": [
        {
          "internalType": "address",
          "name": "from",
          "type": "address"
        },
        {
          "internalType": "address",
          "name": "to",
          "type": "address"
        },
        {
          "internalType": "uint256",
          "name": "tokenId",
          "type": "uint256"
        },
        {
          "internalType": "bytes",
          "name": "data",
          "type": "bytes"
        }
      ],
      "name": "safeTransferFrom",
      "outputs": [],
      "stateMutability": "nonpayable",
      "type": "function"
    },
    {
      "inputs": [
        {
          "internalType": "address",
          "name": "operator",
          "type": "address"
        },
        {
          "internalType": "bool",
          "name": "approved",
          "type": "bool"
        }
      ],
      "name": "setApprovalForAll",
      "outputs": [],
      "stateMutability": "nonpayable",
      "type": "function"
    },
    {
      "inputs": [
        {
          "internalType": "bytes4",
          "name": "interfaceId",
          "type": "bytes4"
        }
      ],
      "name": "supportsInterface",
      "outputs": [
        {
          "internalType": "bool",
          "name": "",
          "type": "bool"
        }
      ],
      "stateMutability": "view",
      "type": "function"
    },
    {
      "inputs": [],
      "name": "symbol",
      "outputs": [
        {
          "internalType": "string",
          "name": "",
          "type": "string"
        }
      ],
      "stateMutability": "view",
      "type": "function"
    },
    {
      "inputs": [
        {
          "internalType": "uint256",
          "name": "tokenId",
          "type": "uint256"
        }
      ],
      "name": "tokenURI",
      "outputs": [
        {
          "internalType": "string",
          "name": "",
          "type": "string"
        }
      ],
      "stateMutability": "view",
      "type": "function"
    },
    {
      "inputs": [],
      "name": "totalMintedNFTs",
      "outputs": [
        {
          "internalType": "uint256",
          "name": "",
          "type": "uint256"
        }
      ],
      "stateMutability": "view",
      "type": "function"
    },
    {
      "inputs": [
        {
          "internalType": "address",
          "name": "from",
          "type": "address"
        },
        {
          "internalType": "address",
          "name": "to",
          "type": "address"
        },
        {
          "internalType": "uint256",
          "name": "tokenId",
          "type": "uint256"
        }
      ],
      "name": "transferFrom",
      "outputs": [],
      "stateMutability": "nonpayable",
      "type": "function"
    },
    {
      "inputs": [
        {
          "internalType": "address",
          "name": "newOwner",
          "type": "address"
        }
      ],
      "name": "transferOwnership",
      "outputs": [],
      "stateMutability": "nonpayable",
      "type": "function"
    }
  ],
  "transactionHash": "0xc2d50c57dfda913a62f03f01936dca60c90287d833359a1efc6efebfa1a732fa",
  "args": [
    "https://bafybeih73edbchreochzo2gp3ixdu3d6k4eaafjkbb7fryghz475hv5zoi.ipfs.nftstorage.link/",
    9,
    "WarInMars",
    "Weapons",
    1000
  ],
  "numDeployments": 1,
  "solcInputHash": "7d85ec89eae1380aacc9e94d494083cd",
  "bytecode": "0x60a06040523480156200001157600080fd5b5060405162003c6938038062003c698339818101604052810190620000379190620005ff565b828281600090816200004a91906200092f565b5080600190816200005c91906200092f565b5050506200007f620000736200013960201b60201c565b6200014160201b60201c565b6103e861ffff16816bffffffffffffffffffffffff161115620000d9576040517f08c379a0000000000000000000000000000000000000000000000000000000008152600401620000d09062000a9d565b60405180910390fd5b600081905085600b9081620000ef91906200092f565b508467ffffffffffffffff1660808167ffffffffffffffff16815250506200012d620001206200020760201b60201c565b826200023160201b60201c565b50505050505062000bc9565b600033905090565b6000600960009054906101000a900473ffffffffffffffffffffffffffffffffffffffff16905081600960006101000a81548173ffffffffffffffffffffffffffffffffffffffff021916908373ffffffffffffffffffffffffffffffffffffffff1602179055508173ffffffffffffffffffffffffffffffffffffffff168173ffffffffffffffffffffffffffffffffffffffff167f8be0079c531659141344cd1fd0a4f28419497f9722a3daafe3b4186f6b6457e060405160405180910390a35050565b6000600960009054906101000a900473ffffffffffffffffffffffffffffffffffffffff16905090565b62000241620003d460201b60201c565b6bffffffffffffffffffffffff16816bffffffffffffffffffffffff161115620002a2576040517f08c379a0000000000000000000000000000000000000000000000000000000008152600401620002999062000b35565b60405180910390fd5b600073ffffffffffffffffffffffffffffffffffffffff168273ffffffffffffffffffffffffffffffffffffffff160362000314576040517f08c379a00000000000000000000000000000000000000000000000000000000081526004016200030b9062000ba7565b60405180910390fd5b60405180604001604052808373ffffffffffffffffffffffffffffffffffffffff168152602001826bffffffffffffffffffffffff16815250600760008201518160000160006101000a81548173ffffffffffffffffffffffffffffffffffffffff021916908373ffffffffffffffffffffffffffffffffffffffff16021790555060208201518160000160146101000a8154816bffffffffffffffffffffffff02191690836bffffffffffffffffffffffff1602179055509050505050565b6000612710905090565b6000604051905090565b600080fd5b600080fd5b600080fd5b600080fd5b6000601f19601f8301169050919050565b7f4e487b7100000000000000000000000000000000000000000000000000000000600052604160045260246000fd5b6200044782620003fc565b810181811067ffffffffffffffff821117156200046957620004686200040d565b5b80604052505050565b60006200047e620003de565b90506200048c82826200043c565b919050565b600067ffffffffffffffff821115620004af57620004ae6200040d565b5b620004ba82620003fc565b9050602081019050919050565b60005b83811015620004e7578082015181840152602081019050620004ca565b60008484015250505050565b60006200050a620005048462000491565b62000472565b905082815260208101848484011115620005295762000528620003f7565b5b62000536848285620004c7565b509392505050565b600082601f830112620005565762000555620003f2565b5b815162000568848260208601620004f3565b91505092915050565b600067ffffffffffffffff82169050919050565b620005908162000571565b81146200059c57600080fd5b50565b600081519050620005b08162000585565b92915050565b60006bffffffffffffffffffffffff82169050919050565b620005d981620005b6565b8114620005e557600080fd5b50565b600081519050620005f981620005ce565b92915050565b600080600080600060a086880312156200061e576200061d620003e8565b5b600086015167ffffffffffffffff8111156200063f576200063e620003ed565b5b6200064d888289016200053e565b955050602062000660888289016200059f565b945050604086015167ffffffffffffffff811115620006845762000683620003ed565b5b62000692888289016200053e565b935050606086015167ffffffffffffffff811115620006b657620006b5620003ed565b5b620006c4888289016200053e565b9250506080620006d788828901620005e8565b9150509295509295909350565b600081519050919050565b7f4e487b7100000000000000000000000000000000000000000000000000000000600052602260045260246000fd5b600060028204905060018216806200073757607f821691505b6020821081036200074d576200074c620006ef565b5b50919050565b60008190508160005260206000209050919050565b60006020601f8301049050919050565b600082821b905092915050565b600060088302620007b77fffffffffffffffffffffffffffffffffffffffffffffffffffffffffffffffff8262000778565b620007c3868362000778565b95508019841693508086168417925050509392505050565b6000819050919050565b6000819050919050565b6000620008106200080a6200080484620007db565b620007e5565b620007db565b9050919050565b6000819050919050565b6200082c83620007ef565b620008446200083b8262000817565b84845462000785565b825550505050565b600090565b6200085b6200084c565b6200086881848462000821565b505050565b5b8181101562000890576200088460008262000851565b6001810190506200086e565b5050565b601f821115620008df57620008a98162000753565b620008b48462000768565b81016020851015620008c4578190505b620008dc620008d38562000768565b8301826200086d565b50505b505050565b600082821c905092915050565b60006200090460001984600802620008e4565b1980831691505092915050565b60006200091f8383620008f1565b9150826002028217905092915050565b6200093a82620006e4565b67ffffffffffffffff8111156200095657620009556200040d565b5b6200096282546200071e565b6200096f82828562000894565b600060209050601f831160018114620009a7576000841562000992578287015190505b6200099e858262000911565b86555062000a0e565b601f198416620009b78662000753565b60005b82811015620009e157848901518255600182019150602085019450602081019050620009ba565b8683101562000a015784890151620009fd601f891682620008f1565b8355505b6001600288020188555050505b505050505050565b600082825260208201905092915050565b7f436f6c6c656374696f6e3a20526f79616c746965732073686f756c642062652060008201527f6c657373207468616e2031302500000000000000000000000000000000000000602082015250565b600062000a85602d8362000a16565b915062000a928262000a27565b604082019050919050565b6000602082019050818103600083015262000ab88162000a76565b9050919050565b7f455243323938313a20726f79616c7479206665652077696c6c2065786365656460008201527f2073616c65507269636500000000000000000000000000000000000000000000602082015250565b600062000b1d602a8362000a16565b915062000b2a8262000abf565b604082019050919050565b6000602082019050818103600083015262000b508162000b0e565b9050919050565b7f455243323938313a20696e76616c696420726563656976657200000000000000600082015250565b600062000b8f60198362000a16565b915062000b9c8262000b57565b602082019050919050565b6000602082019050818103600083015262000bc28162000b80565b9050919050565b60805161308462000be5600039600061088501526130846000f3fe608060405234801561001057600080fd5b50600436106101425760003560e01c8063715018a6116100b8578063a22cb4651161007c578063a22cb46514610340578063b88d4fde1461035c578063c87b56dd14610378578063e985e9c5146103a8578063f2fde38b146103d8578063fbabba22146103f457610142565b8063715018a6146102d25780638a97ec2a146102dc5780638da5cb5b146102e657806395d89b41146103045780639abc83201461032257610142565b806323b872dd1161010a57806323b872dd146101ff5780632a55205a1461021b57806342842e0e1461024c578063469a9ef8146102685780636352211e1461027257806370a08231146102a257610142565b806301ffc9a714610147578063052710b61461017757806306fdde0314610195578063081812fc146101b3578063095ea7b3146101e3575b600080fd5b610161600480360381019061015c9190612079565b610412565b60405161016e91906120c1565b60405180910390f35b61017f610424565b60405161018c91906120f5565b60405180910390f35b61019d61042a565b6040516101aa91906121a0565b60405180910390f35b6101cd60048036038101906101c891906121ee565b6104bc565b6040516101da919061225c565b60405180910390f35b6101fd60048036038101906101f891906122a3565b610502565b005b610219600480360381019061021491906122e3565b610619565b005b61023560048036038101906102309190612336565b610679565b604051610243929190612376565b60405180910390f35b610266600480360381019061026191906122e3565b610863565b005b610270610883565b005b61028c600480360381019061028791906121ee565b6108f3565b604051610299919061225c565b60405180910390f35b6102bc60048036038101906102b7919061239f565b610979565b6040516102c991906120f5565b60405180910390f35b6102da610a30565b005b6102e4610a44565b005b6102ee610a8b565b6040516102fb919061225c565b60405180910390f35b61030c610ab5565b60405161031991906121a0565b60405180910390f35b61032a610b47565b60405161033791906121a0565b60405180910390f35b61035a600480360381019061035591906123f8565b610bd5565b005b6103766004803603810190610371919061256d565b610beb565b005b610392600480360381019061038d91906121ee565b610c4d565b60405161039f91906121a0565b60405180910390f35b6103c260048036038101906103bd91906125f0565b610c5f565b6040516103cf91906120c1565b60405180910390f35b6103f260048036038101906103ed919061239f565b610cf3565b005b6103fc610d76565b604051610409919061264d565b60405180910390f35b600061041d82610d7c565b9050919050565b600c5481565b60606000805461043990612697565b80601f016020809104026020016040519081016040528092919081815260200182805461046590612697565b80156104b25780601f10610487576101008083540402835291602001916104b2565b820191906000526020600020905b81548152906001019060200180831161049557829003601f168201915b5050505050905090565b60006104c782610df6565b6004600083815260200190815260200160002060009054906101000a900473ffffffffffffffffffffffffffffffffffffffff169050919050565b600061050d826108f3565b90508073ffffffffffffffffffffffffffffffffffffffff168373ffffffffffffffffffffffffffffffffffffffff160361057d576040517f08c379a00000000000000000000000000000000000000000000000000000000081526004016105749061273a565b60405180910390fd5b8073ffffffffffffffffffffffffffffffffffffffff1661059c610e41565b73ffffffffffffffffffffffffffffffffffffffff1614806105cb57506105ca816105c5610e41565b610c5f565b5b61060a576040517f08c379a0000000000000000000000000000000000000000000000000000000008152600401610601906127cc565b60405180910390fd5b6106148383610e49565b505050565b61062a610624610e41565b82610f02565b610669576040517f08c379a00000000000000000000000000000000000000000000000000000000081526004016106609061285e565b60405180910390fd5b610674838383610f97565b505050565b6000806000600860008681526020019081526020016000206040518060400160405290816000820160009054906101000a900473ffffffffffffffffffffffffffffffffffffffff1673ffffffffffffffffffffffffffffffffffffffff1673ffffffffffffffffffffffffffffffffffffffff1681526020016000820160149054906101000a90046bffffffffffffffffffffffff166bffffffffffffffffffffffff166bffffffffffffffffffffffff16815250509050600073ffffffffffffffffffffffffffffffffffffffff16816000015173ffffffffffffffffffffffffffffffffffffffff160361080e5760076040518060400160405290816000820160009054906101000a900473ffffffffffffffffffffffffffffffffffffffff1673ffffffffffffffffffffffffffffffffffffffff1673ffffffffffffffffffffffffffffffffffffffff1681526020016000820160149054906101000a90046bffffffffffffffffffffffff166bffffffffffffffffffffffff166bffffffffffffffffffffffff168152505090505b6000610818611290565b6bffffffffffffffffffffffff1682602001516bffffffffffffffffffffffff168661084491906128ad565b61084e919061291e565b90508160000151819350935050509250929050565b61087e83838360405180602001604052806000815250610beb565b505050565b7f000000000000000000000000000000000000000000000000000000000000000067ffffffffffffffff16600c54106108f1576040517f08c379a00000000000000000000000000000000000000000000000000000000081526004016108e8906129c1565b60405180910390fd5b565b6000806108ff8361129a565b9050600073ffffffffffffffffffffffffffffffffffffffff168173ffffffffffffffffffffffffffffffffffffffff1603610970576040517f08c379a000000000000000000000000000000000000000000000000000000000815260040161096790612a2d565b60405180910390fd5b80915050919050565b60008073ffffffffffffffffffffffffffffffffffffffff168273ffffffffffffffffffffffffffffffffffffffff16036109e9576040517f08c379a00000000000000000000000000000000000000000000000000000000081526004016109e090612abf565b60405180910390fd5b600360008373ffffffffffffffffffffffffffffffffffffffff1673ffffffffffffffffffffffffffffffffffffffff168152602001908152602001600020549050919050565b610a386112d7565b610a426000611355565b565b610a4c610883565b610a56600a61141b565b6000610a62600a611431565b90506001600c6000828254610a779190612adf565b92505081905550610a88338261143f565b50565b6000600960009054906101000a900473ffffffffffffffffffffffffffffffffffffffff16905090565b606060018054610ac490612697565b80601f0160208091040260200160405190810160405280929190818152602001828054610af090612697565b8015610b3d5780601f10610b1257610100808354040283529160200191610b3d565b820191906000526020600020905b815481529060010190602001808311610b2057829003601f168201915b5050505050905090565b600b8054610b5490612697565b80601f0160208091040260200160405190810160405280929190818152602001828054610b8090612697565b8015610bcd5780601f10610ba257610100808354040283529160200191610bcd565b820191906000526020600020905b815481529060010190602001808311610bb057829003601f168201915b505050505081565b610be7610be0610e41565b838361145d565b5050565b610bfc610bf6610e41565b83610f02565b610c3b576040517f08c379a0000000000000000000000000000000000000000000000000000000008152600401610c329061285e565b60405180910390fd5b610c47848484846115c9565b50505050565b6060610c5882611625565b9050919050565b6000600560008473ffffffffffffffffffffffffffffffffffffffff1673ffffffffffffffffffffffffffffffffffffffff16815260200190815260200160002060008373ffffffffffffffffffffffffffffffffffffffff1673ffffffffffffffffffffffffffffffffffffffff16815260200190815260200160002060009054906101000a900460ff16905092915050565b610cfb6112d7565b600073ffffffffffffffffffffffffffffffffffffffff168173ffffffffffffffffffffffffffffffffffffffff1603610d6a576040517f08c379a0000000000000000000000000000000000000000000000000000000008152600401610d6190612b85565b60405180910390fd5b610d7381611355565b50565b6103e881565b60007f2a55205a000000000000000000000000000000000000000000000000000000007bffffffffffffffffffffffffffffffffffffffffffffffffffffffff1916827bffffffffffffffffffffffffffffffffffffffffffffffffffffffff19161480610def5750610dee82611737565b5b9050919050565b610dff81611819565b610e3e576040517f08c379a0000000000000000000000000000000000000000000000000000000008152600401610e3590612a2d565b60405180910390fd5b50565b600033905090565b816004600083815260200190815260200160002060006101000a81548173ffffffffffffffffffffffffffffffffffffffff021916908373ffffffffffffffffffffffffffffffffffffffff160217905550808273ffffffffffffffffffffffffffffffffffffffff16610ebc836108f3565b73ffffffffffffffffffffffffffffffffffffffff167f8c5be1e5ebec7d5bd14f71427d1e84f3dd0314c0f7b2291e5b200ac8c7c3b92560405160405180910390a45050565b600080610f0e836108f3565b90508073ffffffffffffffffffffffffffffffffffffffff168473ffffffffffffffffffffffffffffffffffffffff161480610f505750610f4f8185610c5f565b5b80610f8e57508373ffffffffffffffffffffffffffffffffffffffff16610f76846104bc565b73ffffffffffffffffffffffffffffffffffffffff16145b91505092915050565b8273ffffffffffffffffffffffffffffffffffffffff16610fb7826108f3565b73ffffffffffffffffffffffffffffffffffffffff161461100d576040517f08c379a000000000000000000000000000000000000000000000000000000000815260040161100490612c17565b60405180910390fd5b600073ffffffffffffffffffffffffffffffffffffffff168273ffffffffffffffffffffffffffffffffffffffff160361107c576040517f08c379a000000000000000000000000000000000000000000000000000000000815260040161107390612ca9565b60405180910390fd5b611089838383600161185a565b8273ffffffffffffffffffffffffffffffffffffffff166110a9826108f3565b73ffffffffffffffffffffffffffffffffffffffff16146110ff576040517f08c379a00000000000000000000000000000000000000000000000000000000081526004016110f690612c17565b60405180910390fd5b6004600082815260200190815260200160002060006101000a81549073ffffffffffffffffffffffffffffffffffffffff02191690556001600360008573ffffffffffffffffffffffffffffffffffffffff1673ffffffffffffffffffffffffffffffffffffffff168152602001908152602001600020600082825403925050819055506001600360008473ffffffffffffffffffffffffffffffffffffffff1673ffffffffffffffffffffffffffffffffffffffff16815260200190815260200160002060008282540192505081905550816002600083815260200190815260200160002060006101000a81548173ffffffffffffffffffffffffffffffffffffffff021916908373ffffffffffffffffffffffffffffffffffffffff160217905550808273ffffffffffffffffffffffffffffffffffffffff168473ffffffffffffffffffffffffffffffffffffffff167fddf252ad1be2c89b69c2b068fc378daa952ba7f163c4a11628f55a4df523b3ef60405160405180910390a461128b8383836001611860565b505050565b6000612710905090565b60006002600083815260200190815260200160002060009054906101000a900473ffffffffffffffffffffffffffffffffffffffff169050919050565b6112df610e41565b73ffffffffffffffffffffffffffffffffffffffff166112fd610a8b565b73ffffffffffffffffffffffffffffffffffffffff1614611353576040517f08c379a000000000000000000000000000000000000000000000000000000000815260040161134a90612d15565b60405180910390fd5b565b6000600960009054906101000a900473ffffffffffffffffffffffffffffffffffffffff16905081600960006101000a81548173ffffffffffffffffffffffffffffffffffffffff021916908373ffffffffffffffffffffffffffffffffffffffff1602179055508173ffffffffffffffffffffffffffffffffffffffff168173ffffffffffffffffffffffffffffffffffffffff167f8be0079c531659141344cd1fd0a4f28419497f9722a3daafe3b4186f6b6457e060405160405180910390a35050565b6001816000016000828254019250508190555050565b600081600001549050919050565b611459828260405180602001604052806000815250611866565b5050565b8173ffffffffffffffffffffffffffffffffffffffff168373ffffffffffffffffffffffffffffffffffffffff16036114cb576040517f08c379a00000000000000000000000000000000000000000000000000000000081526004016114c290612d81565b60405180910390fd5b80600560008573ffffffffffffffffffffffffffffffffffffffff1673ffffffffffffffffffffffffffffffffffffffff16815260200190815260200160002060008473ffffffffffffffffffffffffffffffffffffffff1673ffffffffffffffffffffffffffffffffffffffff16815260200190815260200160002060006101000a81548160ff0219169083151502179055508173ffffffffffffffffffffffffffffffffffffffff168373ffffffffffffffffffffffffffffffffffffffff167f17307eab39ab6107e8899845ad3d59bd9653f200f220920489ca2b5937696c31836040516115bc91906120c1565b60405180910390a3505050565b6115d4848484610f97565b6115e0848484846118c1565b61161f576040517f08c379a000000000000000000000000000000000000000000000000000000000815260040161161690612e13565b60405180910390fd5b50505050565b606061163082610df6565b600060066000848152602001908152602001600020805461165090612697565b80601f016020809104026020016040519081016040528092919081815260200182805461167c90612697565b80156116c95780601f1061169e576101008083540402835291602001916116c9565b820191906000526020600020905b8154815290600101906020018083116116ac57829003601f168201915b5050505050905060006116da611a48565b905060008151036116ef578192505050611732565b60008251111561172457808260405160200161170c929190612e6f565b60405160208183030381529060405292505050611732565b61172d84611ada565b925050505b919050565b60007f80ac58cd000000000000000000000000000000000000000000000000000000007bffffffffffffffffffffffffffffffffffffffffffffffffffffffff1916827bffffffffffffffffffffffffffffffffffffffffffffffffffffffff1916148061180257507f5b5e139f000000000000000000000000000000000000000000000000000000007bffffffffffffffffffffffffffffffffffffffffffffffffffffffff1916827bffffffffffffffffffffffffffffffffffffffffffffffffffffffff1916145b80611812575061181182611b42565b5b9050919050565b60008073ffffffffffffffffffffffffffffffffffffffff1661183b8361129a565b73ffffffffffffffffffffffffffffffffffffffff1614159050919050565b50505050565b50505050565b6118708383611bac565b61187d60008484846118c1565b6118bc576040517f08c379a00000000000000000000000000000000000000000000000000000000081526004016118b390612e13565b60405180910390fd5b505050565b60006118e28473ffffffffffffffffffffffffffffffffffffffff16611dc9565b15611a3b578373ffffffffffffffffffffffffffffffffffffffff1663150b7a0261190b610e41565b8786866040518563ffffffff1660e01b815260040161192d9493929190612ee8565b6020604051808303816000875af192505050801561196957506040513d601f19601f820116820180604052508101906119669190612f49565b60015b6119eb573d8060008114611999576040519150601f19603f3d011682016040523d82523d6000602084013e61199e565b606091505b5060008151036119e3576040517f08c379a00000000000000000000000000000000000000000000000000000000081526004016119da90612e13565b60405180910390fd5b805181602001fd5b63150b7a0260e01b7bffffffffffffffffffffffffffffffffffffffffffffffffffffffff1916817bffffffffffffffffffffffffffffffffffffffffffffffffffffffff191614915050611a40565b600190505b949350505050565b6060600b8054611a5790612697565b80601f0160208091040260200160405190810160405280929190818152602001828054611a8390612697565b8015611ad05780601f10611aa557610100808354040283529160200191611ad0565b820191906000526020600020905b815481529060010190602001808311611ab357829003601f168201915b5050505050905090565b6060611ae582610df6565b6000611aef611a48565b90506000815111611b0f5760405180602001604052806000815250611b3a565b80611b1984611dec565b604051602001611b2a929190612e6f565b6040516020818303038152906040525b915050919050565b60007f01ffc9a7000000000000000000000000000000000000000000000000000000007bffffffffffffffffffffffffffffffffffffffffffffffffffffffff1916827bffffffffffffffffffffffffffffffffffffffffffffffffffffffff1916149050919050565b600073ffffffffffffffffffffffffffffffffffffffff168273ffffffffffffffffffffffffffffffffffffffff1603611c1b576040517f08c379a0000000000000000000000000000000000000000000000000000000008152600401611c1290612fc2565b60405180910390fd5b611c2481611819565b15611c64576040517f08c379a0000000000000000000000000000000000000000000000000000000008152600401611c5b9061302e565b60405180910390fd5b611c7260008383600161185a565b611c7b81611819565b15611cbb576040517f08c379a0000000000000000000000000000000000000000000000000000000008152600401611cb29061302e565b60405180910390fd5b6001600360008473ffffffffffffffffffffffffffffffffffffffff1673ffffffffffffffffffffffffffffffffffffffff16815260200190815260200160002060008282540192505081905550816002600083815260200190815260200160002060006101000a81548173ffffffffffffffffffffffffffffffffffffffff021916908373ffffffffffffffffffffffffffffffffffffffff160217905550808273ffffffffffffffffffffffffffffffffffffffff16600073ffffffffffffffffffffffffffffffffffffffff167fddf252ad1be2c89b69c2b068fc378daa952ba7f163c4a11628f55a4df523b3ef60405160405180910390a4611dc5600083836001611860565b5050565b6000808273ffffffffffffffffffffffffffffffffffffffff163b119050919050565b606060006001611dfb84611eba565b01905060008167ffffffffffffffff811115611e1a57611e19612442565b5b6040519080825280601f01601f191660200182016040528015611e4c5781602001600182028036833780820191505090505b509050600082602001820190505b600115611eaf578080600190039150507f3031323334353637383961626364656600000000000000000000000000000000600a86061a8153600a8581611ea357611ea26128ef565b5b04945060008503611e5a575b819350505050919050565b600080600090507a184f03e93ff9f4daa797ed6e38ed64bf6a1f0100000000000000008310611f18577a184f03e93ff9f4daa797ed6e38ed64bf6a1f0100000000000000008381611f0e57611f0d6128ef565b5b0492506040810190505b6d04ee2d6d415b85acef81000000008310611f55576d04ee2d6d415b85acef81000000008381611f4b57611f4a6128ef565b5b0492506020810190505b662386f26fc100008310611f8457662386f26fc100008381611f7a57611f796128ef565b5b0492506010810190505b6305f5e1008310611fad576305f5e1008381611fa357611fa26128ef565b5b0492506008810190505b6127108310611fd2576127108381611fc857611fc76128ef565b5b0492506004810190505b60648310611ff55760648381611feb57611fea6128ef565b5b0492506002810190505b600a8310612004576001810190505b80915050919050565b6000604051905090565b600080fd5b600080fd5b60007fffffffff0000000000000000000000000000000000000000000000000000000082169050919050565b61205681612021565b811461206157600080fd5b50565b6000813590506120738161204d565b92915050565b60006020828403121561208f5761208e612017565b5b600061209d84828501612064565b91505092915050565b60008115159050919050565b6120bb816120a6565b82525050565b60006020820190506120d660008301846120b2565b92915050565b6000819050919050565b6120ef816120dc565b82525050565b600060208201905061210a60008301846120e6565b92915050565b600081519050919050565b600082825260208201905092915050565b60005b8381101561214a57808201518184015260208101905061212f565b60008484015250505050565b6000601f19601f8301169050919050565b600061217282612110565b61217c818561211b565b935061218c81856020860161212c565b61219581612156565b840191505092915050565b600060208201905081810360008301526121ba8184612167565b905092915050565b6121cb816120dc565b81146121d657600080fd5b50565b6000813590506121e8816121c2565b92915050565b60006020828403121561220457612203612017565b5b6000612212848285016121d9565b91505092915050565b600073ffffffffffffffffffffffffffffffffffffffff82169050919050565b60006122468261221b565b9050919050565b6122568161223b565b82525050565b6000602082019050612271600083018461224d565b92915050565b6122808161223b565b811461228b57600080fd5b50565b60008135905061229d81612277565b92915050565b600080604083850312156122ba576122b9612017565b5b60006122c88582860161228e565b92505060206122d9858286016121d9565b9150509250929050565b6000806000606084860312156122fc576122fb612017565b5b600061230a8682870161228e565b935050602061231b8682870161228e565b925050604061232c868287016121d9565b9150509250925092565b6000806040838503121561234d5761234c612017565b5b600061235b858286016121d9565b925050602061236c858286016121d9565b9150509250929050565b600060408201905061238b600083018561224d565b61239860208301846120e6565b9392505050565b6000602082840312156123b5576123b4612017565b5b60006123c38482850161228e565b91505092915050565b6123d5816120a6565b81146123e057600080fd5b50565b6000813590506123f2816123cc565b92915050565b6000806040838503121561240f5761240e612017565b5b600061241d8582860161228e565b925050602061242e858286016123e3565b9150509250929050565b600080fd5b600080fd5b7f4e487b7100000000000000000000000000000000000000000000000000000000600052604160045260246000fd5b61247a82612156565b810181811067ffffffffffffffff8211171561249957612498612442565b5b80604052505050565b60006124ac61200d565b90506124b88282612471565b919050565b600067ffffffffffffffff8211156124d8576124d7612442565b5b6124e182612156565b9050602081019050919050565b82818337600083830152505050565b600061251061250b846124bd565b6124a2565b90508281526020810184848401111561252c5761252b61243d565b5b6125378482856124ee565b509392505050565b600082601f83011261255457612553612438565b5b81356125648482602086016124fd565b91505092915050565b6000806000806080858703121561258757612586612017565b5b60006125958782880161228e565b94505060206125a68782880161228e565b93505060406125b7878288016121d9565b925050606085013567ffffffffffffffff8111156125d8576125d761201c565b5b6125e48782880161253f565b91505092959194509250565b6000806040838503121561260757612606612017565b5b60006126158582860161228e565b92505060206126268582860161228e565b9150509250929050565b600061ffff82169050919050565b61264781612630565b82525050565b6000602082019050612662600083018461263e565b92915050565b7f4e487b7100000000000000000000000000000000000000000000000000000000600052602260045260246000fd5b600060028204905060018216806126af57607f821691505b6020821081036126c2576126c1612668565b5b50919050565b7f4552433732313a20617070726f76616c20746f2063757272656e74206f776e6560008201527f7200000000000000000000000000000000000000000000000000000000000000602082015250565b600061272460218361211b565b915061272f826126c8565b604082019050919050565b6000602082019050818103600083015261275381612717565b9050919050565b7f4552433732313a20617070726f76652063616c6c6572206973206e6f7420746f60008201527f6b656e206f776e6572206f7220617070726f76656420666f7220616c6c000000602082015250565b60006127b6603d8361211b565b91506127c18261275a565b604082019050919050565b600060208201905081810360008301526127e5816127a9565b9050919050565b7f4552433732313a2063616c6c6572206973206e6f7420746f6b656e206f776e6560008201527f72206f7220617070726f76656400000000000000000000000000000000000000602082015250565b6000612848602d8361211b565b9150612853826127ec565b604082019050919050565b600060208201905081810360008301526128778161283b565b9050919050565b7f4e487b7100000000000000000000000000000000000000000000000000000000600052601160045260246000fd5b60006128b8826120dc565b91506128c3836120dc565b92508282026128d1816120dc565b915082820484148315176128e8576128e761287e565b5b5092915050565b7f4e487b7100000000000000000000000000000000000000000000000000000000600052601260045260246000fd5b6000612929826120dc565b9150612934836120dc565b925082612944576129436128ef565b5b828204905092915050565b7f436f6c6c656374696f6e3a20496d706f737369626c6520746f206d696e74206160008201527f6e6f74686572204e465400000000000000000000000000000000000000000000602082015250565b60006129ab602a8361211b565b91506129b68261294f565b604082019050919050565b600060208201905081810360008301526129da8161299e565b9050919050565b7f4552433732313a20696e76616c696420746f6b656e2049440000000000000000600082015250565b6000612a1760188361211b565b9150612a22826129e1565b602082019050919050565b60006020820190508181036000830152612a4681612a0a565b9050919050565b7f4552433732313a2061646472657373207a65726f206973206e6f74206120766160008201527f6c6964206f776e65720000000000000000000000000000000000000000000000602082015250565b6000612aa960298361211b565b9150612ab482612a4d565b604082019050919050565b60006020820190508181036000830152612ad881612a9c565b9050919050565b6000612aea826120dc565b9150612af5836120dc565b9250828201905080821115612b0d57612b0c61287e565b5b92915050565b7f4f776e61626c653a206e6577206f776e657220697320746865207a65726f206160008201527f6464726573730000000000000000000000000000000000000000000000000000602082015250565b6000612b6f60268361211b565b9150612b7a82612b13565b604082019050919050565b60006020820190508181036000830152612b9e81612b62565b9050919050565b7f4552433732313a207472616e736665722066726f6d20696e636f72726563742060008201527f6f776e6572000000000000000000000000000000000000000000000000000000602082015250565b6000612c0160258361211b565b9150612c0c82612ba5565b604082019050919050565b60006020820190508181036000830152612c3081612bf4565b9050919050565b7f4552433732313a207472616e7366657220746f20746865207a65726f2061646460008201527f7265737300000000000000000000000000000000000000000000000000000000602082015250565b6000612c9360248361211b565b9150612c9e82612c37565b604082019050919050565b60006020820190508181036000830152612cc281612c86565b9050919050565b7f4f776e61626c653a2063616c6c6572206973206e6f7420746865206f776e6572600082015250565b6000612cff60208361211b565b9150612d0a82612cc9565b602082019050919050565b60006020820190508181036000830152612d2e81612cf2565b9050919050565b7f4552433732313a20617070726f766520746f2063616c6c657200000000000000600082015250565b6000612d6b60198361211b565b9150612d7682612d35565b602082019050919050565b60006020820190508181036000830152612d9a81612d5e565b9050919050565b7f4552433732313a207472616e7366657220746f206e6f6e20455243373231526560008201527f63656976657220696d706c656d656e7465720000000000000000000000000000602082015250565b6000612dfd60328361211b565b9150612e0882612da1565b604082019050919050565b60006020820190508181036000830152612e2c81612df0565b9050919050565b600081905092915050565b6000612e4982612110565b612e538185612e33565b9350612e6381856020860161212c565b80840191505092915050565b6000612e7b8285612e3e565b9150612e878284612e3e565b91508190509392505050565b600081519050919050565b600082825260208201905092915050565b6000612eba82612e93565b612ec48185612e9e565b9350612ed481856020860161212c565b612edd81612156565b840191505092915050565b6000608082019050612efd600083018761224d565b612f0a602083018661224d565b612f1760408301856120e6565b8181036060830152612f298184612eaf565b905095945050505050565b600081519050612f438161204d565b92915050565b600060208284031215612f5f57612f5e612017565b5b6000612f6d84828501612f34565b91505092915050565b7f4552433732313a206d696e7420746f20746865207a65726f2061646472657373600082015250565b6000612fac60208361211b565b9150612fb782612f76565b602082019050919050565b60006020820190508181036000830152612fdb81612f9f565b9050919050565b7f4552433732313a20746f6b656e20616c7265616479206d696e74656400000000600082015250565b6000613018601c8361211b565b915061302382612fe2565b602082019050919050565b600060208201905081810360008301526130478161300b565b905091905056fea2646970667358221220b9e356b4e72de0e8b1d3919e4c766a95f169fde0c4c08b15ac2a23a32aea268664736f6c63430008120033",
  "devdoc": {
    "events": {
      "Approval(address,address,uint256)": {
        "details": "Emitted when `owner` enables `approved` to manage the `tokenId` token."
      },
      "ApprovalForAll(address,address,bool)": {
        "details": "Emitted when `owner` enables or disables (`approved`) `operator` to manage all of its assets."
      },
      "Transfer(address,address,uint256)": {
        "details": "Emitted when `tokenId` token is transferred from `from` to `to`."
      }
    },
    "kind": "dev",
    "methods": {
      "approve(address,uint256)": {
        "details": "See {IERC721-approve}."
      },
      "balanceOf(address)": {
        "details": "See {IERC721-balanceOf}."
      },
      "getApproved(uint256)": {
        "details": "See {IERC721-getApproved}."
      },
      "isApprovedForAll(address,address)": {
        "details": "See {IERC721-isApprovedForAll}."
      },
      "name()": {
        "details": "See {IERC721Metadata-name}."
      },
      "owner()": {
        "details": "Returns the address of the current owner."
      },
      "ownerOf(uint256)": {
        "details": "See {IERC721-ownerOf}."
      },
      "renounceOwnership()": {
        "details": "Leaves the contract without owner. It will not be possible to call `onlyOwner` functions anymore. Can only be called by the current owner. NOTE: Renouncing ownership will leave the contract without an owner, thereby removing any functionality that is only available to the owner."
      },
      "royaltyInfo(uint256,uint256)": {
        "details": "Returns how much royalty is owed and to whom, based on a sale price that may be denominated in any unit of exchange. The royalty amount is denominated and should be paid in that same unit of exchange."
      },
      "safeTransferFrom(address,address,uint256)": {
        "details": "See {IERC721-safeTransferFrom}."
      },
      "safeTransferFrom(address,address,uint256,bytes)": {
        "details": "See {IERC721-safeTransferFrom}."
      },
      "setApprovalForAll(address,bool)": {
        "details": "See {IERC721-setApprovalForAll}."
      },
      "symbol()": {
        "details": "See {IERC721Metadata-symbol}."
      },
      "transferFrom(address,address,uint256)": {
        "details": "See {IERC721-transferFrom}."
      },
      "transferOwnership(address)": {
        "details": "Transfers ownership of the contract to a new account (`newOwner`). Can only be called by the current owner."
      }
    },
    "version": 1
  },
  "userdoc": {
    "kind": "user",
    "methods": {},
    "version": 1
  },
  "storageLayout": {
    "storage": [
      {
        "astId": 157,
        "contract": "contracts/FusyERC721CollectionWithRoyaltySupport.sol:FusyERC721CollectionWithRoyaltySupport",
        "label": "_name",
        "offset": 0,
        "slot": "0",
        "type": "t_string_storage"
      },
      {
        "astId": 159,
        "contract": "contracts/FusyERC721CollectionWithRoyaltySupport.sol:FusyERC721CollectionWithRoyaltySupport",
        "label": "_symbol",
        "offset": 0,
        "slot": "1",
        "type": "t_string_storage"
      },
      {
        "astId": 163,
        "contract": "contracts/FusyERC721CollectionWithRoyaltySupport.sol:FusyERC721CollectionWithRoyaltySupport",
        "label": "_owners",
        "offset": 0,
        "slot": "2",
        "type": "t_mapping(t_uint256,t_address)"
      },
      {
        "astId": 167,
        "contract": "contracts/FusyERC721CollectionWithRoyaltySupport.sol:FusyERC721CollectionWithRoyaltySupport",
        "label": "_balances",
        "offset": 0,
        "slot": "3",
        "type": "t_mapping(t_address,t_uint256)"
      },
      {
        "astId": 171,
        "contract": "contracts/FusyERC721CollectionWithRoyaltySupport.sol:FusyERC721CollectionWithRoyaltySupport",
        "label": "_tokenApprovals",
        "offset": 0,
        "slot": "4",
        "type": "t_mapping(t_uint256,t_address)"
      },
      {
        "astId": 177,
        "contract": "contracts/FusyERC721CollectionWithRoyaltySupport.sol:FusyERC721CollectionWithRoyaltySupport",
        "label": "_operatorApprovals",
        "offset": 0,
        "slot": "5",
        "type": "t_mapping(t_address,t_mapping(t_address,t_bool))"
      },
      {
        "astId": 1205,
        "contract": "contracts/FusyERC721CollectionWithRoyaltySupport.sol:FusyERC721CollectionWithRoyaltySupport",
        "label": "_tokenURIs",
        "offset": 0,
        "slot": "6",
        "type": "t_mapping(t_uint256,t_string_storage)"
      },
      {
        "astId": 1361,
        "contract": "contracts/FusyERC721CollectionWithRoyaltySupport.sol:FusyERC721CollectionWithRoyaltySupport",
        "label": "_defaultRoyaltyInfo",
        "offset": 0,
        "slot": "7",
        "type": "t_struct(RoyaltyInfo)1358_storage"
      },
      {
        "astId": 1366,
        "contract": "contracts/FusyERC721CollectionWithRoyaltySupport.sol:FusyERC721CollectionWithRoyaltySupport",
        "label": "_tokenRoyaltyInfo",
        "offset": 0,
        "slot": "8",
        "type": "t_mapping(t_uint256,t_struct(RoyaltyInfo)1358_storage)"
      },
      {
        "astId": 7,
        "contract": "contracts/FusyERC721CollectionWithRoyaltySupport.sol:FusyERC721CollectionWithRoyaltySupport",
        "label": "_owner",
        "offset": 0,
        "slot": "9",
        "type": "t_address"
      },
      {
        "astId": 3071,
        "contract": "contracts/FusyERC721CollectionWithRoyaltySupport.sol:FusyERC721CollectionWithRoyaltySupport",
        "label": "_tokenIdCounter",
        "offset": 0,
        "slot": "10",
        "type": "t_struct(Counter)1900_storage"
      },
      {
        "astId": 3073,
        "contract": "contracts/FusyERC721CollectionWithRoyaltySupport.sol:FusyERC721CollectionWithRoyaltySupport",
        "label": "baseUri",
        "offset": 0,
        "slot": "11",
        "type": "t_string_storage"
      },
      {
        "astId": 3075,
        "contract": "contracts/FusyERC721CollectionWithRoyaltySupport.sol:FusyERC721CollectionWithRoyaltySupport",
        "label": "totalMintedNFTs",
        "offset": 0,
        "slot": "12",
        "type": "t_uint256"
      }
    ],
    "types": {
      "t_address": {
        "encoding": "inplace",
        "label": "address",
        "numberOfBytes": "20"
      },
      "t_bool": {
        "encoding": "inplace",
        "label": "bool",
        "numberOfBytes": "1"
      },
      "t_mapping(t_address,t_bool)": {
        "encoding": "mapping",
        "key": "t_address",
        "label": "mapping(address => bool)",
        "numberOfBytes": "32",
        "value": "t_bool"
      },
      "t_mapping(t_address,t_mapping(t_address,t_bool))": {
        "encoding": "mapping",
        "key": "t_address",
        "label": "mapping(address => mapping(address => bool))",
        "numberOfBytes": "32",
        "value": "t_mapping(t_address,t_bool)"
      },
      "t_mapping(t_address,t_uint256)": {
        "encoding": "mapping",
        "key": "t_address",
        "label": "mapping(address => uint256)",
        "numberOfBytes": "32",
        "value": "t_uint256"
      },
      "t_mapping(t_uint256,t_address)": {
        "encoding": "mapping",
        "key": "t_uint256",
        "label": "mapping(uint256 => address)",
        "numberOfBytes": "32",
        "value": "t_address"
      },
      "t_mapping(t_uint256,t_string_storage)": {
        "encoding": "mapping",
        "key": "t_uint256",
        "label": "mapping(uint256 => string)",
        "numberOfBytes": "32",
        "value": "t_string_storage"
      },
      "t_mapping(t_uint256,t_struct(RoyaltyInfo)1358_storage)": {
        "encoding": "mapping",
        "key": "t_uint256",
        "label": "mapping(uint256 => struct ERC2981.RoyaltyInfo)",
        "numberOfBytes": "32",
        "value": "t_struct(RoyaltyInfo)1358_storage"
      },
      "t_string_storage": {
        "encoding": "bytes",
        "label": "string",
        "numberOfBytes": "32"
      },
      "t_struct(Counter)1900_storage": {
        "encoding": "inplace",
        "label": "struct Counters.Counter",
        "members": [
          {
            "astId": 1899,
            "contract": "contracts/FusyERC721CollectionWithRoyaltySupport.sol:FusyERC721CollectionWithRoyaltySupport",
            "label": "_value",
            "offset": 0,
            "slot": "0",
            "type": "t_uint256"
          }
        ],
        "numberOfBytes": "32"
      },
      "t_struct(RoyaltyInfo)1358_storage": {
        "encoding": "inplace",
        "label": "struct ERC2981.RoyaltyInfo",
        "members": [
          {
            "astId": 1355,
            "contract": "contracts/FusyERC721CollectionWithRoyaltySupport.sol:FusyERC721CollectionWithRoyaltySupport",
            "label": "receiver",
            "offset": 0,
            "slot": "0",
            "type": "t_address"
          },
          {
            "astId": 1357,
            "contract": "contracts/FusyERC721CollectionWithRoyaltySupport.sol:FusyERC721CollectionWithRoyaltySupport",
            "label": "royaltyFraction",
            "offset": 20,
            "slot": "0",
            "type": "t_uint96"
          }
        ],
        "numberOfBytes": "32"
      },
      "t_uint256": {
        "encoding": "inplace",
        "label": "uint256",
        "numberOfBytes": "32"
      },
      "t_uint96": {
        "encoding": "inplace",
        "label": "uint96",
        "numberOfBytes": "12"
      }
    }
  }
}