{
  "address": "0x5FbDB2315678afecb367f032d93F642f64180aa3",
  "abi": [
    {
      "inputs": [
        {
          "internalType": "uint256[]",
          "name": "ids",
          "type": "uint256[]"
        },
        {
          "internalType": "uint256[]",
          "name": "copies",
          "type": "uint256[]"
        }
      ],
      "stateMutability": "nonpayable",
      "type": "constructor"
    },
    {
      "anonymous": false,
      "inputs": [
        {
          "indexed": true,
          "internalType": "address",
          "name": "account",
          "type": "address"
        },
        {
          "indexed": true,
          "internalType": "address",
          "name": "operator",
          "type": "address"
        },
        {
          "indexed": false,
          "internalType": "bool",
          "name": "approved",
          "type": "bool"
        }
      ],
      "name": "ApprovalForAll",
      "type": "event"
    },
    {
      "anonymous": false,
      "inputs": [
        {
          "indexed": true,
          "internalType": "address",
          "name": "previousOwner",
          "type": "address"
        },
        {
          "indexed": true,
          "internalType": "address",
          "name": "newOwner",
          "type": "address"
        }
      ],
      "name": "OwnershipTransferred",
      "type": "event"
    },
    {
      "anonymous": false,
      "inputs": [
        {
          "indexed": true,
          "internalType": "address",
          "name": "operator",
          "type": "address"
        },
        {
          "indexed": true,
          "internalType": "address",
          "name": "from",
          "type": "address"
        },
        {
          "indexed": true,
          "internalType": "address",
          "name": "to",
          "type": "address"
        },
        {
          "indexed": false,
          "internalType": "uint256[]",
          "name": "ids",
          "type": "uint256[]"
        },
        {
          "indexed": false,
          "internalType": "uint256[]",
          "name": "values",
          "type": "uint256[]"
        }
      ],
      "name": "TransferBatch",
      "type": "event"
    },
    {
      "anonymous": false,
      "inputs": [
        {
          "indexed": true,
          "internalType": "address",
          "name": "operator",
          "type": "address"
        },
        {
          "indexed": true,
          "internalType": "address",
          "name": "from",
          "type": "address"
        },
        {
          "indexed": true,
          "internalType": "address",
          "name": "to",
          "type": "address"
        },
        {
          "indexed": false,
          "internalType": "uint256",
          "name": "id",
          "type": "uint256"
        },
        {
          "indexed": false,
          "internalType": "uint256",
          "name": "value",
          "type": "uint256"
        }
      ],
      "name": "TransferSingle",
      "type": "event"
    },
    {
      "anonymous": false,
      "inputs": [
        {
          "indexed": false,
          "internalType": "string",
          "name": "value",
          "type": "string"
        },
        {
          "indexed": true,
          "internalType": "uint256",
          "name": "id",
          "type": "uint256"
        }
      ],
      "name": "URI",
      "type": "event"
    },
    {
      "inputs": [
        {
          "internalType": "address",
          "name": "account",
          "type": "address"
        },
        {
          "internalType": "uint256",
          "name": "id",
          "type": "uint256"
        }
      ],
      "name": "balanceOf",
      "outputs": [
        {
          "internalType": "uint256",
          "name": "",
          "type": "uint256"
        }
      ],
      "stateMutability": "view",
      "type": "function"
    },
    {
      "inputs": [
        {
          "internalType": "address[]",
          "name": "accounts",
          "type": "address[]"
        },
        {
          "internalType": "uint256[]",
          "name": "ids",
          "type": "uint256[]"
        }
      ],
      "name": "balanceOfBatch",
      "outputs": [
        {
          "internalType": "uint256[]",
          "name": "",
          "type": "uint256[]"
        }
      ],
      "stateMutability": "view",
      "type": "function"
    },
    {
      "inputs": [
        {
          "internalType": "address",
          "name": "account",
          "type": "address"
        },
        {
          "internalType": "address",
          "name": "operator",
          "type": "address"
        }
      ],
      "name": "isApprovedForAll",
      "outputs": [
        {
          "internalType": "bool",
          "name": "",
          "type": "bool"
        }
      ],
      "stateMutability": "view",
      "type": "function"
    },
    {
      "inputs": [
        {
          "internalType": "address",
          "name": "account",
          "type": "address"
        },
        {
          "internalType": "uint256",
          "name": "id",
          "type": "uint256"
        },
        {
          "internalType": "uint256",
          "name": "amount",
          "type": "uint256"
        },
        {
          "internalType": "bytes",
          "name": "data",
          "type": "bytes"
        }
      ],
      "name": "mint",
      "outputs": [],
      "stateMutability": "nonpayable",
      "type": "function"
    },
    {
      "inputs": [
        {
          "internalType": "address",
          "name": "to",
          "type": "address"
        },
        {
          "internalType": "uint256[]",
          "name": "ids",
          "type": "uint256[]"
        },
        {
          "internalType": "uint256[]",
          "name": "amounts",
          "type": "uint256[]"
        },
        {
          "internalType": "bytes",
          "name": "data",
          "type": "bytes"
        }
      ],
      "name": "mintBatch",
      "outputs": [],
      "stateMutability": "nonpayable",
      "type": "function"
    },
    {
      "inputs": [],
      "name": "owner",
      "outputs": [
        {
          "internalType": "address",
          "name": "",
          "type": "address"
        }
      ],
      "stateMutability": "view",
      "type": "function"
    },
    {
      "inputs": [],
      "name": "renounceOwnership",
      "outputs": [],
      "stateMutability": "nonpayable",
      "type": "function"
    },
    {
      "inputs": [
        {
          "internalType": "address",
          "name": "from",
          "type": "address"
        },
        {
          "internalType": "address",
          "name": "to",
          "type": "address"
        },
        {
          "internalType": "uint256[]",
          "name": "ids",
          "type": "uint256[]"
        },
        {
          "internalType": "uint256[]",
          "name": "amounts",
          "type": "uint256[]"
        },
        {
          "internalType": "bytes",
          "name": "data",
          "type": "bytes"
        }
      ],
      "name": "safeBatchTransferFrom",
      "outputs": [],
      "stateMutability": "nonpayable",
      "type": "function"
    },
    {
      "inputs": [
        {
          "internalType": "address",
          "name": "from",
          "type": "address"
        },
        {
          "internalType": "address",
          "name": "to",
          "type": "address"
        },
        {
          "internalType": "uint256",
          "name": "id",
          "type": "uint256"
        },
        {
          "internalType": "uint256",
          "name": "amount",
          "type": "uint256"
        },
        {
          "internalType": "bytes",
          "name": "data",
          "type": "bytes"
        }
      ],
      "name": "safeTransferFrom",
      "outputs": [],
      "stateMutability": "nonpayable",
      "type": "function"
    },
    {
      "inputs": [
        {
          "internalType": "address",
          "name": "operator",
          "type": "address"
        },
        {
          "internalType": "bool",
          "name": "approved",
          "type": "bool"
        }
      ],
      "name": "setApprovalForAll",
      "outputs": [],
      "stateMutability": "nonpayable",
      "type": "function"
    },
    {
      "inputs": [
        {
          "internalType": "bytes4",
          "name": "interfaceId",
          "type": "bytes4"
        }
      ],
      "name": "supportsInterface",
      "outputs": [
        {
          "internalType": "bool",
          "name": "",
          "type": "bool"
        }
      ],
      "stateMutability": "view",
      "type": "function"
    },
    {
      "inputs": [
        {
          "internalType": "address",
          "name": "newOwner",
          "type": "address"
        }
      ],
      "name": "transferOwnership",
      "outputs": [],
      "stateMutability": "nonpayable",
      "type": "function"
    },
    {
      "inputs": [
        {
          "internalType": "uint256",
          "name": "",
          "type": "uint256"
        }
      ],
      "name": "uri",
      "outputs": [
        {
          "internalType": "string",
          "name": "",
          "type": "string"
        }
      ],
      "stateMutability": "view",
      "type": "function"
    }
  ],
  "transactionHash": "0x5ecff7ecded4c9af1e475872427a9db0b0167b01aeb1f7be140a5a14eab7f94b",
  "args": [
    [
      1,
      2,
      3,
      4,
      5
    ],
    [
      1,
      1,
      1,
      1,
      1
    ]
  ],
  "numDeployments": 1,
  "solcInputHash": "b79ccf534764ade58be4886a641f57e9",
  "bytecode": "0x60806040523480156200001157600080fd5b50604051620041e9380380620041e98339818101604052810190620000379190620007e6565b604051806020016040528060008152506200005881620000b360201b60201c565b50620000796200006d620000c860201b60201c565b620000d060201b60201c565b620000ab6200008d620000c860201b60201c565b8383604051806020016040528060008152506200019660201b60201c565b5050620012f4565b8060029081620000c4919062000aac565b5050565b600033905090565b6000600360009054906101000a900473ffffffffffffffffffffffffffffffffffffffff16905081600360006101000a81548173ffffffffffffffffffffffffffffffffffffffff021916908373ffffffffffffffffffffffffffffffffffffffff1602179055508173ffffffffffffffffffffffffffffffffffffffff168173ffffffffffffffffffffffffffffffffffffffff167f8be0079c531659141344cd1fd0a4f28419497f9722a3daafe3b4186f6b6457e060405160405180910390a35050565b600073ffffffffffffffffffffffffffffffffffffffff168473ffffffffffffffffffffffffffffffffffffffff160362000208576040517f08c379a0000000000000000000000000000000000000000000000000000000008152600401620001ff9062000c1a565b60405180910390fd5b81518351146200024f576040517f08c379a0000000000000000000000000000000000000000000000000000000008152600401620002469062000cb2565b60405180910390fd5b600062000261620000c860201b60201c565b90506200027a81600087878787620003f660201b60201c565b60005b84518110156200033f578381815181106200029d576200029c62000cd4565b5b6020026020010151600080878481518110620002be57620002bd62000cd4565b5b6020026020010151815260200190815260200160002060008873ffffffffffffffffffffffffffffffffffffffff1673ffffffffffffffffffffffffffffffffffffffff168152602001908152602001600020600082825462000322919062000d32565b925050819055508080620003369062000d6d565b9150506200027d565b508473ffffffffffffffffffffffffffffffffffffffff16600073ffffffffffffffffffffffffffffffffffffffff168273ffffffffffffffffffffffffffffffffffffffff167f4a39dc06d4c0dbc64b70af90fd698a233a518aa5d07e595d983b8c0526c8f7fb8787604051620003b992919062000e88565b60405180910390a4620003d881600087878787620003fe60201b60201c565b620003ef816000878787876200040660201b60201c565b5050505050565b505050505050565b505050505050565b620004328473ffffffffffffffffffffffffffffffffffffffff16620005ff60201b620008cb1760201c565b15620005f7578373ffffffffffffffffffffffffffffffffffffffff1663bc197c8187878686866040518663ffffffff1660e01b81526004016200047b95949392919062000f91565b6020604051808303816000875af1925050508015620004ba57506040513d601f19601f82011682018060405250810190620004b7919062001060565b60015b6200056b57620004c96200109f565b806308c379a0036200052c5750620004e0620010c4565b80620004ed57506200052e565b806040517f08c379a0000000000000000000000000000000000000000000000000000000008152600401620005239190620011a0565b60405180910390fd5b505b6040517f08c379a000000000000000000000000000000000000000000000000000000000815260040162000562906200123a565b60405180910390fd5b63bc197c8160e01b7bffffffffffffffffffffffffffffffffffffffffffffffffffffffff1916817bffffffffffffffffffffffffffffffffffffffffffffffffffffffff191614620005f5576040517f08c379a0000000000000000000000000000000000000000000000000000000008152600401620005ec90620012d2565b60405180910390fd5b505b505050505050565b6000808273ffffffffffffffffffffffffffffffffffffffff163b119050919050565b6000604051905090565b600080fd5b600080fd5b600080fd5b6000601f19601f8301169050919050565b7f4e487b7100000000000000000000000000000000000000000000000000000000600052604160045260246000fd5b62000686826200063b565b810181811067ffffffffffffffff82111715620006a857620006a76200064c565b5b80604052505050565b6000620006bd62000622565b9050620006cb82826200067b565b919050565b600067ffffffffffffffff821115620006ee57620006ed6200064c565b5b602082029050602081019050919050565b600080fd5b6000819050919050565b620007198162000704565b81146200072557600080fd5b50565b60008151905062000739816200070e565b92915050565b6000620007566200075084620006d0565b620006b1565b905080838252602082019050602084028301858111156200077c576200077b620006ff565b5b835b81811015620007a9578062000794888262000728565b8452602084019350506020810190506200077e565b5050509392505050565b600082601f830112620007cb57620007ca62000636565b5b8151620007dd8482602086016200073f565b91505092915050565b600080604083850312156200080057620007ff6200062c565b5b600083015167ffffffffffffffff81111562000821576200082062000631565b5b6200082f85828601620007b3565b925050602083015167ffffffffffffffff81111562000853576200085262000631565b5b6200086185828601620007b3565b9150509250929050565b600081519050919050565b7f4e487b7100000000000000000000000000000000000000000000000000000000600052602260045260246000fd5b60006002820490506001821680620008be57607f821691505b602082108103620008d457620008d362000876565b5b50919050565b60008190508160005260206000209050919050565b60006020601f8301049050919050565b600082821b905092915050565b6000600883026200093e7fffffffffffffffffffffffffffffffffffffffffffffffffffffffffffffffff82620008ff565b6200094a8683620008ff565b95508019841693508086168417925050509392505050565b6000819050919050565b60006200098d62000987620009818462000704565b62000962565b62000704565b9050919050565b6000819050919050565b620009a9836200096c565b620009c1620009b88262000994565b8484546200090c565b825550505050565b600090565b620009d8620009c9565b620009e58184846200099e565b505050565b5b8181101562000a0d5762000a01600082620009ce565b600181019050620009eb565b5050565b601f82111562000a5c5762000a2681620008da565b62000a3184620008ef565b8101602085101562000a41578190505b62000a5962000a5085620008ef565b830182620009ea565b50505b505050565b600082821c905092915050565b600062000a816000198460080262000a61565b1980831691505092915050565b600062000a9c838362000a6e565b9150826002028217905092915050565b62000ab7826200086b565b67ffffffffffffffff81111562000ad35762000ad26200064c565b5b62000adf8254620008a5565b62000aec82828562000a11565b600060209050601f83116001811462000b24576000841562000b0f578287015190505b62000b1b858262000a8e565b86555062000b8b565b601f19841662000b3486620008da565b60005b8281101562000b5e5784890151825560018201915060208501945060208101905062000b37565b8683101562000b7e578489015162000b7a601f89168262000a6e565b8355505b6001600288020188555050505b505050505050565b600082825260208201905092915050565b7f455243313135353a206d696e7420746f20746865207a65726f2061646472657360008201527f7300000000000000000000000000000000000000000000000000000000000000602082015250565b600062000c0260218362000b93565b915062000c0f8262000ba4565b604082019050919050565b6000602082019050818103600083015262000c358162000bf3565b9050919050565b7f455243313135353a2069647320616e6420616d6f756e7473206c656e6774682060008201527f6d69736d61746368000000000000000000000000000000000000000000000000602082015250565b600062000c9a60288362000b93565b915062000ca78262000c3c565b604082019050919050565b6000602082019050818103600083015262000ccd8162000c8b565b9050919050565b7f4e487b7100000000000000000000000000000000000000000000000000000000600052603260045260246000fd5b7f4e487b7100000000000000000000000000000000000000000000000000000000600052601160045260246000fd5b600062000d3f8262000704565b915062000d4c8362000704565b925082820190508082111562000d675762000d6662000d03565b5b92915050565b600062000d7a8262000704565b91507fffffffffffffffffffffffffffffffffffffffffffffffffffffffffffffffff820362000daf5762000dae62000d03565b5b600182019050919050565b600081519050919050565b600082825260208201905092915050565b6000819050602082019050919050565b62000df18162000704565b82525050565b600062000e05838362000de6565b60208301905092915050565b6000602082019050919050565b600062000e2b8262000dba565b62000e37818562000dc5565b935062000e448362000dd6565b8060005b8381101562000e7b57815162000e5f888262000df7565b975062000e6c8362000e11565b92505060018101905062000e48565b5085935050505092915050565b6000604082019050818103600083015262000ea4818562000e1e565b9050818103602083015262000eba818462000e1e565b90509392505050565b600073ffffffffffffffffffffffffffffffffffffffff82169050919050565b600062000ef08262000ec3565b9050919050565b62000f028162000ee3565b82525050565b600081519050919050565b600082825260208201905092915050565b60005b8381101562000f4457808201518184015260208101905062000f27565b60008484015250505050565b600062000f5d8262000f08565b62000f69818562000f13565b935062000f7b81856020860162000f24565b62000f86816200063b565b840191505092915050565b600060a08201905062000fa8600083018862000ef7565b62000fb7602083018762000ef7565b818103604083015262000fcb818662000e1e565b9050818103606083015262000fe1818562000e1e565b9050818103608083015262000ff7818462000f50565b90509695505050505050565b60007fffffffff0000000000000000000000000000000000000000000000000000000082169050919050565b6200103a8162001003565b81146200104657600080fd5b50565b6000815190506200105a816200102f565b92915050565b6000602082840312156200107957620010786200062c565b5b6000620010898482850162001049565b91505092915050565b60008160e01c9050919050565b600060033d1115620010c15760046000803e620010be60005162001092565b90505b90565b600060443d106200115c57620010d962000622565b60043d036004823e80513d602482011167ffffffffffffffff82111715620011035750506200115c565b808201805167ffffffffffffffff8111156200112357505050506200115c565b80602083010160043d038501811115620011425750505050506200115c565b62001153826020018501866200067b565b82955050505050505b90565b60006200116c826200086b565b62001178818562000b93565b93506200118a81856020860162000f24565b62001195816200063b565b840191505092915050565b60006020820190508181036000830152620011bc81846200115f565b905092915050565b7f455243313135353a207472616e7366657220746f206e6f6e2d4552433131353560008201527f526563656976657220696d706c656d656e746572000000000000000000000000602082015250565b60006200122260348362000b93565b91506200122f82620011c4565b604082019050919050565b60006020820190508181036000830152620012558162001213565b9050919050565b7f455243313135353a204552433131353552656365697665722072656a6563746560008201527f6420746f6b656e73000000000000000000000000000000000000000000000000602082015250565b6000620012ba60288362000b93565b9150620012c7826200125c565b604082019050919050565b60006020820190508181036000830152620012ed81620012ab565b9050919050565b612ee580620013046000396000f3fe608060405234801561001057600080fd5b50600436106100ce5760003560e01c8063715018a61161008c578063a22cb46511610066578063a22cb4651461020f578063e985e9c51461022b578063f242432a1461025b578063f2fde38b14610277576100ce565b8063715018a6146101cb578063731133e9146101d55780638da5cb5b146101f1576100ce565b8062fdd58e146100d357806301ffc9a7146101035780630e89341c146101335780631f7fdffa146101635780632eb2c2d61461017f5780634e1273f41461019b575b600080fd5b6100ed60048036038101906100e89190611a88565b610293565b6040516100fa9190611ad7565b60405180910390f35b61011d60048036038101906101189190611b4a565b61035b565b60405161012a9190611b92565b60405180910390f35b61014d60048036038101906101489190611bad565b61043d565b60405161015a9190611c6a565b60405180910390f35b61017d60048036038101906101789190611e89565b6104d1565b005b61019960048036038101906101949190611f44565b6104eb565b005b6101b560048036038101906101b091906120d6565b61058c565b6040516101c2919061220c565b60405180910390f35b6101d36106a5565b005b6101ef60048036038101906101ea919061222e565b6106b9565b005b6101f96106d3565b60405161020691906122c0565b60405180910390f35b61022960048036038101906102249190612307565b6106fd565b005b61024560048036038101906102409190612347565b610713565b6040516102529190611b92565b60405180910390f35b61027560048036038101906102709190612387565b6107a7565b005b610291600480360381019061028c919061241e565b610848565b005b60008073ffffffffffffffffffffffffffffffffffffffff168373ffffffffffffffffffffffffffffffffffffffff1603610303576040517f08c379a00000000000000000000000000000000000000000000000000000000081526004016102fa906124bd565b60405180910390fd5b60008083815260200190815260200160002060008473ffffffffffffffffffffffffffffffffffffffff1673ffffffffffffffffffffffffffffffffffffffff16815260200190815260200160002054905092915050565b60007fd9b67a26000000000000000000000000000000000000000000000000000000007bffffffffffffffffffffffffffffffffffffffffffffffffffffffff1916827bffffffffffffffffffffffffffffffffffffffffffffffffffffffff1916148061042657507f0e89341c000000000000000000000000000000000000000000000000000000007bffffffffffffffffffffffffffffffffffffffffffffffffffffffff1916827bffffffffffffffffffffffffffffffffffffffffffffffffffffffff1916145b806104365750610435826108ee565b5b9050919050565b60606002805461044c9061250c565b80601f01602080910402602001604051908101604052809291908181526020018280546104789061250c565b80156104c55780601f1061049a576101008083540402835291602001916104c5565b820191906000526020600020905b8154815290600101906020018083116104a857829003601f168201915b50505050509050919050565b6104d9610958565b6104e5848484846109d6565b50505050565b6104f3610c02565b73ffffffffffffffffffffffffffffffffffffffff168573ffffffffffffffffffffffffffffffffffffffff161480610539575061053885610533610c02565b610713565b5b610578576040517f08c379a000000000000000000000000000000000000000000000000000000000815260040161056f906125af565b60405180910390fd5b6105858585858585610c0a565b5050505050565b606081518351146105d2576040517f08c379a00000000000000000000000000000000000000000000000000000000081526004016105c990612641565b60405180910390fd5b6000835167ffffffffffffffff8111156105ef576105ee611c91565b5b60405190808252806020026020018201604052801561061d5781602001602082028036833780820191505090505b50905060005b845181101561069a5761066a85828151811061064257610641612661565b5b602002602001015185838151811061065d5761065c612661565b5b6020026020010151610293565b82828151811061067d5761067c612661565b5b60200260200101818152505080610693906126bf565b9050610623565b508091505092915050565b6106ad610958565b6106b76000610f2b565b565b6106c1610958565b6106cd84848484610ff1565b50505050565b6000600360009054906101000a900473ffffffffffffffffffffffffffffffffffffffff16905090565b61070f610708610c02565b83836111a1565b5050565b6000600160008473ffffffffffffffffffffffffffffffffffffffff1673ffffffffffffffffffffffffffffffffffffffff16815260200190815260200160002060008373ffffffffffffffffffffffffffffffffffffffff1673ffffffffffffffffffffffffffffffffffffffff16815260200190815260200160002060009054906101000a900460ff16905092915050565b6107af610c02565b73ffffffffffffffffffffffffffffffffffffffff168573ffffffffffffffffffffffffffffffffffffffff1614806107f557506107f4856107ef610c02565b610713565b5b610834576040517f08c379a000000000000000000000000000000000000000000000000000000000815260040161082b906125af565b60405180910390fd5b610841858585858561130d565b5050505050565b610850610958565b600073ffffffffffffffffffffffffffffffffffffffff168173ffffffffffffffffffffffffffffffffffffffff16036108bf576040517f08c379a00000000000000000000000000000000000000000000000000000000081526004016108b690612779565b60405180910390fd5b6108c881610f2b565b50565b6000808273ffffffffffffffffffffffffffffffffffffffff163b119050919050565b60007f01ffc9a7000000000000000000000000000000000000000000000000000000007bffffffffffffffffffffffffffffffffffffffffffffffffffffffff1916827bffffffffffffffffffffffffffffffffffffffffffffffffffffffff1916149050919050565b610960610c02565b73ffffffffffffffffffffffffffffffffffffffff1661097e6106d3565b73ffffffffffffffffffffffffffffffffffffffff16146109d4576040517f08c379a00000000000000000000000000000000000000000000000000000000081526004016109cb906127e5565b60405180910390fd5b565b600073ffffffffffffffffffffffffffffffffffffffff168473ffffffffffffffffffffffffffffffffffffffff1603610a45576040517f08c379a0000000000000000000000000000000000000000000000000000000008152600401610a3c90612877565b60405180910390fd5b8151835114610a89576040517f08c379a0000000000000000000000000000000000000000000000000000000008152600401610a8090612909565b60405180910390fd5b6000610a93610c02565b9050610aa4816000878787876115a8565b60005b8451811015610b5d57838181518110610ac357610ac2612661565b5b6020026020010151600080878481518110610ae157610ae0612661565b5b6020026020010151815260200190815260200160002060008873ffffffffffffffffffffffffffffffffffffffff1673ffffffffffffffffffffffffffffffffffffffff1681526020019081526020016000206000828254610b439190612929565b925050819055508080610b55906126bf565b915050610aa7565b508473ffffffffffffffffffffffffffffffffffffffff16600073ffffffffffffffffffffffffffffffffffffffff168273ffffffffffffffffffffffffffffffffffffffff167f4a39dc06d4c0dbc64b70af90fd698a233a518aa5d07e595d983b8c0526c8f7fb8787604051610bd592919061295d565b60405180910390a4610bec816000878787876115b0565b610bfb816000878787876115b8565b5050505050565b600033905090565b8151835114610c4e576040517f08c379a0000000000000000000000000000000000000000000000000000000008152600401610c4590612909565b60405180910390fd5b600073ffffffffffffffffffffffffffffffffffffffff168473ffffffffffffffffffffffffffffffffffffffff1603610cbd576040517f08c379a0000000000000000000000000000000000000000000000000000000008152600401610cb490612a06565b60405180910390fd5b6000610cc7610c02565b9050610cd78187878787876115a8565b60005b8451811015610e88576000858281518110610cf857610cf7612661565b5b602002602001015190506000858381518110610d1757610d16612661565b5b60200260200101519050600080600084815260200190815260200160002060008b73ffffffffffffffffffffffffffffffffffffffff1673ffffffffffffffffffffffffffffffffffffffff16815260200190815260200160002054905081811015610db8576040517f08c379a0000000000000000000000000000000000000000000000000000000008152600401610daf90612a98565b60405180910390fd5b81810360008085815260200190815260200160002060008c73ffffffffffffffffffffffffffffffffffffffff1673ffffffffffffffffffffffffffffffffffffffff168152602001908152602001600020819055508160008085815260200190815260200160002060008b73ffffffffffffffffffffffffffffffffffffffff1673ffffffffffffffffffffffffffffffffffffffff1681526020019081526020016000206000828254610e6d9190612929565b9250508190555050505080610e81906126bf565b9050610cda565b508473ffffffffffffffffffffffffffffffffffffffff168673ffffffffffffffffffffffffffffffffffffffff168273ffffffffffffffffffffffffffffffffffffffff167f4a39dc06d4c0dbc64b70af90fd698a233a518aa5d07e595d983b8c0526c8f7fb8787604051610eff92919061295d565b60405180910390a4610f158187878787876115b0565b610f238187878787876115b8565b505050505050565b6000600360009054906101000a900473ffffffffffffffffffffffffffffffffffffffff16905081600360006101000a81548173ffffffffffffffffffffffffffffffffffffffff021916908373ffffffffffffffffffffffffffffffffffffffff1602179055508173ffffffffffffffffffffffffffffffffffffffff168173ffffffffffffffffffffffffffffffffffffffff167f8be0079c531659141344cd1fd0a4f28419497f9722a3daafe3b4186f6b6457e060405160405180910390a35050565b600073ffffffffffffffffffffffffffffffffffffffff168473ffffffffffffffffffffffffffffffffffffffff1603611060576040517f08c379a000000000000000000000000000000000000000000000000000000000815260040161105790612877565b60405180910390fd5b600061106a610c02565b905060006110778561178f565b905060006110848561178f565b9050611095836000898585896115a8565b8460008088815260200190815260200160002060008973ffffffffffffffffffffffffffffffffffffffff1673ffffffffffffffffffffffffffffffffffffffff16815260200190815260200160002060008282546110f49190612929565b925050819055508673ffffffffffffffffffffffffffffffffffffffff16600073ffffffffffffffffffffffffffffffffffffffff168473ffffffffffffffffffffffffffffffffffffffff167fc3d58168c5ae7397731d063d5bbf3d657854427343f4c083240f7aacaa2d0f628989604051611172929190612ab8565b60405180910390a4611189836000898585896115b0565b61119883600089898989611809565b50505050505050565b8173ffffffffffffffffffffffffffffffffffffffff168373ffffffffffffffffffffffffffffffffffffffff160361120f576040517f08c379a000000000000000000000000000000000000000000000000000000000815260040161120690612b53565b60405180910390fd5b80600160008573ffffffffffffffffffffffffffffffffffffffff1673ffffffffffffffffffffffffffffffffffffffff16815260200190815260200160002060008473ffffffffffffffffffffffffffffffffffffffff1673ffffffffffffffffffffffffffffffffffffffff16815260200190815260200160002060006101000a81548160ff0219169083151502179055508173ffffffffffffffffffffffffffffffffffffffff168373ffffffffffffffffffffffffffffffffffffffff167f17307eab39ab6107e8899845ad3d59bd9653f200f220920489ca2b5937696c31836040516113009190611b92565b60405180910390a3505050565b600073ffffffffffffffffffffffffffffffffffffffff168473ffffffffffffffffffffffffffffffffffffffff160361137c576040517f08c379a000000000000000000000000000000000000000000000000000000000815260040161137390612a06565b60405180910390fd5b6000611386610c02565b905060006113938561178f565b905060006113a08561178f565b90506113b08389898585896115a8565b600080600088815260200190815260200160002060008a73ffffffffffffffffffffffffffffffffffffffff1673ffffffffffffffffffffffffffffffffffffffff16815260200190815260200160002054905085811015611447576040517f08c379a000000000000000000000000000000000000000000000000000000000815260040161143e90612a98565b60405180910390fd5b85810360008089815260200190815260200160002060008b73ffffffffffffffffffffffffffffffffffffffff1673ffffffffffffffffffffffffffffffffffffffff168152602001908152602001600020819055508560008089815260200190815260200160002060008a73ffffffffffffffffffffffffffffffffffffffff1673ffffffffffffffffffffffffffffffffffffffff16815260200190815260200160002060008282546114fc9190612929565b925050819055508773ffffffffffffffffffffffffffffffffffffffff168973ffffffffffffffffffffffffffffffffffffffff168573ffffffffffffffffffffffffffffffffffffffff167fc3d58168c5ae7397731d063d5bbf3d657854427343f4c083240f7aacaa2d0f628a8a604051611579929190612ab8565b60405180910390a461158f848a8a86868a6115b0565b61159d848a8a8a8a8a611809565b505050505050505050565b505050505050565b505050505050565b6115d78473ffffffffffffffffffffffffffffffffffffffff166108cb565b15611787578373ffffffffffffffffffffffffffffffffffffffff1663bc197c8187878686866040518663ffffffff1660e01b815260040161161d959493929190612bc8565b6020604051808303816000875af192505050801561165957506040513d601f19601f820116820180604052508101906116569190612c45565b60015b6116fe57611665612c7f565b806308c379a0036116c15750611679612ca1565b8061168457506116c3565b806040517f08c379a00000000000000000000000000000000000000000000000000000000081526004016116b89190611c6a565b60405180910390fd5b505b6040517f08c379a00000000000000000000000000000000000000000000000000000000081526004016116f590612da3565b60405180910390fd5b63bc197c8160e01b7bffffffffffffffffffffffffffffffffffffffffffffffffffffffff1916817bffffffffffffffffffffffffffffffffffffffffffffffffffffffff191614611785576040517f08c379a000000000000000000000000000000000000000000000000000000000815260040161177c90612e35565b60405180910390fd5b505b505050505050565b60606000600167ffffffffffffffff8111156117ae576117ad611c91565b5b6040519080825280602002602001820160405280156117dc5781602001602082028036833780820191505090505b50905082816000815181106117f4576117f3612661565b5b60200260200101818152505080915050919050565b6118288473ffffffffffffffffffffffffffffffffffffffff166108cb565b156119d8578373ffffffffffffffffffffffffffffffffffffffff1663f23a6e6187878686866040518663ffffffff1660e01b815260040161186e959493929190612e55565b6020604051808303816000875af19250505080156118aa57506040513d601f19601f820116820180604052508101906118a79190612c45565b60015b61194f576118b6612c7f565b806308c379a00361191257506118ca612ca1565b806118d55750611914565b806040517f08c379a00000000000000000000000000000000000000000000000000000000081526004016119099190611c6a565b60405180910390fd5b505b6040517f08c379a000000000000000000000000000000000000000000000000000000000815260040161194690612da3565b60405180910390fd5b63f23a6e6160e01b7bffffffffffffffffffffffffffffffffffffffffffffffffffffffff1916817bffffffffffffffffffffffffffffffffffffffffffffffffffffffff1916146119d6576040517f08c379a00000000000000000000000000000000000000000000000000000000081526004016119cd90612e35565b60405180910390fd5b505b505050505050565b6000604051905090565b600080fd5b600080fd5b600073ffffffffffffffffffffffffffffffffffffffff82169050919050565b6000611a1f826119f4565b9050919050565b611a2f81611a14565b8114611a3a57600080fd5b50565b600081359050611a4c81611a26565b92915050565b6000819050919050565b611a6581611a52565b8114611a7057600080fd5b50565b600081359050611a8281611a5c565b92915050565b60008060408385031215611a9f57611a9e6119ea565b5b6000611aad85828601611a3d565b9250506020611abe85828601611a73565b9150509250929050565b611ad181611a52565b82525050565b6000602082019050611aec6000830184611ac8565b92915050565b60007fffffffff0000000000000000000000000000000000000000000000000000000082169050919050565b611b2781611af2565b8114611b3257600080fd5b50565b600081359050611b4481611b1e565b92915050565b600060208284031215611b6057611b5f6119ea565b5b6000611b6e84828501611b35565b91505092915050565b60008115159050919050565b611b8c81611b77565b82525050565b6000602082019050611ba76000830184611b83565b92915050565b600060208284031215611bc357611bc26119ea565b5b6000611bd184828501611a73565b91505092915050565b600081519050919050565b600082825260208201905092915050565b60005b83811015611c14578082015181840152602081019050611bf9565b60008484015250505050565b6000601f19601f8301169050919050565b6000611c3c82611bda565b611c468185611be5565b9350611c56818560208601611bf6565b611c5f81611c20565b840191505092915050565b60006020820190508181036000830152611c848184611c31565b905092915050565b600080fd5b7f4e487b7100000000000000000000000000000000000000000000000000000000600052604160045260246000fd5b611cc982611c20565b810181811067ffffffffffffffff82111715611ce857611ce7611c91565b5b80604052505050565b6000611cfb6119e0565b9050611d078282611cc0565b919050565b600067ffffffffffffffff821115611d2757611d26611c91565b5b602082029050602081019050919050565b600080fd5b6000611d50611d4b84611d0c565b611cf1565b90508083825260208201905060208402830185811115611d7357611d72611d38565b5b835b81811015611d9c5780611d888882611a73565b845260208401935050602081019050611d75565b5050509392505050565b600082601f830112611dbb57611dba611c8c565b5b8135611dcb848260208601611d3d565b91505092915050565b600080fd5b600067ffffffffffffffff821115611df457611df3611c91565b5b611dfd82611c20565b9050602081019050919050565b82818337600083830152505050565b6000611e2c611e2784611dd9565b611cf1565b905082815260208101848484011115611e4857611e47611dd4565b5b611e53848285611e0a565b509392505050565b600082601f830112611e7057611e6f611c8c565b5b8135611e80848260208601611e19565b91505092915050565b60008060008060808587031215611ea357611ea26119ea565b5b6000611eb187828801611a3d565b945050602085013567ffffffffffffffff811115611ed257611ed16119ef565b5b611ede87828801611da6565b935050604085013567ffffffffffffffff811115611eff57611efe6119ef565b5b611f0b87828801611da6565b925050606085013567ffffffffffffffff811115611f2c57611f2b6119ef565b5b611f3887828801611e5b565b91505092959194509250565b600080600080600060a08688031215611f6057611f5f6119ea565b5b6000611f6e88828901611a3d565b9550506020611f7f88828901611a3d565b945050604086013567ffffffffffffffff811115611fa057611f9f6119ef565b5b611fac88828901611da6565b935050606086013567ffffffffffffffff811115611fcd57611fcc6119ef565b5b611fd988828901611da6565b925050608086013567ffffffffffffffff811115611ffa57611ff96119ef565b5b61200688828901611e5b565b9150509295509295909350565b600067ffffffffffffffff82111561202e5761202d611c91565b5b602082029050602081019050919050565b600061205261204d84612013565b611cf1565b9050808382526020820190506020840283018581111561207557612074611d38565b5b835b8181101561209e578061208a8882611a3d565b845260208401935050602081019050612077565b5050509392505050565b600082601f8301126120bd576120bc611c8c565b5b81356120cd84826020860161203f565b91505092915050565b600080604083850312156120ed576120ec6119ea565b5b600083013567ffffffffffffffff81111561210b5761210a6119ef565b5b612117858286016120a8565b925050602083013567ffffffffffffffff811115612138576121376119ef565b5b61214485828601611da6565b9150509250929050565b600081519050919050565b600082825260208201905092915050565b6000819050602082019050919050565b61218381611a52565b82525050565b6000612195838361217a565b60208301905092915050565b6000602082019050919050565b60006121b98261214e565b6121c38185612159565b93506121ce8361216a565b8060005b838110156121ff5781516121e68882612189565b97506121f1836121a1565b9250506001810190506121d2565b5085935050505092915050565b6000602082019050818103600083015261222681846121ae565b905092915050565b60008060008060808587031215612248576122476119ea565b5b600061225687828801611a3d565b945050602061226787828801611a73565b935050604061227887828801611a73565b925050606085013567ffffffffffffffff811115612299576122986119ef565b5b6122a587828801611e5b565b91505092959194509250565b6122ba81611a14565b82525050565b60006020820190506122d560008301846122b1565b92915050565b6122e481611b77565b81146122ef57600080fd5b50565b600081359050612301816122db565b92915050565b6000806040838503121561231e5761231d6119ea565b5b600061232c85828601611a3d565b925050602061233d858286016122f2565b9150509250929050565b6000806040838503121561235e5761235d6119ea565b5b600061236c85828601611a3d565b925050602061237d85828601611a3d565b9150509250929050565b600080600080600060a086880312156123a3576123a26119ea565b5b60006123b188828901611a3d565b95505060206123c288828901611a3d565b94505060406123d388828901611a73565b93505060606123e488828901611a73565b925050608086013567ffffffffffffffff811115612405576124046119ef565b5b61241188828901611e5b565b9150509295509295909350565b600060208284031215612434576124336119ea565b5b600061244284828501611a3d565b91505092915050565b7f455243313135353a2061646472657373207a65726f206973206e6f742061207660008201527f616c6964206f776e657200000000000000000000000000000000000000000000602082015250565b60006124a7602a83611be5565b91506124b28261244b565b604082019050919050565b600060208201905081810360008301526124d68161249a565b9050919050565b7f4e487b7100000000000000000000000000000000000000000000000000000000600052602260045260246000fd5b6000600282049050600182168061252457607f821691505b602082108103612537576125366124dd565b5b50919050565b7f455243313135353a2063616c6c6572206973206e6f7420746f6b656e206f776e60008201527f6572206f7220617070726f766564000000000000000000000000000000000000602082015250565b6000612599602e83611be5565b91506125a48261253d565b604082019050919050565b600060208201905081810360008301526125c88161258c565b9050919050565b7f455243313135353a206163636f756e747320616e6420696473206c656e67746860008201527f206d69736d617463680000000000000000000000000000000000000000000000602082015250565b600061262b602983611be5565b9150612636826125cf565b604082019050919050565b6000602082019050818103600083015261265a8161261e565b9050919050565b7f4e487b7100000000000000000000000000000000000000000000000000000000600052603260045260246000fd5b7f4e487b7100000000000000000000000000000000000000000000000000000000600052601160045260246000fd5b60006126ca82611a52565b91507fffffffffffffffffffffffffffffffffffffffffffffffffffffffffffffffff82036126fc576126fb612690565b5b600182019050919050565b7f4f776e61626c653a206e6577206f776e657220697320746865207a65726f206160008201527f6464726573730000000000000000000000000000000000000000000000000000602082015250565b6000612763602683611be5565b915061276e82612707565b604082019050919050565b6000602082019050818103600083015261279281612756565b9050919050565b7f4f776e61626c653a2063616c6c6572206973206e6f7420746865206f776e6572600082015250565b60006127cf602083611be5565b91506127da82612799565b602082019050919050565b600060208201905081810360008301526127fe816127c2565b9050919050565b7f455243313135353a206d696e7420746f20746865207a65726f2061646472657360008201527f7300000000000000000000000000000000000000000000000000000000000000602082015250565b6000612861602183611be5565b915061286c82612805565b604082019050919050565b6000602082019050818103600083015261289081612854565b9050919050565b7f455243313135353a2069647320616e6420616d6f756e7473206c656e6774682060008201527f6d69736d61746368000000000000000000000000000000000000000000000000602082015250565b60006128f3602883611be5565b91506128fe82612897565b604082019050919050565b60006020820190508181036000830152612922816128e6565b9050919050565b600061293482611a52565b915061293f83611a52565b925082820190508082111561295757612956612690565b5b92915050565b6000604082019050818103600083015261297781856121ae565b9050818103602083015261298b81846121ae565b90509392505050565b7f455243313135353a207472616e7366657220746f20746865207a65726f20616460008201527f6472657373000000000000000000000000000000000000000000000000000000602082015250565b60006129f0602583611be5565b91506129fb82612994565b604082019050919050565b60006020820190508181036000830152612a1f816129e3565b9050919050565b7f455243313135353a20696e73756666696369656e742062616c616e636520666f60008201527f72207472616e7366657200000000000000000000000000000000000000000000602082015250565b6000612a82602a83611be5565b9150612a8d82612a26565b604082019050919050565b60006020820190508181036000830152612ab181612a75565b9050919050565b6000604082019050612acd6000830185611ac8565b612ada6020830184611ac8565b9392505050565b7f455243313135353a2073657474696e6720617070726f76616c2073746174757360008201527f20666f722073656c660000000000000000000000000000000000000000000000602082015250565b6000612b3d602983611be5565b9150612b4882612ae1565b604082019050919050565b60006020820190508181036000830152612b6c81612b30565b9050919050565b600081519050919050565b600082825260208201905092915050565b6000612b9a82612b73565b612ba48185612b7e565b9350612bb4818560208601611bf6565b612bbd81611c20565b840191505092915050565b600060a082019050612bdd60008301886122b1565b612bea60208301876122b1565b8181036040830152612bfc81866121ae565b90508181036060830152612c1081856121ae565b90508181036080830152612c248184612b8f565b90509695505050505050565b600081519050612c3f81611b1e565b92915050565b600060208284031215612c5b57612c5a6119ea565b5b6000612c6984828501612c30565b91505092915050565b60008160e01c9050919050565b600060033d1115612c9e5760046000803e612c9b600051612c72565b90505b90565b600060443d10612d2e57612cb36119e0565b60043d036004823e80513d602482011167ffffffffffffffff82111715612cdb575050612d2e565b808201805167ffffffffffffffff811115612cf95750505050612d2e565b80602083010160043d038501811115612d16575050505050612d2e565b612d2582602001850186611cc0565b82955050505050505b90565b7f455243313135353a207472616e7366657220746f206e6f6e2d4552433131353560008201527f526563656976657220696d706c656d656e746572000000000000000000000000602082015250565b6000612d8d603483611be5565b9150612d9882612d31565b604082019050919050565b60006020820190508181036000830152612dbc81612d80565b9050919050565b7f455243313135353a204552433131353552656365697665722072656a6563746560008201527f6420746f6b656e73000000000000000000000000000000000000000000000000602082015250565b6000612e1f602883611be5565b9150612e2a82612dc3565b604082019050919050565b60006020820190508181036000830152612e4e81612e12565b9050919050565b600060a082019050612e6a60008301886122b1565b612e7760208301876122b1565b612e846040830186611ac8565b612e916060830185611ac8565b8181036080830152612ea38184612b8f565b9050969550505050505056fea2646970667358221220120c0ab7a1e8de541c7cfe33b107530905d3ecb351b6aeca89cb917b1e20042564736f6c63430008120033",
  "devdoc": {
    "events": {
      "ApprovalForAll(address,address,bool)": {
        "details": "Emitted when `account` grants or revokes permission to `operator` to transfer their tokens, according to `approved`."
      },
      "TransferBatch(address,address,address,uint256[],uint256[])": {
        "details": "Equivalent to multiple {TransferSingle} events, where `operator`, `from` and `to` are the same for all transfers."
      },
      "TransferSingle(address,address,address,uint256,uint256)": {
        "details": "Emitted when `value` tokens of token type `id` are transferred from `from` to `to` by `operator`."
      },
      "URI(string,uint256)": {
        "details": "Emitted when the URI for token type `id` changes to `value`, if it is a non-programmatic URI. If an {URI} event was emitted for `id`, the standard https://eips.ethereum.org/EIPS/eip-1155#metadata-extensions[guarantees] that `value` will equal the value returned by {IERC1155MetadataURI-uri}."
      }
    },
    "kind": "dev",
    "methods": {
      "balanceOf(address,uint256)": {
        "details": "See {IERC1155-balanceOf}. Requirements: - `account` cannot be the zero address."
      },
      "balanceOfBatch(address[],uint256[])": {
        "details": "See {IERC1155-balanceOfBatch}. Requirements: - `accounts` and `ids` must have the same length."
      },
      "isApprovedForAll(address,address)": {
        "details": "See {IERC1155-isApprovedForAll}."
      },
      "owner()": {
        "details": "Returns the address of the current owner."
      },
      "renounceOwnership()": {
        "details": "Leaves the contract without owner. It will not be possible to call `onlyOwner` functions anymore. Can only be called by the current owner. NOTE: Renouncing ownership will leave the contract without an owner, thereby removing any functionality that is only available to the owner."
      },
      "safeBatchTransferFrom(address,address,uint256[],uint256[],bytes)": {
        "details": "See {IERC1155-safeBatchTransferFrom}."
      },
      "safeTransferFrom(address,address,uint256,uint256,bytes)": {
        "details": "See {IERC1155-safeTransferFrom}."
      },
      "setApprovalForAll(address,bool)": {
        "details": "See {IERC1155-setApprovalForAll}."
      },
      "supportsInterface(bytes4)": {
        "details": "See {IERC165-supportsInterface}."
      },
      "transferOwnership(address)": {
        "details": "Transfers ownership of the contract to a new account (`newOwner`). Can only be called by the current owner."
      },
      "uri(uint256)": {
        "details": "See {IERC1155MetadataURI-uri}. This implementation returns the same URI for *all* token types. It relies on the token type ID substitution mechanism https://eips.ethereum.org/EIPS/eip-1155#metadata[defined in the EIP]. Clients calling this function must replace the `\\{id\\}` substring with the actual token type ID."
      }
    },
    "version": 1
  },
  "userdoc": {
    "kind": "user",
    "methods": {},
    "version": 1
  },
  "storageLayout": {
    "storage": [
      {
        "astId": 138,
        "contract": "contracts/MockERC1155Collection.sol:MockERC1155Collection",
        "label": "_balances",
        "offset": 0,
        "slot": "0",
        "type": "t_mapping(t_uint256,t_mapping(t_address,t_uint256))"
      },
      {
        "astId": 144,
        "contract": "contracts/MockERC1155Collection.sol:MockERC1155Collection",
        "label": "_operatorApprovals",
        "offset": 0,
        "slot": "1",
        "type": "t_mapping(t_address,t_mapping(t_address,t_bool))"
      },
      {
        "astId": 146,
        "contract": "contracts/MockERC1155Collection.sol:MockERC1155Collection",
        "label": "_uri",
        "offset": 0,
        "slot": "2",
        "type": "t_string_storage"
      },
      {
        "astId": 7,
        "contract": "contracts/MockERC1155Collection.sol:MockERC1155Collection",
        "label": "_owner",
        "offset": 0,
        "slot": "3",
        "type": "t_address"
      }
    ],
    "types": {
      "t_address": {
        "encoding": "inplace",
        "label": "address",
        "numberOfBytes": "20"
      },
      "t_bool": {
        "encoding": "inplace",
        "label": "bool",
        "numberOfBytes": "1"
      },
      "t_mapping(t_address,t_bool)": {
        "encoding": "mapping",
        "key": "t_address",
        "label": "mapping(address => bool)",
        "numberOfBytes": "32",
        "value": "t_bool"
      },
      "t_mapping(t_address,t_mapping(t_address,t_bool))": {
        "encoding": "mapping",
        "key": "t_address",
        "label": "mapping(address => mapping(address => bool))",
        "numberOfBytes": "32",
        "value": "t_mapping(t_address,t_bool)"
      },
      "t_mapping(t_address,t_uint256)": {
        "encoding": "mapping",
        "key": "t_address",
        "label": "mapping(address => uint256)",
        "numberOfBytes": "32",
        "value": "t_uint256"
      },
      "t_mapping(t_uint256,t_mapping(t_address,t_uint256))": {
        "encoding": "mapping",
        "key": "t_uint256",
        "label": "mapping(uint256 => mapping(address => uint256))",
        "numberOfBytes": "32",
        "value": "t_mapping(t_address,t_uint256)"
      },
      "t_string_storage": {
        "encoding": "bytes",
        "label": "string",
        "numberOfBytes": "32"
      },
      "t_uint256": {
        "encoding": "inplace",
        "label": "uint256",
        "numberOfBytes": "32"
      }
    }
  }
}