{
  "address": "0xe7f1725E7734CE288F8367e1Bb143E90bb3F0512",
  "abi": [
    {
      "inputs": [
        {
          "internalType": "uint256[]",
          "name": "ids",
          "type": "uint256[]"
        }
      ],
      "stateMutability": "nonpayable",
      "type": "constructor"
    },
    {
      "anonymous": false,
      "inputs": [
        {
          "indexed": true,
          "internalType": "address",
          "name": "owner",
          "type": "address"
        },
        {
          "indexed": true,
          "internalType": "address",
          "name": "approved",
          "type": "address"
        },
        {
          "indexed": true,
          "internalType": "uint256",
          "name": "tokenId",
          "type": "uint256"
        }
      ],
      "name": "Approval",
      "type": "event"
    },
    {
      "anonymous": false,
      "inputs": [
        {
          "indexed": true,
          "internalType": "address",
          "name": "owner",
          "type": "address"
        },
        {
          "indexed": true,
          "internalType": "address",
          "name": "operator",
          "type": "address"
        },
        {
          "indexed": false,
          "internalType": "bool",
          "name": "approved",
          "type": "bool"
        }
      ],
      "name": "ApprovalForAll",
      "type": "event"
    },
    {
      "anonymous": false,
      "inputs": [
        {
          "indexed": true,
          "internalType": "address",
          "name": "previousOwner",
          "type": "address"
        },
        {
          "indexed": true,
          "internalType": "address",
          "name": "newOwner",
          "type": "address"
        }
      ],
      "name": "OwnershipTransferred",
      "type": "event"
    },
    {
      "anonymous": false,
      "inputs": [
        {
          "indexed": true,
          "internalType": "address",
          "name": "from",
          "type": "address"
        },
        {
          "indexed": true,
          "internalType": "address",
          "name": "to",
          "type": "address"
        },
        {
          "indexed": true,
          "internalType": "uint256",
          "name": "tokenId",
          "type": "uint256"
        }
      ],
      "name": "Transfer",
      "type": "event"
    },
    {
      "inputs": [
        {
          "internalType": "address",
          "name": "to",
          "type": "address"
        },
        {
          "internalType": "uint256",
          "name": "tokenId",
          "type": "uint256"
        }
      ],
      "name": "approve",
      "outputs": [],
      "stateMutability": "nonpayable",
      "type": "function"
    },
    {
      "inputs": [
        {
          "internalType": "address",
          "name": "owner",
          "type": "address"
        }
      ],
      "name": "balanceOf",
      "outputs": [
        {
          "internalType": "uint256",
          "name": "",
          "type": "uint256"
        }
      ],
      "stateMutability": "view",
      "type": "function"
    },
    {
      "inputs": [
        {
          "internalType": "uint256",
          "name": "tokenId",
          "type": "uint256"
        }
      ],
      "name": "getApproved",
      "outputs": [
        {
          "internalType": "address",
          "name": "",
          "type": "address"
        }
      ],
      "stateMutability": "view",
      "type": "function"
    },
    {
      "inputs": [
        {
          "internalType": "address",
          "name": "owner",
          "type": "address"
        },
        {
          "internalType": "address",
          "name": "operator",
          "type": "address"
        }
      ],
      "name": "isApprovedForAll",
      "outputs": [
        {
          "internalType": "bool",
          "name": "",
          "type": "bool"
        }
      ],
      "stateMutability": "view",
      "type": "function"
    },
    {
      "inputs": [
        {
          "internalType": "address",
          "name": "account",
          "type": "address"
        },
        {
          "internalType": "uint256",
          "name": "id",
          "type": "uint256"
        },
        {
          "internalType": "bytes",
          "name": "data",
          "type": "bytes"
        }
      ],
      "name": "mint",
      "outputs": [],
      "stateMutability": "nonpayable",
      "type": "function"
    },
    {
      "inputs": [],
      "name": "name",
      "outputs": [
        {
          "internalType": "string",
          "name": "",
          "type": "string"
        }
      ],
      "stateMutability": "view",
      "type": "function"
    },
    {
      "inputs": [],
      "name": "owner",
      "outputs": [
        {
          "internalType": "address",
          "name": "",
          "type": "address"
        }
      ],
      "stateMutability": "view",
      "type": "function"
    },
    {
      "inputs": [
        {
          "internalType": "uint256",
          "name": "tokenId",
          "type": "uint256"
        }
      ],
      "name": "ownerOf",
      "outputs": [
        {
          "internalType": "address",
          "name": "",
          "type": "address"
        }
      ],
      "stateMutability": "view",
      "type": "function"
    },
    {
      "inputs": [],
      "name": "renounceOwnership",
      "outputs": [],
      "stateMutability": "nonpayable",
      "type": "function"
    },
    {
      "inputs": [
        {
          "internalType": "address",
          "name": "from",
          "type": "address"
        },
        {
          "internalType": "address",
          "name": "to",
          "type": "address"
        },
        {
          "internalType": "uint256",
          "name": "tokenId",
          "type": "uint256"
        }
      ],
      "name": "safeTransferFrom",
      "outputs": [],
      "stateMutability": "nonpayable",
      "type": "function"
    },
    {
      "inputs": [
        {
          "internalType": "address",
          "name": "from",
          "type": "address"
        },
        {
          "internalType": "address",
          "name": "to",
          "type": "address"
        },
        {
          "internalType": "uint256",
          "name": "tokenId",
          "type": "uint256"
        },
        {
          "internalType": "bytes",
          "name": "data",
          "type": "bytes"
        }
      ],
      "name": "safeTransferFrom",
      "outputs": [],
      "stateMutability": "nonpayable",
      "type": "function"
    },
    {
      "inputs": [
        {
          "internalType": "address",
          "name": "operator",
          "type": "address"
        },
        {
          "internalType": "bool",
          "name": "approved",
          "type": "bool"
        }
      ],
      "name": "setApprovalForAll",
      "outputs": [],
      "stateMutability": "nonpayable",
      "type": "function"
    },
    {
      "inputs": [
        {
          "internalType": "bytes4",
          "name": "interfaceId",
          "type": "bytes4"
        }
      ],
      "name": "supportsInterface",
      "outputs": [
        {
          "internalType": "bool",
          "name": "",
          "type": "bool"
        }
      ],
      "stateMutability": "view",
      "type": "function"
    },
    {
      "inputs": [],
      "name": "symbol",
      "outputs": [
        {
          "internalType": "string",
          "name": "",
          "type": "string"
        }
      ],
      "stateMutability": "view",
      "type": "function"
    },
    {
      "inputs": [
        {
          "internalType": "uint256",
          "name": "tokenId",
          "type": "uint256"
        }
      ],
      "name": "tokenURI",
      "outputs": [
        {
          "internalType": "string",
          "name": "",
          "type": "string"
        }
      ],
      "stateMutability": "view",
      "type": "function"
    },
    {
      "inputs": [
        {
          "internalType": "address",
          "name": "from",
          "type": "address"
        },
        {
          "internalType": "address",
          "name": "to",
          "type": "address"
        },
        {
          "internalType": "uint256",
          "name": "tokenId",
          "type": "uint256"
        }
      ],
      "name": "transferFrom",
      "outputs": [],
      "stateMutability": "nonpayable",
      "type": "function"
    },
    {
      "inputs": [
        {
          "internalType": "address",
          "name": "newOwner",
          "type": "address"
        }
      ],
      "name": "transferOwnership",
      "outputs": [],
      "stateMutability": "nonpayable",
      "type": "function"
    }
  ],
  "transactionHash": "0x8333d270c1cac2052a00e6743254fe1b5b98ef97180015ba2b3de49ea9cd16c8",
  "args": [
    [
      1,
      2,
      3,
      4,
      5
    ]
  ],
  "numDeployments": 1,
  "solcInputHash": "653f78db159553f08ece7ccf8b4db500",
  "bytecode": "0x60806040523480156200001157600080fd5b50604051620039353803806200393583398181016040528101906200003791906200091c565b6040518060400160405280600781526020017f4d6f636b373231000000000000000000000000000000000000000000000000008152506040518060400160405280600481526020017f4d373231000000000000000000000000000000000000000000000000000000008152508160009081620000b4919062000bae565b508060019081620000c6919062000bae565b505050620000e9620000dd6200015260201b60201c565b6200015a60201b60201c565b60005b81518110156200014a57620001346200010a6200015260201b60201c565b83838151811062000120576200011f62000c95565b5b60200260200101516200022060201b60201c565b8080620001419062000cf3565b915050620000ec565b50506200108f565b600033905090565b6000600660009054906101000a900473ffffffffffffffffffffffffffffffffffffffff16905081600660006101000a81548173ffffffffffffffffffffffffffffffffffffffff021916908373ffffffffffffffffffffffffffffffffffffffff1602179055508173ffffffffffffffffffffffffffffffffffffffff168173ffffffffffffffffffffffffffffffffffffffff167f8be0079c531659141344cd1fd0a4f28419497f9722a3daafe3b4186f6b6457e060405160405180910390a35050565b620002428282604051806020016040528060008152506200024660201b60201c565b5050565b620002588383620002b460201b60201c565b6200026d6000848484620004fa60201b60201c565b620002af576040517f08c379a0000000000000000000000000000000000000000000000000000000008152600401620002a69062000dc7565b60405180910390fd5b505050565b600073ffffffffffffffffffffffffffffffffffffffff168273ffffffffffffffffffffffffffffffffffffffff160362000326576040517f08c379a00000000000000000000000000000000000000000000000000000000081526004016200031d9062000e39565b60405180910390fd5b6200033781620006a360201b60201c565b156200037a576040517f08c379a0000000000000000000000000000000000000000000000000000000008152600401620003719062000eab565b60405180910390fd5b62000390600083836001620006ec60201b60201c565b620003a181620006a360201b60201c565b15620003e4576040517f08c379a0000000000000000000000000000000000000000000000000000000008152600401620003db9062000eab565b60405180910390fd5b6001600360008473ffffffffffffffffffffffffffffffffffffffff1673ffffffffffffffffffffffffffffffffffffffff16815260200190815260200160002060008282540192505081905550816002600083815260200190815260200160002060006101000a81548173ffffffffffffffffffffffffffffffffffffffff021916908373ffffffffffffffffffffffffffffffffffffffff160217905550808273ffffffffffffffffffffffffffffffffffffffff16600073ffffffffffffffffffffffffffffffffffffffff167fddf252ad1be2c89b69c2b068fc378daa952ba7f163c4a11628f55a4df523b3ef60405160405180910390a4620004f6600083836001620006f260201b60201c565b5050565b6000620005288473ffffffffffffffffffffffffffffffffffffffff16620006f860201b62000ac51760201c565b1562000696578373ffffffffffffffffffffffffffffffffffffffff1663150b7a026200055a6200015260201b60201c565b8786866040518563ffffffff1660e01b81526004016200057e949392919062000fac565b6020604051808303816000875af1925050508015620005bd57506040513d601f19601f82011682018060405250810190620005ba91906200105d565b60015b62000645573d8060008114620005f0576040519150601f19603f3d011682016040523d82523d6000602084013e620005f5565b606091505b5060008151036200063d576040517f08c379a0000000000000000000000000000000000000000000000000000000008152600401620006349062000dc7565b60405180910390fd5b805181602001fd5b63150b7a0260e01b7bffffffffffffffffffffffffffffffffffffffffffffffffffffffff1916817bffffffffffffffffffffffffffffffffffffffffffffffffffffffff1916149150506200069b565b600190505b949350505050565b60008073ffffffffffffffffffffffffffffffffffffffff16620006cd836200071b60201b60201c565b73ffffffffffffffffffffffffffffffffffffffff1614159050919050565b50505050565b50505050565b6000808273ffffffffffffffffffffffffffffffffffffffff163b119050919050565b60006002600083815260200190815260200160002060009054906101000a900473ffffffffffffffffffffffffffffffffffffffff169050919050565b6000604051905090565b600080fd5b600080fd5b600080fd5b6000601f19601f8301169050919050565b7f4e487b7100000000000000000000000000000000000000000000000000000000600052604160045260246000fd5b620007bc8262000771565b810181811067ffffffffffffffff82111715620007de57620007dd62000782565b5b80604052505050565b6000620007f362000758565b9050620008018282620007b1565b919050565b600067ffffffffffffffff82111562000824576200082362000782565b5b602082029050602081019050919050565b600080fd5b6000819050919050565b6200084f816200083a565b81146200085b57600080fd5b50565b6000815190506200086f8162000844565b92915050565b60006200088c620008868462000806565b620007e7565b90508083825260208201905060208402830185811115620008b257620008b162000835565b5b835b81811015620008df5780620008ca88826200085e565b845260208401935050602081019050620008b4565b5050509392505050565b600082601f8301126200090157620009006200076c565b5b81516200091384826020860162000875565b91505092915050565b60006020828403121562000935576200093462000762565b5b600082015167ffffffffffffffff81111562000956576200095562000767565b5b6200096484828501620008e9565b91505092915050565b600081519050919050565b7f4e487b7100000000000000000000000000000000000000000000000000000000600052602260045260246000fd5b60006002820490506001821680620009c057607f821691505b602082108103620009d657620009d562000978565b5b50919050565b60008190508160005260206000209050919050565b60006020601f8301049050919050565b600082821b905092915050565b60006008830262000a407fffffffffffffffffffffffffffffffffffffffffffffffffffffffffffffffff8262000a01565b62000a4c868362000a01565b95508019841693508086168417925050509392505050565b6000819050919050565b600062000a8f62000a8962000a83846200083a565b62000a64565b6200083a565b9050919050565b6000819050919050565b62000aab8362000a6e565b62000ac362000aba8262000a96565b84845462000a0e565b825550505050565b600090565b62000ada62000acb565b62000ae781848462000aa0565b505050565b5b8181101562000b0f5762000b0360008262000ad0565b60018101905062000aed565b5050565b601f82111562000b5e5762000b2881620009dc565b62000b3384620009f1565b8101602085101562000b43578190505b62000b5b62000b5285620009f1565b83018262000aec565b50505b505050565b600082821c905092915050565b600062000b836000198460080262000b63565b1980831691505092915050565b600062000b9e838362000b70565b9150826002028217905092915050565b62000bb9826200096d565b67ffffffffffffffff81111562000bd55762000bd462000782565b5b62000be18254620009a7565b62000bee82828562000b13565b600060209050601f83116001811462000c26576000841562000c11578287015190505b62000c1d858262000b90565b86555062000c8d565b601f19841662000c3686620009dc565b60005b8281101562000c605784890151825560018201915060208501945060208101905062000c39565b8683101562000c80578489015162000c7c601f89168262000b70565b8355505b6001600288020188555050505b505050505050565b7f4e487b7100000000000000000000000000000000000000000000000000000000600052603260045260246000fd5b7f4e487b7100000000000000000000000000000000000000000000000000000000600052601160045260246000fd5b600062000d00826200083a565b91507fffffffffffffffffffffffffffffffffffffffffffffffffffffffffffffffff820362000d355762000d3462000cc4565b5b600182019050919050565b600082825260208201905092915050565b7f4552433732313a207472616e7366657220746f206e6f6e20455243373231526560008201527f63656976657220696d706c656d656e7465720000000000000000000000000000602082015250565b600062000daf60328362000d40565b915062000dbc8262000d51565b604082019050919050565b6000602082019050818103600083015262000de28162000da0565b9050919050565b7f4552433732313a206d696e7420746f20746865207a65726f2061646472657373600082015250565b600062000e2160208362000d40565b915062000e2e8262000de9565b602082019050919050565b6000602082019050818103600083015262000e548162000e12565b9050919050565b7f4552433732313a20746f6b656e20616c7265616479206d696e74656400000000600082015250565b600062000e93601c8362000d40565b915062000ea08262000e5b565b602082019050919050565b6000602082019050818103600083015262000ec68162000e84565b9050919050565b600073ffffffffffffffffffffffffffffffffffffffff82169050919050565b600062000efa8262000ecd565b9050919050565b62000f0c8162000eed565b82525050565b62000f1d816200083a565b82525050565b600081519050919050565b600082825260208201905092915050565b60005b8381101562000f5f57808201518184015260208101905062000f42565b60008484015250505050565b600062000f788262000f23565b62000f84818562000f2e565b935062000f9681856020860162000f3f565b62000fa18162000771565b840191505092915050565b600060808201905062000fc3600083018762000f01565b62000fd2602083018662000f01565b62000fe1604083018562000f12565b818103606083015262000ff5818462000f6b565b905095945050505050565b60007fffffffff0000000000000000000000000000000000000000000000000000000082169050919050565b620010378162001000565b81146200104357600080fd5b50565b60008151905062001057816200102c565b92915050565b60006020828403121562001076576200107562000762565b5b6000620010868482850162001046565b91505092915050565b612896806200109f6000396000f3fe608060405234801561001057600080fd5b506004361061010b5760003560e01c8063715018a6116100a2578063a22cb46511610071578063a22cb465146102a4578063b88d4fde146102c0578063c87b56dd146102dc578063e985e9c51461030c578063f2fde38b1461033c5761010b565b8063715018a6146102425780638da5cb5b1461024c57806394d008ef1461026a57806395d89b41146102865761010b565b806323b872dd116100de57806323b872dd146101aa57806342842e0e146101c65780636352211e146101e257806370a08231146102125761010b565b806301ffc9a71461011057806306fdde0314610140578063081812fc1461015e578063095ea7b31461018e575b600080fd5b61012a60048036038101906101259190611a25565b610358565b6040516101379190611a6d565b60405180910390f35b61014861043a565b6040516101559190611b18565b60405180910390f35b61017860048036038101906101739190611b70565b6104cc565b6040516101859190611bde565b60405180910390f35b6101a860048036038101906101a39190611c25565b610512565b005b6101c460048036038101906101bf9190611c65565b610629565b005b6101e060048036038101906101db9190611c65565b610689565b005b6101fc60048036038101906101f79190611b70565b6106a9565b6040516102099190611bde565b60405180910390f35b61022c60048036038101906102279190611cb8565b61072f565b6040516102399190611cf4565b60405180910390f35b61024a6107e6565b005b6102546107fa565b6040516102619190611bde565b60405180910390f35b610284600480360381019061027f9190611e44565b610824565b005b61028e61083c565b60405161029b9190611b18565b60405180910390f35b6102be60048036038101906102b99190611edf565b6108ce565b005b6102da60048036038101906102d59190611f1f565b6108e4565b005b6102f660048036038101906102f19190611b70565b610946565b6040516103039190611b18565b60405180910390f35b61032660048036038101906103219190611fa2565b6109ae565b6040516103339190611a6d565b60405180910390f35b61035660048036038101906103519190611cb8565b610a42565b005b60007f80ac58cd000000000000000000000000000000000000000000000000000000007bffffffffffffffffffffffffffffffffffffffffffffffffffffffff1916827bffffffffffffffffffffffffffffffffffffffffffffffffffffffff1916148061042357507f5b5e139f000000000000000000000000000000000000000000000000000000007bffffffffffffffffffffffffffffffffffffffffffffffffffffffff1916827bffffffffffffffffffffffffffffffffffffffffffffffffffffffff1916145b80610433575061043282610ae8565b5b9050919050565b60606000805461044990612011565b80601f016020809104026020016040519081016040528092919081815260200182805461047590612011565b80156104c25780601f10610497576101008083540402835291602001916104c2565b820191906000526020600020905b8154815290600101906020018083116104a557829003601f168201915b5050505050905090565b60006104d782610b52565b6004600083815260200190815260200160002060009054906101000a900473ffffffffffffffffffffffffffffffffffffffff169050919050565b600061051d826106a9565b90508073ffffffffffffffffffffffffffffffffffffffff168373ffffffffffffffffffffffffffffffffffffffff160361058d576040517f08c379a0000000000000000000000000000000000000000000000000000000008152600401610584906120b4565b60405180910390fd5b8073ffffffffffffffffffffffffffffffffffffffff166105ac610b9d565b73ffffffffffffffffffffffffffffffffffffffff1614806105db57506105da816105d5610b9d565b6109ae565b5b61061a576040517f08c379a000000000000000000000000000000000000000000000000000000000815260040161061190612146565b60405180910390fd5b6106248383610ba5565b505050565b61063a610634610b9d565b82610c5e565b610679576040517f08c379a0000000000000000000000000000000000000000000000000000000008152600401610670906121d8565b60405180910390fd5b610684838383610cf3565b505050565b6106a4838383604051806020016040528060008152506108e4565b505050565b6000806106b583610fec565b9050600073ffffffffffffffffffffffffffffffffffffffff168173ffffffffffffffffffffffffffffffffffffffff1603610726576040517f08c379a000000000000000000000000000000000000000000000000000000000815260040161071d90612244565b60405180910390fd5b80915050919050565b60008073ffffffffffffffffffffffffffffffffffffffff168273ffffffffffffffffffffffffffffffffffffffff160361079f576040517f08c379a0000000000000000000000000000000000000000000000000000000008152600401610796906122d6565b60405180910390fd5b600360008373ffffffffffffffffffffffffffffffffffffffff1673ffffffffffffffffffffffffffffffffffffffff168152602001908152602001600020549050919050565b6107ee611029565b6107f860006110a7565b565b6000600660009054906101000a900473ffffffffffffffffffffffffffffffffffffffff16905090565b61082c611029565b61083783838361116d565b505050565b60606001805461084b90612011565b80601f016020809104026020016040519081016040528092919081815260200182805461087790612011565b80156108c45780601f10610899576101008083540402835291602001916108c4565b820191906000526020600020905b8154815290600101906020018083116108a757829003601f168201915b5050505050905090565b6108e06108d9610b9d565b83836111c8565b5050565b6108f56108ef610b9d565b83610c5e565b610934576040517f08c379a000000000000000000000000000000000000000000000000000000000815260040161092b906121d8565b60405180910390fd5b61094084848484611334565b50505050565b606061095182610b52565b600061095b611390565b9050600081511161097b57604051806020016040528060008152506109a6565b80610985846113a7565b604051602001610996929190612332565b6040516020818303038152906040525b915050919050565b6000600560008473ffffffffffffffffffffffffffffffffffffffff1673ffffffffffffffffffffffffffffffffffffffff16815260200190815260200160002060008373ffffffffffffffffffffffffffffffffffffffff1673ffffffffffffffffffffffffffffffffffffffff16815260200190815260200160002060009054906101000a900460ff16905092915050565b610a4a611029565b600073ffffffffffffffffffffffffffffffffffffffff168173ffffffffffffffffffffffffffffffffffffffff1603610ab9576040517f08c379a0000000000000000000000000000000000000000000000000000000008152600401610ab0906123c8565b60405180910390fd5b610ac2816110a7565b50565b6000808273ffffffffffffffffffffffffffffffffffffffff163b119050919050565b60007f01ffc9a7000000000000000000000000000000000000000000000000000000007bffffffffffffffffffffffffffffffffffffffffffffffffffffffff1916827bffffffffffffffffffffffffffffffffffffffffffffffffffffffff1916149050919050565b610b5b81611475565b610b9a576040517f08c379a0000000000000000000000000000000000000000000000000000000008152600401610b9190612244565b60405180910390fd5b50565b600033905090565b816004600083815260200190815260200160002060006101000a81548173ffffffffffffffffffffffffffffffffffffffff021916908373ffffffffffffffffffffffffffffffffffffffff160217905550808273ffffffffffffffffffffffffffffffffffffffff16610c18836106a9565b73ffffffffffffffffffffffffffffffffffffffff167f8c5be1e5ebec7d5bd14f71427d1e84f3dd0314c0f7b2291e5b200ac8c7c3b92560405160405180910390a45050565b600080610c6a836106a9565b90508073ffffffffffffffffffffffffffffffffffffffff168473ffffffffffffffffffffffffffffffffffffffff161480610cac5750610cab81856109ae565b5b80610cea57508373ffffffffffffffffffffffffffffffffffffffff16610cd2846104cc565b73ffffffffffffffffffffffffffffffffffffffff16145b91505092915050565b8273ffffffffffffffffffffffffffffffffffffffff16610d13826106a9565b73ffffffffffffffffffffffffffffffffffffffff1614610d69576040517f08c379a0000000000000000000000000000000000000000000000000000000008152600401610d609061245a565b60405180910390fd5b600073ffffffffffffffffffffffffffffffffffffffff168273ffffffffffffffffffffffffffffffffffffffff1603610dd8576040517f08c379a0000000000000000000000000000000000000000000000000000000008152600401610dcf906124ec565b60405180910390fd5b610de583838360016114b6565b8273ffffffffffffffffffffffffffffffffffffffff16610e05826106a9565b73ffffffffffffffffffffffffffffffffffffffff1614610e5b576040517f08c379a0000000000000000000000000000000000000000000000000000000008152600401610e529061245a565b60405180910390fd5b6004600082815260200190815260200160002060006101000a81549073ffffffffffffffffffffffffffffffffffffffff02191690556001600360008573ffffffffffffffffffffffffffffffffffffffff1673ffffffffffffffffffffffffffffffffffffffff168152602001908152602001600020600082825403925050819055506001600360008473ffffffffffffffffffffffffffffffffffffffff1673ffffffffffffffffffffffffffffffffffffffff16815260200190815260200160002060008282540192505081905550816002600083815260200190815260200160002060006101000a81548173ffffffffffffffffffffffffffffffffffffffff021916908373ffffffffffffffffffffffffffffffffffffffff160217905550808273ffffffffffffffffffffffffffffffffffffffff168473ffffffffffffffffffffffffffffffffffffffff167fddf252ad1be2c89b69c2b068fc378daa952ba7f163c4a11628f55a4df523b3ef60405160405180910390a4610fe783838360016114bc565b505050565b60006002600083815260200190815260200160002060009054906101000a900473ffffffffffffffffffffffffffffffffffffffff169050919050565b611031610b9d565b73ffffffffffffffffffffffffffffffffffffffff1661104f6107fa565b73ffffffffffffffffffffffffffffffffffffffff16146110a5576040517f08c379a000000000000000000000000000000000000000000000000000000000815260040161109c90612558565b60405180910390fd5b565b6000600660009054906101000a900473ffffffffffffffffffffffffffffffffffffffff16905081600660006101000a81548173ffffffffffffffffffffffffffffffffffffffff021916908373ffffffffffffffffffffffffffffffffffffffff1602179055508173ffffffffffffffffffffffffffffffffffffffff168173ffffffffffffffffffffffffffffffffffffffff167f8be0079c531659141344cd1fd0a4f28419497f9722a3daafe3b4186f6b6457e060405160405180910390a35050565b61117783836114c2565b61118460008484846116df565b6111c3576040517f08c379a00000000000000000000000000000000000000000000000000000000081526004016111ba906125ea565b60405180910390fd5b505050565b8173ffffffffffffffffffffffffffffffffffffffff168373ffffffffffffffffffffffffffffffffffffffff1603611236576040517f08c379a000000000000000000000000000000000000000000000000000000000815260040161122d90612656565b60405180910390fd5b80600560008573ffffffffffffffffffffffffffffffffffffffff1673ffffffffffffffffffffffffffffffffffffffff16815260200190815260200160002060008473ffffffffffffffffffffffffffffffffffffffff1673ffffffffffffffffffffffffffffffffffffffff16815260200190815260200160002060006101000a81548160ff0219169083151502179055508173ffffffffffffffffffffffffffffffffffffffff168373ffffffffffffffffffffffffffffffffffffffff167f17307eab39ab6107e8899845ad3d59bd9653f200f220920489ca2b5937696c31836040516113279190611a6d565b60405180910390a3505050565b61133f848484610cf3565b61134b848484846116df565b61138a576040517f08c379a0000000000000000000000000000000000000000000000000000000008152600401611381906125ea565b60405180910390fd5b50505050565b606060405180602001604052806000815250905090565b6060600060016113b684611866565b01905060008167ffffffffffffffff8111156113d5576113d4611d19565b5b6040519080825280601f01601f1916602001820160405280156114075781602001600182028036833780820191505090505b509050600082602001820190505b60011561146a578080600190039150507f3031323334353637383961626364656600000000000000000000000000000000600a86061a8153600a858161145e5761145d612676565b5b04945060008503611415575b819350505050919050565b60008073ffffffffffffffffffffffffffffffffffffffff1661149783610fec565b73ffffffffffffffffffffffffffffffffffffffff1614159050919050565b50505050565b50505050565b600073ffffffffffffffffffffffffffffffffffffffff168273ffffffffffffffffffffffffffffffffffffffff1603611531576040517f08c379a0000000000000000000000000000000000000000000000000000000008152600401611528906126f1565b60405180910390fd5b61153a81611475565b1561157a576040517f08c379a00000000000000000000000000000000000000000000000000000000081526004016115719061275d565b60405180910390fd5b6115886000838360016114b6565b61159181611475565b156115d1576040517f08c379a00000000000000000000000000000000000000000000000000000000081526004016115c89061275d565b60405180910390fd5b6001600360008473ffffffffffffffffffffffffffffffffffffffff1673ffffffffffffffffffffffffffffffffffffffff16815260200190815260200160002060008282540192505081905550816002600083815260200190815260200160002060006101000a81548173ffffffffffffffffffffffffffffffffffffffff021916908373ffffffffffffffffffffffffffffffffffffffff160217905550808273ffffffffffffffffffffffffffffffffffffffff16600073ffffffffffffffffffffffffffffffffffffffff167fddf252ad1be2c89b69c2b068fc378daa952ba7f163c4a11628f55a4df523b3ef60405160405180910390a46116db6000838360016114bc565b5050565b60006117008473ffffffffffffffffffffffffffffffffffffffff16610ac5565b15611859578373ffffffffffffffffffffffffffffffffffffffff1663150b7a02611729610b9d565b8786866040518563ffffffff1660e01b815260040161174b94939291906127d2565b6020604051808303816000875af192505050801561178757506040513d601f19601f820116820180604052508101906117849190612833565b60015b611809573d80600081146117b7576040519150601f19603f3d011682016040523d82523d6000602084013e6117bc565b606091505b506000815103611801576040517f08c379a00000000000000000000000000000000000000000000000000000000081526004016117f8906125ea565b60405180910390fd5b805181602001fd5b63150b7a0260e01b7bffffffffffffffffffffffffffffffffffffffffffffffffffffffff1916817bffffffffffffffffffffffffffffffffffffffffffffffffffffffff19161491505061185e565b600190505b949350505050565b600080600090507a184f03e93ff9f4daa797ed6e38ed64bf6a1f01000000000000000083106118c4577a184f03e93ff9f4daa797ed6e38ed64bf6a1f01000000000000000083816118ba576118b9612676565b5b0492506040810190505b6d04ee2d6d415b85acef81000000008310611901576d04ee2d6d415b85acef810000000083816118f7576118f6612676565b5b0492506020810190505b662386f26fc10000831061193057662386f26fc10000838161192657611925612676565b5b0492506010810190505b6305f5e1008310611959576305f5e100838161194f5761194e612676565b5b0492506008810190505b612710831061197e57612710838161197457611973612676565b5b0492506004810190505b606483106119a1576064838161199757611996612676565b5b0492506002810190505b600a83106119b0576001810190505b80915050919050565b6000604051905090565b600080fd5b600080fd5b60007fffffffff0000000000000000000000000000000000000000000000000000000082169050919050565b611a02816119cd565b8114611a0d57600080fd5b50565b600081359050611a1f816119f9565b92915050565b600060208284031215611a3b57611a3a6119c3565b5b6000611a4984828501611a10565b91505092915050565b60008115159050919050565b611a6781611a52565b82525050565b6000602082019050611a826000830184611a5e565b92915050565b600081519050919050565b600082825260208201905092915050565b60005b83811015611ac2578082015181840152602081019050611aa7565b60008484015250505050565b6000601f19601f8301169050919050565b6000611aea82611a88565b611af48185611a93565b9350611b04818560208601611aa4565b611b0d81611ace565b840191505092915050565b60006020820190508181036000830152611b328184611adf565b905092915050565b6000819050919050565b611b4d81611b3a565b8114611b5857600080fd5b50565b600081359050611b6a81611b44565b92915050565b600060208284031215611b8657611b856119c3565b5b6000611b9484828501611b5b565b91505092915050565b600073ffffffffffffffffffffffffffffffffffffffff82169050919050565b6000611bc882611b9d565b9050919050565b611bd881611bbd565b82525050565b6000602082019050611bf36000830184611bcf565b92915050565b611c0281611bbd565b8114611c0d57600080fd5b50565b600081359050611c1f81611bf9565b92915050565b60008060408385031215611c3c57611c3b6119c3565b5b6000611c4a85828601611c10565b9250506020611c5b85828601611b5b565b9150509250929050565b600080600060608486031215611c7e57611c7d6119c3565b5b6000611c8c86828701611c10565b9350506020611c9d86828701611c10565b9250506040611cae86828701611b5b565b9150509250925092565b600060208284031215611cce57611ccd6119c3565b5b6000611cdc84828501611c10565b91505092915050565b611cee81611b3a565b82525050565b6000602082019050611d096000830184611ce5565b92915050565b600080fd5b600080fd5b7f4e487b7100000000000000000000000000000000000000000000000000000000600052604160045260246000fd5b611d5182611ace565b810181811067ffffffffffffffff82111715611d7057611d6f611d19565b5b80604052505050565b6000611d836119b9565b9050611d8f8282611d48565b919050565b600067ffffffffffffffff821115611daf57611dae611d19565b5b611db882611ace565b9050602081019050919050565b82818337600083830152505050565b6000611de7611de284611d94565b611d79565b905082815260208101848484011115611e0357611e02611d14565b5b611e0e848285611dc5565b509392505050565b600082601f830112611e2b57611e2a611d0f565b5b8135611e3b848260208601611dd4565b91505092915050565b600080600060608486031215611e5d57611e5c6119c3565b5b6000611e6b86828701611c10565b9350506020611e7c86828701611b5b565b925050604084013567ffffffffffffffff811115611e9d57611e9c6119c8565b5b611ea986828701611e16565b9150509250925092565b611ebc81611a52565b8114611ec757600080fd5b50565b600081359050611ed981611eb3565b92915050565b60008060408385031215611ef657611ef56119c3565b5b6000611f0485828601611c10565b9250506020611f1585828601611eca565b9150509250929050565b60008060008060808587031215611f3957611f386119c3565b5b6000611f4787828801611c10565b9450506020611f5887828801611c10565b9350506040611f6987828801611b5b565b925050606085013567ffffffffffffffff811115611f8a57611f896119c8565b5b611f9687828801611e16565b91505092959194509250565b60008060408385031215611fb957611fb86119c3565b5b6000611fc785828601611c10565b9250506020611fd885828601611c10565b9150509250929050565b7f4e487b7100000000000000000000000000000000000000000000000000000000600052602260045260246000fd5b6000600282049050600182168061202957607f821691505b60208210810361203c5761203b611fe2565b5b50919050565b7f4552433732313a20617070726f76616c20746f2063757272656e74206f776e6560008201527f7200000000000000000000000000000000000000000000000000000000000000602082015250565b600061209e602183611a93565b91506120a982612042565b604082019050919050565b600060208201905081810360008301526120cd81612091565b9050919050565b7f4552433732313a20617070726f76652063616c6c6572206973206e6f7420746f60008201527f6b656e206f776e6572206f7220617070726f76656420666f7220616c6c000000602082015250565b6000612130603d83611a93565b915061213b826120d4565b604082019050919050565b6000602082019050818103600083015261215f81612123565b9050919050565b7f4552433732313a2063616c6c6572206973206e6f7420746f6b656e206f776e6560008201527f72206f7220617070726f76656400000000000000000000000000000000000000602082015250565b60006121c2602d83611a93565b91506121cd82612166565b604082019050919050565b600060208201905081810360008301526121f1816121b5565b9050919050565b7f4552433732313a20696e76616c696420746f6b656e2049440000000000000000600082015250565b600061222e601883611a93565b9150612239826121f8565b602082019050919050565b6000602082019050818103600083015261225d81612221565b9050919050565b7f4552433732313a2061646472657373207a65726f206973206e6f74206120766160008201527f6c6964206f776e65720000000000000000000000000000000000000000000000602082015250565b60006122c0602983611a93565b91506122cb82612264565b604082019050919050565b600060208201905081810360008301526122ef816122b3565b9050919050565b600081905092915050565b600061230c82611a88565b61231681856122f6565b9350612326818560208601611aa4565b80840191505092915050565b600061233e8285612301565b915061234a8284612301565b91508190509392505050565b7f4f776e61626c653a206e6577206f776e657220697320746865207a65726f206160008201527f6464726573730000000000000000000000000000000000000000000000000000602082015250565b60006123b2602683611a93565b91506123bd82612356565b604082019050919050565b600060208201905081810360008301526123e1816123a5565b9050919050565b7f4552433732313a207472616e736665722066726f6d20696e636f72726563742060008201527f6f776e6572000000000000000000000000000000000000000000000000000000602082015250565b6000612444602583611a93565b915061244f826123e8565b604082019050919050565b6000602082019050818103600083015261247381612437565b9050919050565b7f4552433732313a207472616e7366657220746f20746865207a65726f2061646460008201527f7265737300000000000000000000000000000000000000000000000000000000602082015250565b60006124d6602483611a93565b91506124e18261247a565b604082019050919050565b60006020820190508181036000830152612505816124c9565b9050919050565b7f4f776e61626c653a2063616c6c6572206973206e6f7420746865206f776e6572600082015250565b6000612542602083611a93565b915061254d8261250c565b602082019050919050565b6000602082019050818103600083015261257181612535565b9050919050565b7f4552433732313a207472616e7366657220746f206e6f6e20455243373231526560008201527f63656976657220696d706c656d656e7465720000000000000000000000000000602082015250565b60006125d4603283611a93565b91506125df82612578565b604082019050919050565b60006020820190508181036000830152612603816125c7565b9050919050565b7f4552433732313a20617070726f766520746f2063616c6c657200000000000000600082015250565b6000612640601983611a93565b915061264b8261260a565b602082019050919050565b6000602082019050818103600083015261266f81612633565b9050919050565b7f4e487b7100000000000000000000000000000000000000000000000000000000600052601260045260246000fd5b7f4552433732313a206d696e7420746f20746865207a65726f2061646472657373600082015250565b60006126db602083611a93565b91506126e6826126a5565b602082019050919050565b6000602082019050818103600083015261270a816126ce565b9050919050565b7f4552433732313a20746f6b656e20616c7265616479206d696e74656400000000600082015250565b6000612747601c83611a93565b915061275282612711565b602082019050919050565b600060208201905081810360008301526127768161273a565b9050919050565b600081519050919050565b600082825260208201905092915050565b60006127a48261277d565b6127ae8185612788565b93506127be818560208601611aa4565b6127c781611ace565b840191505092915050565b60006080820190506127e76000830187611bcf565b6127f46020830186611bcf565b6128016040830185611ce5565b81810360608301526128138184612799565b905095945050505050565b60008151905061282d816119f9565b92915050565b600060208284031215612849576128486119c3565b5b60006128578482850161281e565b9150509291505056fea2646970667358221220c704fec7533fa5b429c54af06ec5c5d355304a135fe299b245810d0eb153c46264736f6c63430008120033",
  "devdoc": {
    "events": {
      "Approval(address,address,uint256)": {
        "details": "Emitted when `owner` enables `approved` to manage the `tokenId` token."
      },
      "ApprovalForAll(address,address,bool)": {
        "details": "Emitted when `owner` enables or disables (`approved`) `operator` to manage all of its assets."
      },
      "Transfer(address,address,uint256)": {
        "details": "Emitted when `tokenId` token is transferred from `from` to `to`."
      }
    },
    "kind": "dev",
    "methods": {
      "approve(address,uint256)": {
        "details": "See {IERC721-approve}."
      },
      "balanceOf(address)": {
        "details": "See {IERC721-balanceOf}."
      },
      "getApproved(uint256)": {
        "details": "See {IERC721-getApproved}."
      },
      "isApprovedForAll(address,address)": {
        "details": "See {IERC721-isApprovedForAll}."
      },
      "name()": {
        "details": "See {IERC721Metadata-name}."
      },
      "owner()": {
        "details": "Returns the address of the current owner."
      },
      "ownerOf(uint256)": {
        "details": "See {IERC721-ownerOf}."
      },
      "renounceOwnership()": {
        "details": "Leaves the contract without owner. It will not be possible to call `onlyOwner` functions anymore. Can only be called by the current owner. NOTE: Renouncing ownership will leave the contract without an owner, thereby removing any functionality that is only available to the owner."
      },
      "safeTransferFrom(address,address,uint256)": {
        "details": "See {IERC721-safeTransferFrom}."
      },
      "safeTransferFrom(address,address,uint256,bytes)": {
        "details": "See {IERC721-safeTransferFrom}."
      },
      "setApprovalForAll(address,bool)": {
        "details": "See {IERC721-setApprovalForAll}."
      },
      "supportsInterface(bytes4)": {
        "details": "See {IERC165-supportsInterface}."
      },
      "symbol()": {
        "details": "See {IERC721Metadata-symbol}."
      },
      "tokenURI(uint256)": {
        "details": "See {IERC721Metadata-tokenURI}."
      },
      "transferFrom(address,address,uint256)": {
        "details": "See {IERC721-transferFrom}."
      },
      "transferOwnership(address)": {
        "details": "Transfers ownership of the contract to a new account (`newOwner`). Can only be called by the current owner."
      }
    },
    "version": 1
  },
  "userdoc": {
    "kind": "user",
    "methods": {},
    "version": 1
  },
  "storageLayout": {
    "storage": [
      {
        "astId": 138,
        "contract": "contracts/MockERC721Collection.sol:MockERC721Collection",
        "label": "_name",
        "offset": 0,
        "slot": "0",
        "type": "t_string_storage"
      },
      {
        "astId": 140,
        "contract": "contracts/MockERC721Collection.sol:MockERC721Collection",
        "label": "_symbol",
        "offset": 0,
        "slot": "1",
        "type": "t_string_storage"
      },
      {
        "astId": 144,
        "contract": "contracts/MockERC721Collection.sol:MockERC721Collection",
        "label": "_owners",
        "offset": 0,
        "slot": "2",
        "type": "t_mapping(t_uint256,t_address)"
      },
      {
        "astId": 148,
        "contract": "contracts/MockERC721Collection.sol:MockERC721Collection",
        "label": "_balances",
        "offset": 0,
        "slot": "3",
        "type": "t_mapping(t_address,t_uint256)"
      },
      {
        "astId": 152,
        "contract": "contracts/MockERC721Collection.sol:MockERC721Collection",
        "label": "_tokenApprovals",
        "offset": 0,
        "slot": "4",
        "type": "t_mapping(t_uint256,t_address)"
      },
      {
        "astId": 158,
        "contract": "contracts/MockERC721Collection.sol:MockERC721Collection",
        "label": "_operatorApprovals",
        "offset": 0,
        "slot": "5",
        "type": "t_mapping(t_address,t_mapping(t_address,t_bool))"
      },
      {
        "astId": 7,
        "contract": "contracts/MockERC721Collection.sol:MockERC721Collection",
        "label": "_owner",
        "offset": 0,
        "slot": "6",
        "type": "t_address"
      }
    ],
    "types": {
      "t_address": {
        "encoding": "inplace",
        "label": "address",
        "numberOfBytes": "20"
      },
      "t_bool": {
        "encoding": "inplace",
        "label": "bool",
        "numberOfBytes": "1"
      },
      "t_mapping(t_address,t_bool)": {
        "encoding": "mapping",
        "key": "t_address",
        "label": "mapping(address => bool)",
        "numberOfBytes": "32",
        "value": "t_bool"
      },
      "t_mapping(t_address,t_mapping(t_address,t_bool))": {
        "encoding": "mapping",
        "key": "t_address",
        "label": "mapping(address => mapping(address => bool))",
        "numberOfBytes": "32",
        "value": "t_mapping(t_address,t_bool)"
      },
      "t_mapping(t_address,t_uint256)": {
        "encoding": "mapping",
        "key": "t_address",
        "label": "mapping(address => uint256)",
        "numberOfBytes": "32",
        "value": "t_uint256"
      },
      "t_mapping(t_uint256,t_address)": {
        "encoding": "mapping",
        "key": "t_uint256",
        "label": "mapping(uint256 => address)",
        "numberOfBytes": "32",
        "value": "t_address"
      },
      "t_string_storage": {
        "encoding": "bytes",
        "label": "string",
        "numberOfBytes": "32"
      },
      "t_uint256": {
        "encoding": "inplace",
        "label": "uint256",
        "numberOfBytes": "32"
      }
    }
  }
}