{
  "address": "0xd8252dE84A72e9Fc7d214DAA8C2AbD361aD53c08",
  "abi": [
    {
      "inputs": [],
      "stateMutability": "nonpayable",
      "type": "constructor"
    },
    {
      "anonymous": false,
      "inputs": [
        {
          "indexed": true,
          "internalType": "address",
          "name": "collection",
          "type": "address"
        },
        {
          "indexed": true,
          "internalType": "uint256",
          "name": "tokenId",
          "type": "uint256"
        },
        {
          "indexed": false,
          "internalType": "uint256",
          "name": "indexOfOfferMapping",
          "type": "uint256"
        },
        {
          "indexed": false,
          "internalType": "uint256",
          "name": "priceOffer",
          "type": "uint256"
        },
        {
          "indexed": true,
          "internalType": "address",
          "name": "buyer",
          "type": "address"
        }
      ],
      "name": "CancelledOffer",
      "type": "event"
    },
    {
      "anonymous": false,
      "inputs": [
        {
          "indexed": true,
          "internalType": "address",
          "name": "collection",
          "type": "address"
        },
        {
          "indexed": true,
          "internalType": "uint256",
          "name": "nftId",
          "type": "uint256"
        },
        {
          "indexed": true,
          "internalType": "uint256",
          "name": "offerId",
          "type": "uint256"
        },
        {
          "indexed": false,
          "internalType": "uint256",
          "name": "counterofferId",
          "type": "uint256"
        }
      ],
      "name": "CounterofferMade",
      "type": "event"
    },
    {
      "anonymous": false,
      "inputs": [
        {
          "indexed": true,
          "internalType": "uint256",
          "name": "id",
          "type": "uint256"
        },
        {
          "indexed": false,
          "internalType": "uint256",
          "name": "price",
          "type": "uint256"
        },
        {
          "indexed": true,
          "internalType": "address",
          "name": "seller",
          "type": "address"
        }
      ],
      "name": "CounterofferTaken",
      "type": "event"
    },
    {
      "anonymous": false,
      "inputs": [
        {
          "indexed": true,
          "internalType": "address",
          "name": "seller",
          "type": "address"
        },
        {
          "indexed": true,
          "internalType": "address",
          "name": "collection",
          "type": "address"
        },
        {
          "indexed": false,
          "internalType": "uint256",
          "name": "nftId",
          "type": "uint256"
        },
        {
          "indexed": false,
          "internalType": "uint256",
          "name": "price",
          "type": "uint256"
        }
      ],
      "name": "NFTListed",
      "type": "event"
    },
    {
      "anonymous": false,
      "inputs": [
        {
          "indexed": true,
          "internalType": "address",
          "name": "collection",
          "type": "address"
        },
        {
          "indexed": true,
          "internalType": "uint256",
          "name": "nftId",
          "type": "uint256"
        },
        {
          "indexed": false,
          "internalType": "uint256",
          "name": "newPrice",
          "type": "uint256"
        }
      ],
      "name": "NFTPriceChanged",
      "type": "event"
    },
    {
      "anonymous": false,
      "inputs": [
        {
          "indexed": true,
          "internalType": "address",
          "name": "buyer",
          "type": "address"
        },
        {
          "indexed": true,
          "internalType": "address",
          "name": "seller",
          "type": "address"
        },
        {
          "indexed": true,
          "internalType": "address",
          "name": "collection",
          "type": "address"
        },
        {
          "indexed": false,
          "internalType": "uint256",
          "name": "nftId",
          "type": "uint256"
        },
        {
          "indexed": false,
          "internalType": "uint256",
          "name": "price",
          "type": "uint256"
        }
      ],
      "name": "NFTSold",
      "type": "event"
    },
    {
      "anonymous": false,
      "inputs": [
        {
          "indexed": true,
          "internalType": "address",
          "name": "buyer",
          "type": "address"
        },
        {
          "indexed": true,
          "internalType": "address",
          "name": "collection",
          "type": "address"
        },
        {
          "indexed": true,
          "internalType": "uint256",
          "name": "nftId",
          "type": "uint256"
        },
        {
          "indexed": false,
          "internalType": "uint256",
          "name": "offerId",
          "type": "uint256"
        }
      ],
      "name": "OfferMade",
      "type": "event"
    },
    {
      "anonymous": false,
      "inputs": [
        {
          "indexed": true,
          "internalType": "address",
          "name": "previousOwner",
          "type": "address"
        },
        {
          "indexed": true,
          "internalType": "address",
          "name": "newOwner",
          "type": "address"
        }
      ],
      "name": "OwnershipTransferred",
      "type": "event"
    },
    {
      "anonymous": false,
      "inputs": [
        {
          "indexed": true,
          "internalType": "address",
          "name": "beneficiary",
          "type": "address"
        },
        {
          "indexed": false,
          "internalType": "uint256",
          "name": "amount",
          "type": "uint256"
        }
      ],
      "name": "RootWithdrawal",
      "type": "event"
    },
    {
      "inputs": [
        {
          "internalType": "address",
          "name": "collection",
          "type": "address"
        },
        {
          "internalType": "uint256",
          "name": "nftId",
          "type": "uint256"
        }
      ],
      "name": "buy",
      "outputs": [],
      "stateMutability": "payable",
      "type": "function"
    },
    {
      "inputs": [
        {
          "internalType": "address",
          "name": "collection",
          "type": "address"
        },
        {
          "internalType": "uint256",
          "name": "tokenId",
          "type": "uint256"
        },
        {
          "internalType": "uint256",
          "name": "indexOfOfferMapping",
          "type": "uint256"
        }
      ],
      "name": "cancelOffer",
      "outputs": [],
      "stateMutability": "nonpayable",
      "type": "function"
    },
    {
      "inputs": [
        {
          "internalType": "address",
          "name": "collection",
          "type": "address"
        },
        {
          "internalType": "uint256",
          "name": "tokenId",
          "type": "uint256"
        },
        {
          "internalType": "uint256",
          "name": "newPrice",
          "type": "uint256"
        }
      ],
      "name": "changePriceOf",
      "outputs": [],
      "stateMutability": "nonpayable",
      "type": "function"
    },
    {
      "inputs": [],
      "name": "feeRatio",
      "outputs": [
        {
          "internalType": "int128",
          "name": "",
          "type": "int128"
        }
      ],
      "stateMutability": "view",
      "type": "function"
    },
    {
      "inputs": [],
      "name": "floorRatio",
      "outputs": [
        {
          "internalType": "int128",
          "name": "",
          "type": "int128"
        }
      ],
      "stateMutability": "view",
      "type": "function"
    },
    {
      "inputs": [],
      "name": "fusyBenefitsAccumulated",
      "outputs": [
        {
          "internalType": "uint256",
          "name": "",
          "type": "uint256"
        }
      ],
      "stateMutability": "view",
      "type": "function"
    },
    {
      "inputs": [
        {
          "internalType": "address",
          "name": "collection",
          "type": "address"
        },
        {
          "internalType": "uint256",
          "name": "nftId",
          "type": "uint256"
        },
        {
          "internalType": "uint256",
          "name": "offerId",
          "type": "uint256"
        }
      ],
      "name": "getCounteroffer",
      "outputs": [
        {
          "components": [
            {
              "internalType": "address",
              "name": "collection",
              "type": "address"
            },
            {
              "internalType": "uint256",
              "name": "nftId",
              "type": "uint256"
            },
            {
              "internalType": "uint256",
              "name": "offerId",
              "type": "uint256"
            },
            {
              "internalType": "uint256",
              "name": "price",
              "type": "uint256"
            },
            {
              "internalType": "uint64",
              "name": "expirationDate",
              "type": "uint64"
            }
          ],
          "internalType": "struct IMarketplace.Counteroffer",
          "name": "",
          "type": "tuple"
        }
      ],
      "stateMutability": "view",
      "type": "function"
    },
    {
      "inputs": [
        {
          "internalType": "uint256",
          "name": "netPayment",
          "type": "uint256"
        }
      ],
      "name": "getFusyonaFeeFor",
      "outputs": [
        {
          "internalType": "uint256",
          "name": "",
          "type": "uint256"
        }
      ],
      "stateMutability": "view",
      "type": "function"
    },
    {
      "inputs": [
        {
          "internalType": "address",
          "name": "collection",
          "type": "address"
        },
        {
          "internalType": "uint256",
          "name": "tokenId",
          "type": "uint256"
        }
      ],
      "name": "getNftInfo",
      "outputs": [
        {
          "components": [
            {
              "internalType": "bool",
              "name": "listed",
              "type": "bool"
            },
            {
              "internalType": "uint256",
              "name": "price",
              "type": "uint256"
            },
            {
              "internalType": "address",
              "name": "seller",
              "type": "address"
            },
            {
              "internalType": "uint256",
              "name": "totalOffers",
              "type": "uint256"
            }
          ],
          "internalType": "struct IMarketplace.NftInfo",
          "name": "",
          "type": "tuple"
        }
      ],
      "stateMutability": "view",
      "type": "function"
    },
    {
      "inputs": [
        {
          "internalType": "address",
          "name": "collection",
          "type": "address"
        },
        {
          "internalType": "uint256",
          "name": "nftId",
          "type": "uint256"
        },
        {
          "internalType": "uint256",
          "name": "offerId",
          "type": "uint256"
        }
      ],
      "name": "getOffer",
      "outputs": [
        {
          "components": [
            {
              "internalType": "bool",
              "name": "isInitialized",
              "type": "bool"
            },
            {
              "internalType": "address",
              "name": "buyer",
              "type": "address"
            },
            {
              "internalType": "uint256",
              "name": "price",
              "type": "uint256"
            },
            {
              "internalType": "uint64",
              "name": "expirationDate",
              "type": "uint64"
            },
            {
              "internalType": "uint256",
              "name": "counterofferId",
              "type": "uint256"
            }
          ],
          "internalType": "struct IMarketplace.Offer",
          "name": "",
          "type": "tuple"
        }
      ],
      "stateMutability": "view",
      "type": "function"
    },
    {
      "inputs": [
        {
          "internalType": "address",
          "name": "collection",
          "type": "address"
        },
        {
          "internalType": "uint256",
          "name": "nftId",
          "type": "uint256"
        }
      ],
      "name": "isListed",
      "outputs": [
        {
          "internalType": "bool",
          "name": "",
          "type": "bool"
        }
      ],
      "stateMutability": "view",
      "type": "function"
    },
    {
      "inputs": [
        {
          "internalType": "address",
          "name": "collection",
          "type": "address"
        },
        {
          "internalType": "uint256",
          "name": "nftId",
          "type": "uint256"
        },
        {
          "internalType": "uint256",
          "name": "price",
          "type": "uint256"
        }
      ],
      "name": "list",
      "outputs": [],
      "stateMutability": "nonpayable",
      "type": "function"
    },
    {
      "inputs": [
        {
          "internalType": "address",
          "name": "collection",
          "type": "address"
        },
        {
          "internalType": "uint256",
          "name": "nftId",
          "type": "uint256"
        },
        {
          "internalType": "uint256",
          "name": "offerId",
          "type": "uint256"
        },
        {
          "internalType": "uint256",
          "name": "newPrice",
          "type": "uint256"
        },
        {
          "internalType": "uint64",
          "name": "durationInDays",
          "type": "uint64"
        }
      ],
      "name": "makeCounteroffer",
      "outputs": [],
      "stateMutability": "nonpayable",
      "type": "function"
    },
    {
      "inputs": [
        {
          "internalType": "address",
          "name": "collection",
          "type": "address"
        },
        {
          "internalType": "uint256",
          "name": "nftId",
          "type": "uint256"
        },
        {
          "internalType": "uint64",
          "name": "durationInDays",
          "type": "uint64"
        }
      ],
      "name": "makeOffer",
      "outputs": [],
      "stateMutability": "payable",
      "type": "function"
    },
    {
      "inputs": [
        {
          "internalType": "address",
          "name": "collection",
          "type": "address"
        },
        {
          "internalType": "uint256",
          "name": "nftId",
          "type": "uint256"
        }
      ],
      "name": "minPriceOffer",
      "outputs": [
        {
          "internalType": "uint256",
          "name": "",
          "type": "uint256"
        }
      ],
      "stateMutability": "view",
      "type": "function"
    },
    {
      "inputs": [
        {
          "internalType": "address",
          "name": "",
          "type": "address"
        },
        {
          "internalType": "address",
          "name": "",
          "type": "address"
        },
        {
          "internalType": "uint256[]",
          "name": "",
          "type": "uint256[]"
        },
        {
          "internalType": "uint256[]",
          "name": "",
          "type": "uint256[]"
        },
        {
          "internalType": "bytes",
          "name": "",
          "type": "bytes"
        }
      ],
      "name": "onERC1155BatchReceived",
      "outputs": [
        {
          "internalType": "bytes4",
          "name": "",
          "type": "bytes4"
        }
      ],
      "stateMutability": "nonpayable",
      "type": "function"
    },
    {
      "inputs": [
        {
          "internalType": "address",
          "name": "",
          "type": "address"
        },
        {
          "internalType": "address",
          "name": "",
          "type": "address"
        },
        {
          "internalType": "uint256",
          "name": "",
          "type": "uint256"
        },
        {
          "internalType": "uint256",
          "name": "",
          "type": "uint256"
        },
        {
          "internalType": "bytes",
          "name": "",
          "type": "bytes"
        }
      ],
      "name": "onERC1155Received",
      "outputs": [
        {
          "internalType": "bytes4",
          "name": "",
          "type": "bytes4"
        }
      ],
      "stateMutability": "nonpayable",
      "type": "function"
    },
    {
      "inputs": [],
      "name": "owner",
      "outputs": [
        {
          "internalType": "address",
          "name": "",
          "type": "address"
        }
      ],
      "stateMutability": "view",
      "type": "function"
    },
    {
      "inputs": [],
      "name": "renounceOwnership",
      "outputs": [],
      "stateMutability": "nonpayable",
      "type": "function"
    },
    {
      "inputs": [
        {
          "internalType": "uint8",
          "name": "percentage",
          "type": "uint8"
        }
      ],
      "name": "setFeeRatioFromPercentage",
      "outputs": [],
      "stateMutability": "nonpayable",
      "type": "function"
    },
    {
      "inputs": [
        {
          "internalType": "uint8",
          "name": "percentage",
          "type": "uint8"
        }
      ],
      "name": "setFloorRatioFromPercentage",
      "outputs": [],
      "stateMutability": "nonpayable",
      "type": "function"
    },
    {
      "inputs": [
        {
          "internalType": "bytes4",
          "name": "interfaceId",
          "type": "bytes4"
        }
      ],
      "name": "supportsInterface",
      "outputs": [
        {
          "internalType": "bool",
          "name": "",
          "type": "bool"
        }
      ],
      "stateMutability": "view",
      "type": "function"
    },
    {
      "inputs": [
        {
          "internalType": "uint256",
          "name": "id",
          "type": "uint256"
        }
      ],
      "name": "takeCounteroffer",
      "outputs": [],
      "stateMutability": "payable",
      "type": "function"
    },
    {
      "inputs": [
        {
          "internalType": "address",
          "name": "collection",
          "type": "address"
        },
        {
          "internalType": "uint256",
          "name": "tokenId",
          "type": "uint256"
        },
        {
          "internalType": "uint256",
          "name": "indexOfOfferMapping",
          "type": "uint256"
        }
      ],
      "name": "takeOffer",
      "outputs": [],
      "stateMutability": "nonpayable",
      "type": "function"
    },
    {
      "inputs": [
        {
          "internalType": "address",
          "name": "newOwner",
          "type": "address"
        }
      ],
      "name": "transferOwnership",
      "outputs": [],
      "stateMutability": "nonpayable",
      "type": "function"
    },
    {
      "inputs": [],
      "name": "withdraw",
      "outputs": [],
      "stateMutability": "nonpayable",
      "type": "function"
    },
    {
      "stateMutability": "payable",
      "type": "receive"
    }
  ],
  "transactionHash": "0xd6e4411b0ba89f2c60193fabc1f18581ea004659deaf991afb339e209aab1952",
  "args": [],
  "numDeployments": 1,
  "solcInputHash": "29f4684b0bb379b023129347eecbedea",
  "bytecode": "0x60806040526200001b6002620000dc60201b620019b31760201c565b600160006101000a8154816fffffffffffffffffffffffffffffffff0219169083600f0b6fffffffffffffffffffffffffffffffff1602179055506200006d6014620000dc60201b620019b31760201c565b600160106101000a8154816fffffffffffffffffffffffffffffffff0219169083600f0b6fffffffffffffffffffffffffffffffff160217905550348015620000b557600080fd5b50620000d6620000ca6200010a60201b60201c565b6200011260201b60201c565b620002fb565b600060646801000000000000000083620000f7919062000212565b62000103919062000287565b9050919050565b600033905090565b60008060009054906101000a900473ffffffffffffffffffffffffffffffffffffffff169050816000806101000a81548173ffffffffffffffffffffffffffffffffffffffff021916908373ffffffffffffffffffffffffffffffffffffffff1602179055508173ffffffffffffffffffffffffffffffffffffffff168173ffffffffffffffffffffffffffffffffffffffff167f8be0079c531659141344cd1fd0a4f28419497f9722a3daafe3b4186f6b6457e060405160405180910390a35050565b600081600f0b9050919050565b7f4e487b7100000000000000000000000000000000000000000000000000000000600052601160045260246000fd5b60006200021f82620001d6565b91506200022c83620001d6565b92508282026200023c81620001d6565b9150808214620002515762000250620001e3565b5b5092915050565b7f4e487b7100000000000000000000000000000000000000000000000000000000600052601260045260246000fd5b60006200029482620001d6565b9150620002a183620001d6565b925082620002b457620002b362000258565b5b600160000383147fffffffffffffffffffffffffffffffff8000000000000000000000000000000083141615620002f057620002ef620001e3565b5b828205905092915050565b614a51806200030b6000396000f3fe6080604052600436106101855760003560e01c80638ed457e0116100d1578063cce7ec131161008a578063dda342bb11610064578063dda342bb14610574578063f23a6e611461059d578063f2fde38b146105da578063fe4f0dde146106035761018c565b8063cce7ec13146104de578063cdb3cd25146104fa578063dbde3830146105375761018c565b80638ed457e0146103c457806392e3a5d6146103ef5780639ccc3fc71461042c5780639dd806ec14610469578063a5e5135514610485578063bc197c81146104a15761018c565b806345348a8c1161013e578063715018a611610118578063715018a6146103305780637766ba921461034757806384d8cf20146103705780638da5cb5b146103995761018c565b806345348a8c1461028d57806350e99503146102ca5780636425cb05146102f35761018c565b806301ffc9a7146101915780630e030d6a146101ce57806320546607146101f757806329a1a8f2146102225780633ccfd60b1461024b57806341744dd4146102625761018c565b3661018c57005b600080fd5b34801561019d57600080fd5b506101b860048036038101906101b39190612ed7565b61062c565b6040516101c59190612f1f565b60405180910390f35b3480156101da57600080fd5b506101f560048036038101906101f09190612fce565b6106a6565b005b34801561020357600080fd5b5061020c61081f565b6040516102199190613030565b60405180910390f35b34801561022e57600080fd5b5061024960048036038101906102449190613084565b610825565b005b34801561025757600080fd5b5061026061091b565b005b34801561026e57600080fd5b50610277610a1d565b60405161028491906130cd565b60405180910390f35b34801561029957600080fd5b506102b460048036038101906102af91906130e8565b610a30565b6040516102c191906131aa565b60405180910390f35b3480156102d657600080fd5b506102f160048036038101906102ec9190613205565b610b0b565b005b3480156102ff57600080fd5b5061031a60048036038101906103159190612fce565b610bef565b60405161032791906132f7565b60405180910390f35b34801561033c57600080fd5b50610345610d26565b005b34801561035357600080fd5b5061036e60048036038101906103699190612fce565b610d3a565b005b34801561037c57600080fd5b5061039760048036038101906103929190612fce565b610df6565b005b3480156103a557600080fd5b506103ae610fdc565b6040516103bb9190613321565b60405180910390f35b3480156103d057600080fd5b506103d9611005565b6040516103e691906130cd565b60405180910390f35b3480156103fb57600080fd5b50610416600480360381019061041191906130e8565b611018565b6040516104239190613030565b60405180910390f35b34801561043857600080fd5b50610453600480360381019061044e9190612fce565b6110b0565b60405161046091906133a4565b60405180910390f35b610483600480360381019061047e91906133bf565b6110de565b005b61049f600480360381019061049a9190613412565b611307565b005b3480156104ad57600080fd5b506104c860048036038101906104c3919061364d565b6114ed565b6040516104d5919061372b565b60405180910390f35b6104f860048036038101906104f391906130e8565b611502565b005b34801561050657600080fd5b50610521600480360381019061051c91906130e8565b6115d4565b60405161052e9190612f1f565b60405180910390f35b34801561054357600080fd5b5061055e60048036038101906105599190613412565b611644565b60405161056b9190613030565b60405180910390f35b34801561058057600080fd5b5061059b60048036038101906105969190612fce565b611672565b005b3480156105a957600080fd5b506105c460048036038101906105bf9190613746565b611825565b6040516105d1919061372b565b60405180910390f35b3480156105e657600080fd5b5061060160048036038101906105fc91906137dd565b61183a565b005b34801561060f57600080fd5b5061062a60048036038101906106259190613084565b6118bd565b005b60007f4e2312e0000000000000000000000000000000000000000000000000000000007bffffffffffffffffffffffffffffffffffffffffffffffffffffffff1916827bffffffffffffffffffffffffffffffffffffffffffffffffffffffff1916148061069f575061069e826119dd565b5b9050919050565b6106b1838383611a47565b6000600360008573ffffffffffffffffffffffffffffffffffffffff1673ffffffffffffffffffffffffffffffffffffffff16815260200190815260200160002060008481526020019081526020016000206003016000838152602001908152602001600020905060008160000160006101000a81548160ff02191690831515021790555060008160010154905060008260000160019054906101000a900473ffffffffffffffffffffffffffffffffffffffff1690508073ffffffffffffffffffffffffffffffffffffffff166108fc839081150290604051600060405180830381858888f193505050501580156107ae573d6000803e3d6000fd5b508073ffffffffffffffffffffffffffffffffffffffff16858773ffffffffffffffffffffffffffffffffffffffff167f728d55bc695c93d61e4428fa1324993d6ae3da4efa718b13361fa0d70fd53eaf878660405161080f92919061380a565b60405180910390a4505050505050565b60025481565b61082d611cc8565b60648160ff161115610874576040517f08c379a000000000000000000000000000000000000000000000000000000000815260040161086b906138b6565b60405180910390fd5b60006108828260ff166119b3565b9050600160109054906101000a9004600f0b600f0b81600f0b036108db576040517f08c379a00000000000000000000000000000000000000000000000000000000081526004016108d290613948565b60405180910390fd5b80600160106101000a8154816fffffffffffffffffffffffffffffffff0219169083600f0b6fffffffffffffffffffffffffffffffff1602179055505050565b610923611cc8565b600060025411610968576040517f08c379a000000000000000000000000000000000000000000000000000000000815260040161095f906139da565b60405180910390fd5b60006002549050600060028190555061097f610fdc565b73ffffffffffffffffffffffffffffffffffffffff166108fc829081150290604051600060405180830381858888f193505050501580156109c4573d6000803e3d6000fd5b506109cd610fdc565b73ffffffffffffffffffffffffffffffffffffffff167f4a5596857f699aca8f90f020d443f83690ee93f5c4e147e3353a22c79da0506f82604051610a129190613030565b60405180910390a250565b600160009054906101000a9004600f0b81565b610a38612d8b565b6000600360008573ffffffffffffffffffffffffffffffffffffffff1673ffffffffffffffffffffffffffffffffffffffff1681526020019081526020016000206000848152602001908152602001600020905060405180608001604052808260000160009054906101000a900460ff1615158152602001826001015481526020018260020160009054906101000a900473ffffffffffffffffffffffffffffffffffffffff1673ffffffffffffffffffffffffffffffffffffffff168152602001826004015481525091505092915050565b6000600360008773ffffffffffffffffffffffffffffffffffffffff1673ffffffffffffffffffffffffffffffffffffffff1681526020019081526020016000206000868152602001908152602001600020905060008160030160008681526020019081526020016000209050610b83828286611d46565b6000610b93888888888887611fb8565b905085878973ffffffffffffffffffffffffffffffffffffffff167f26754258c853565574afb716245befc7213e9016fa1d4eef5cda7d8508acc15784604051610bdd9190613030565b60405180910390a45050505050505050565b610bf7612dcb565b600360008573ffffffffffffffffffffffffffffffffffffffff1673ffffffffffffffffffffffffffffffffffffffff168152602001908152602001600020600084815260200190815260200160002060030160008381526020019081526020016000206040518060a00160405290816000820160009054906101000a900460ff161515151581526020016000820160019054906101000a900473ffffffffffffffffffffffffffffffffffffffff1673ffffffffffffffffffffffffffffffffffffffff1673ffffffffffffffffffffffffffffffffffffffff168152602001600182015481526020016002820160009054906101000a900467ffffffffffffffff1667ffffffffffffffff1667ffffffffffffffff16815260200160038201548152505090509392505050565b610d2e611cc8565b610d3860006120f6565b565b6000600360008573ffffffffffffffffffffffffffffffffffffffff1673ffffffffffffffffffffffffffffffffffffffff16815260200190815260200160002060008481526020019081526020016000209050610d9881836121ba565b818160010181905550828473ffffffffffffffffffffffffffffffffffffffff167f8fc4ddb47ef20cd66b81525933f0644f462c23d7783cd012c20bc360d4458a5584604051610de89190613030565b60405180910390a350505050565b6000600360008573ffffffffffffffffffffffffffffffffffffffff1673ffffffffffffffffffffffffffffffffffffffff1681526020019081526020016000206000848152602001908152602001600020905060008160030160008481526020019081526020016000209050610f3082826040518060a00160405290816000820160009054906101000a900460ff161515151581526020016000820160019054906101000a900473ffffffffffffffffffffffffffffffffffffffff1673ffffffffffffffffffffffffffffffffffffffff1673ffffffffffffffffffffffffffffffffffffffff168152602001600182015481526020016002820160009054906101000a900467ffffffffffffffff1667ffffffffffffffff1667ffffffffffffffff168152602001600382015481525050856122e7565b60008260020160009054906101000a900473ffffffffffffffffffffffffffffffffffffffff16905060008260000160019054906101000a900473ffffffffffffffffffffffffffffffffffffffff16905060008360010154905060008560000160006101000a81548160ff02191690831515021790555060008460000160006101000a81548160ff021916908315150217905550610fd282848a8a856124c2565b5050505050505050565b60008060009054906101000a900473ffffffffffffffffffffffffffffffffffffffff16905090565b600160109054906101000a9004600f0b81565b600080600360008573ffffffffffffffffffffffffffffffffffffffff1673ffffffffffffffffffffffffffffffffffffffff1681526020019081526020016000206000848152602001908152602001600020905060008160010154905061109b81600160109054906101000a9004600f0b600f0b6125c990919063ffffffff16565b816110a69190613a29565b9250505092915050565b6110b8612e1c565b60006110c5858585610bef565b90506110d48160800151612683565b9150509392505050565b60003490506110ee848483612771565b600033905060006040518060a001604052806001151581526020018373ffffffffffffffffffffffffffffffffffffffff168152602001848152602001620151808661113a9190613a5d565b426111459190613a9a565b67ffffffffffffffff168152602001600081525090506000600360008873ffffffffffffffffffffffffffffffffffffffff1673ffffffffffffffffffffffffffffffffffffffff168152602001908152602001600020600087815260200190815260200160002090506000816004015490508282600301600083815260200190815260200160002060008201518160000160006101000a81548160ff02191690831515021790555060208201518160000160016101000a81548173ffffffffffffffffffffffffffffffffffffffff021916908373ffffffffffffffffffffffffffffffffffffffff1602179055506040820151816001015560608201518160020160006101000a81548167ffffffffffffffff021916908367ffffffffffffffff1602179055506080820151816003015590505060018260040160008282546112909190613ad6565b92505081905550868873ffffffffffffffffffffffffffffffffffffffff168573ffffffffffffffffffffffffffffffffffffffff167f6a7a64ee90bd2fcf9f942e947c6a521c6e27711befb22fa80f887ccb8a6f3fd0846040516112f59190613030565b60405180910390a45050505050505050565b6113108161280b565b600061131b826129cd565b9050600061132883612683565b9050600060036000836000015173ffffffffffffffffffffffffffffffffffffffff1673ffffffffffffffffffffffffffffffffffffffff168152602001908152602001600020600083602001518152602001908152602001600020905060008160020160009054906101000a900473ffffffffffffffffffffffffffffffffffffffff16905060008260000160006101000a81548160ff0219169083151502179055506113e93485604001516113df9190613ad6565b8460600151612a13565b6113f7818460600151612a79565b61140983600001518460200151612af6565b826000015173ffffffffffffffffffffffffffffffffffffffff168173ffffffffffffffffffffffffffffffffffffffff163373ffffffffffffffffffffffffffffffffffffffff167f1b81ea9818518fffa07ee623cfd9ce8af1900f3e0c918f2ca4fcfc9745cdc1658660200151876060015160405161148b92919061380a565b60405180910390a48073ffffffffffffffffffffffffffffffffffffffff16857f332175f2dcab833624be15496835f787a7b519737d4a85f212022ac3bcd030ad85606001516040516114de9190613030565b60405180910390a35050505050565b600063bc197c8160e01b905095945050505050565b6000600360008473ffffffffffffffffffffffffffffffffffffffff1673ffffffffffffffffffffffffffffffffffffffff1681526020019081526020016000206000838152602001908152602001600020905060008160020160009054906101000a900473ffffffffffffffffffffffffffffffffffffffff1690506000349050600083600101549050611598848383612b72565b60008460000160006101000a81548160ff0219169083151502179055506115bf8282612a13565b6115cc33848888856124c2565b505050505050565b600080600360008573ffffffffffffffffffffffffffffffffffffffff1673ffffffffffffffffffffffffffffffffffffffff168152602001908152602001600020600084815260200190815260200160002090508060000160009054906101000a900460ff1691505092915050565b600061166b82600160009054906101000a9004600f0b600f0b6125c990919063ffffffff16565b9050919050565b61167d838383612c0b565b600033905060008490508073ffffffffffffffffffffffffffffffffffffffff1663f242432a83308760016040518563ffffffff1660e01b81526004016116c79493929190613b41565b600060405180830381600087803b1580156116e157600080fd5b505af11580156116f5573d6000803e3d6000fd5b505050506000600360008773ffffffffffffffffffffffffffffffffffffffff1673ffffffffffffffffffffffffffffffffffffffff1681526020019081526020016000206000868152602001908152602001600020905060018160000160006101000a81548160ff021916908315150217905550838160010181905550828160020160006101000a81548173ffffffffffffffffffffffffffffffffffffffff021916908373ffffffffffffffffffffffffffffffffffffffff1602179055508573ffffffffffffffffffffffffffffffffffffffff168373ffffffffffffffffffffffffffffffffffffffff167fbeab3a2bb824b124a8a1eb465eec003338d61b414db132d37e9b3a984fdcf010878760405161181592919061380a565b60405180910390a3505050505050565b600063f23a6e6160e01b905095945050505050565b611842611cc8565b600073ffffffffffffffffffffffffffffffffffffffff168173ffffffffffffffffffffffffffffffffffffffff16036118b1576040517f08c379a00000000000000000000000000000000000000000000000000000000081526004016118a890613c0b565b60405180910390fd5b6118ba816120f6565b50565b6118c5611cc8565b60648160ff16111561190c576040517f08c379a0000000000000000000000000000000000000000000000000000000008152600401611903906138b6565b60405180910390fd5b600061191a8260ff166119b3565b905080600f0b600160009054906101000a9004600f0b600f0b03611973576040517f08c379a000000000000000000000000000000000000000000000000000000000815260040161196a90613948565b60405180910390fd5b80600160006101000a8154816fffffffffffffffffffffffffffffffff0219169083600f0b6fffffffffffffffffffffffffffffffff1602179055505050565b6000606468010000000000000000836119cc9190613c2b565b6119d69190613c97565b9050919050565b60007f01ffc9a7000000000000000000000000000000000000000000000000000000007bffffffffffffffffffffffffffffffffffffffffffffffffffffffff1916827bffffffffffffffffffffffffffffffffffffffffffffffffffffffff1916149050919050565b6000600360008573ffffffffffffffffffffffffffffffffffffffff1673ffffffffffffffffffffffffffffffffffffffff1681526020019081526020016000206000848152602001908152602001600020905081816004015411611ae1576040517f08c379a0000000000000000000000000000000000000000000000000000000008152600401611ad890613d4d565b60405180910390fd5b6000600360008673ffffffffffffffffffffffffffffffffffffffff1673ffffffffffffffffffffffffffffffffffffffff168152602001908152602001600020600085815260200190815260200160002060030160008481526020019081526020016000206040518060a00160405290816000820160009054906101000a900460ff161515151581526020016000820160019054906101000a900473ffffffffffffffffffffffffffffffffffffffff1673ffffffffffffffffffffffffffffffffffffffff1673ffffffffffffffffffffffffffffffffffffffff168152602001600182015481526020016002820160009054906101000a900467ffffffffffffffff1667ffffffffffffffff1667ffffffffffffffff1681526020016003820154815250509050806020015173ffffffffffffffffffffffffffffffffffffffff163373ffffffffffffffffffffffffffffffffffffffff1614611c7d576040517f08c379a0000000000000000000000000000000000000000000000000000000008152600401611c7490613db9565b60405180910390fd5b8060000151611cc1576040517f08c379a0000000000000000000000000000000000000000000000000000000008152600401611cb890613e4b565b60405180910390fd5b5050505050565b611cd0612ce6565b73ffffffffffffffffffffffffffffffffffffffff16611cee610fdc565b73ffffffffffffffffffffffffffffffffffffffff1614611d44576040517f08c379a0000000000000000000000000000000000000000000000000000000008152600401611d3b90613eb7565b60405180910390fd5b565b8260000160009054906101000a900460ff16611d97576040517f08c379a0000000000000000000000000000000000000000000000000000000008152600401611d8e90613f23565b60405180910390fd5b8160000160009054906101000a900460ff16611de8576040517f08c379a0000000000000000000000000000000000000000000000000000000008152600401611ddf90613d4d565b60405180910390fd5b81600101548111611e2e576040517f08c379a0000000000000000000000000000000000000000000000000000000008152600401611e2590613fb5565b60405180910390fd5b82600101548110611e74576040517f08c379a0000000000000000000000000000000000000000000000000000000008152600401611e6b90614047565b60405180910390fd5b428260020160009054906101000a900467ffffffffffffffff1667ffffffffffffffff161015611ed9576040517f08c379a0000000000000000000000000000000000000000000000000000000008152600401611ed0906140b3565b60405180910390fd5b8260020160009054906101000a900473ffffffffffffffffffffffffffffffffffffffff1673ffffffffffffffffffffffffffffffffffffffff163373ffffffffffffffffffffffffffffffffffffffff1614611f6b576040517f08c379a0000000000000000000000000000000000000000000000000000000008152600401611f6290614145565b60405180910390fd5b611f7482612cee565b611fb3576040517f08c379a0000000000000000000000000000000000000000000000000000000008152600401611faa906141d7565b60405180910390fd5b505050565b600060046040518060a001604052808973ffffffffffffffffffffffffffffffffffffffff16815260200188815260200187815260200186815260200162015180866120049190613a5d565b4261200f9190613a9a565b67ffffffffffffffff16815250908060018154018082558091505060019003906000526020600020906005020160009091909190915060008201518160000160006101000a81548173ffffffffffffffffffffffffffffffffffffffff021916908373ffffffffffffffffffffffffffffffffffffffff16021790555060208201518160010155604082015181600201556060820151816003015560808201518160040160006101000a81548167ffffffffffffffff021916908367ffffffffffffffff160217905550505060048054905090508082600301819055509695505050505050565b60008060009054906101000a900473ffffffffffffffffffffffffffffffffffffffff169050816000806101000a81548173ffffffffffffffffffffffffffffffffffffffff021916908373ffffffffffffffffffffffffffffffffffffffff1602179055508173ffffffffffffffffffffffffffffffffffffffff168173ffffffffffffffffffffffffffffffffffffffff167f8be0079c531659141344cd1fd0a4f28419497f9722a3daafe3b4186f6b6457e060405160405180910390a35050565b8160000160009054906101000a900460ff1661220b576040517f08c379a000000000000000000000000000000000000000000000000000000000815260040161220290613f23565b60405180910390fd5b8160020160009054906101000a900473ffffffffffffffffffffffffffffffffffffffff1673ffffffffffffffffffffffffffffffffffffffff163373ffffffffffffffffffffffffffffffffffffffff161461229d576040517f08c379a000000000000000000000000000000000000000000000000000000000815260040161229490614145565b60405180910390fd5b816001015481036122e3576040517f08c379a00000000000000000000000000000000000000000000000000000000081526004016122da90614269565b60405180910390fd5b5050565b60008360020160009054906101000a900473ffffffffffffffffffffffffffffffffffffffff16905060008460000160009054906101000a900460ff1690506000856004015490506000856060015190508373ffffffffffffffffffffffffffffffffffffffff163373ffffffffffffffffffffffffffffffffffffffff16146123a6576040517f08c379a000000000000000000000000000000000000000000000000000000000815260040161239d906142fb565b60405180910390fd5b826123e6576040517f08c379a00000000000000000000000000000000000000000000000000000000081526004016123dd90614367565b60405180910390fd5b848211612428576040517f08c379a000000000000000000000000000000000000000000000000000000000815260040161241f906143d3565b60405180910390fd5b856000015161246c576040517f08c379a00000000000000000000000000000000000000000000000000000000081526004016124639061443f565b60405180910390fd5b428167ffffffffffffffff1610156124b9576040517f08c379a00000000000000000000000000000000000000000000000000000000081526004016124b0906140b3565b60405180910390fd5b50505050505050565b6124cc8482612a79565b60008390508073ffffffffffffffffffffffffffffffffffffffff1663f242432a30888660016040518563ffffffff1660e01b81526004016125119493929190613b41565b600060405180830381600087803b15801561252b57600080fd5b505af115801561253f573d6000803e3d6000fd5b505050508373ffffffffffffffffffffffffffffffffffffffff168573ffffffffffffffffffffffffffffffffffffffff168773ffffffffffffffffffffffffffffffffffffffff167f1b81ea9818518fffa07ee623cfd9ce8af1900f3e0c918f2ca4fcfc9745cdc16586866040516125b992919061380a565b60405180910390a4505050505050565b60008082036125db576000905061267d565b600083600f0b12156125ec57600080fd5b600060406fffffffffffffffffffffffffffffffff841685600f0b02901c90506000608084901c85600f0b02905077ffffffffffffffffffffffffffffffffffffffffffffffff81111561263f57600080fd5b604081901b9050817fffffffffffffffffffffffffffffffffffffffffffffffffffffffffffffffff0381111561267557600080fd5b818101925050505b92915050565b61268b612e1c565b600460018361269a9190613a29565b815481106126ab576126aa61445f565b5b90600052602060002090600502016040518060a00160405290816000820160009054906101000a900473ffffffffffffffffffffffffffffffffffffffff1673ffffffffffffffffffffffffffffffffffffffff1673ffffffffffffffffffffffffffffffffffffffff1681526020016001820154815260200160028201548152602001600382015481526020016004820160009054906101000a900467ffffffffffffffff1667ffffffffffffffff1667ffffffffffffffff16815250509050919050565b61277b8383611018565b8110156127bd576040517f08c379a00000000000000000000000000000000000000000000000000000000081526004016127b49061454c565b60405180910390fd5b6127c783836115d4565b612806576040517f08c379a00000000000000000000000000000000000000000000000000000000081526004016127fd90613f23565b60405180910390fd5b505050565b6000811161284e576040517f08c379a0000000000000000000000000000000000000000000000000000000008152600401612845906145de565b60405180910390fd5b600480549050811115612896576040517f08c379a000000000000000000000000000000000000000000000000000000000815260040161288d906145de565b60405180910390fd5b60006128a1826129cd565b90503373ffffffffffffffffffffffffffffffffffffffff16816020015173ffffffffffffffffffffffffffffffffffffffff1614612915576040517f08c379a000000000000000000000000000000000000000000000000000000000815260040161290c90614670565b60405180910390fd5b600061292083612683565b905042816080015167ffffffffffffffff1611612972576040517f08c379a000000000000000000000000000000000000000000000000000000000815260040161296990614702565b60405180910390fd5b80606001513483604001516129879190613ad6565b10156129c8576040517f08c379a00000000000000000000000000000000000000000000000000000000081526004016129bf9061476e565b60405180910390fd5b505050565b6129d5612dcb565b60006129e083612683565b9050600081600001519050600082602001519050600083604001519050612a08838383610bef565b945050505050919050565b60008183612a219190613a29565b90506000811115612a74573373ffffffffffffffffffffffffffffffffffffffff166108fc829081150290604051600060405180830381858888f19350505050158015612a72573d6000803e3d6000fd5b505b505050565b6000612a8482611644565b90508060026000828254612a989190613ad6565b925050819055508273ffffffffffffffffffffffffffffffffffffffff166108fc8284612ac59190613a29565b9081150290604051600060405180830381858888f19350505050158015612af0573d6000803e3d6000fd5b50505050565b60008290508073ffffffffffffffffffffffffffffffffffffffff1663f242432a30338560016040518563ffffffff1660e01b8152600401612b3b9493929190613b41565b600060405180830381600087803b158015612b5557600080fd5b505af1158015612b69573d6000803e3d6000fd5b50505050505050565b8260000160009054906101000a900460ff16612bc3576040517f08c379a0000000000000000000000000000000000000000000000000000000008152600401612bba90613f23565b60405180910390fd5b80821015612c06576040517f08c379a0000000000000000000000000000000000000000000000000000000008152600401612bfd90614800565b60405180910390fd5b505050565b612c1583836115d4565b15612c55576040517f08c379a0000000000000000000000000000000000000000000000000000000008152600401612c4c9061486c565b60405180910390fd5b612c5f8383612cfe565b612c9e576040517f08c379a0000000000000000000000000000000000000000000000000000000008152600401612c95906148fe565b60405180910390fd5b60008111612ce1576040517f08c379a0000000000000000000000000000000000000000000000000000000008152600401612cd890614990565b60405180910390fd5b505050565b600033905090565b6000808260030154149050919050565b60008083905060008173ffffffffffffffffffffffffffffffffffffffff1662fdd58e33866040518363ffffffff1660e01b8152600401612d409291906149b0565b602060405180830381865afa158015612d5d573d6000803e3d6000fd5b505050506040513d601f19601f82011682018060405250810190612d8191906149ee565b1191505092915050565b604051806080016040528060001515815260200160008152602001600073ffffffffffffffffffffffffffffffffffffffff168152602001600081525090565b6040518060a00160405280600015158152602001600073ffffffffffffffffffffffffffffffffffffffff16815260200160008152602001600067ffffffffffffffff168152602001600081525090565b6040518060a00160405280600073ffffffffffffffffffffffffffffffffffffffff168152602001600081526020016000815260200160008152602001600067ffffffffffffffff1681525090565b6000604051905090565b600080fd5b600080fd5b60007fffffffff0000000000000000000000000000000000000000000000000000000082169050919050565b612eb481612e7f565b8114612ebf57600080fd5b50565b600081359050612ed181612eab565b92915050565b600060208284031215612eed57612eec612e75565b5b6000612efb84828501612ec2565b91505092915050565b60008115159050919050565b612f1981612f04565b82525050565b6000602082019050612f346000830184612f10565b92915050565b600073ffffffffffffffffffffffffffffffffffffffff82169050919050565b6000612f6582612f3a565b9050919050565b612f7581612f5a565b8114612f8057600080fd5b50565b600081359050612f9281612f6c565b92915050565b6000819050919050565b612fab81612f98565b8114612fb657600080fd5b50565b600081359050612fc881612fa2565b92915050565b600080600060608486031215612fe757612fe6612e75565b5b6000612ff586828701612f83565b935050602061300686828701612fb9565b925050604061301786828701612fb9565b9150509250925092565b61302a81612f98565b82525050565b60006020820190506130456000830184613021565b92915050565b600060ff82169050919050565b6130618161304b565b811461306c57600080fd5b50565b60008135905061307e81613058565b92915050565b60006020828403121561309a57613099612e75565b5b60006130a88482850161306f565b91505092915050565b600081600f0b9050919050565b6130c7816130b1565b82525050565b60006020820190506130e260008301846130be565b92915050565b600080604083850312156130ff576130fe612e75565b5b600061310d85828601612f83565b925050602061311e85828601612fb9565b9150509250929050565b61313181612f04565b82525050565b61314081612f98565b82525050565b61314f81612f5a565b82525050565b60808201600082015161316b6000850182613128565b50602082015161317e6020850182613137565b5060408201516131916040850182613146565b5060608201516131a46060850182613137565b50505050565b60006080820190506131bf6000830184613155565b92915050565b600067ffffffffffffffff82169050919050565b6131e2816131c5565b81146131ed57600080fd5b50565b6000813590506131ff816131d9565b92915050565b600080600080600060a0868803121561322157613220612e75565b5b600061322f88828901612f83565b955050602061324088828901612fb9565b945050604061325188828901612fb9565b935050606061326288828901612fb9565b9250506080613273888289016131f0565b9150509295509295909350565b613289816131c5565b82525050565b60a0820160008201516132a56000850182613128565b5060208201516132b86020850182613146565b5060408201516132cb6040850182613137565b5060608201516132de6060850182613280565b5060808201516132f16080850182613137565b50505050565b600060a08201905061330c600083018461328f565b92915050565b61331b81612f5a565b82525050565b60006020820190506133366000830184613312565b92915050565b60a0820160008201516133526000850182613146565b5060208201516133656020850182613137565b5060408201516133786040850182613137565b50606082015161338b6060850182613137565b50608082015161339e6080850182613280565b50505050565b600060a0820190506133b9600083018461333c565b92915050565b6000806000606084860312156133d8576133d7612e75565b5b60006133e686828701612f83565b93505060206133f786828701612fb9565b9250506040613408868287016131f0565b9150509250925092565b60006020828403121561342857613427612e75565b5b600061343684828501612fb9565b91505092915050565b600080fd5b6000601f19601f8301169050919050565b7f4e487b7100000000000000000000000000000000000000000000000000000000600052604160045260246000fd5b61348d82613444565b810181811067ffffffffffffffff821117156134ac576134ab613455565b5b80604052505050565b60006134bf612e6b565b90506134cb8282613484565b919050565b600067ffffffffffffffff8211156134eb576134ea613455565b5b602082029050602081019050919050565b600080fd5b600061351461350f846134d0565b6134b5565b90508083825260208201905060208402830185811115613537576135366134fc565b5b835b81811015613560578061354c8882612fb9565b845260208401935050602081019050613539565b5050509392505050565b600082601f83011261357f5761357e61343f565b5b813561358f848260208601613501565b91505092915050565b600080fd5b600067ffffffffffffffff8211156135b8576135b7613455565b5b6135c182613444565b9050602081019050919050565b82818337600083830152505050565b60006135f06135eb8461359d565b6134b5565b90508281526020810184848401111561360c5761360b613598565b5b6136178482856135ce565b509392505050565b600082601f8301126136345761363361343f565b5b81356136448482602086016135dd565b91505092915050565b600080600080600060a0868803121561366957613668612e75565b5b600061367788828901612f83565b955050602061368888828901612f83565b945050604086013567ffffffffffffffff8111156136a9576136a8612e7a565b5b6136b58882890161356a565b935050606086013567ffffffffffffffff8111156136d6576136d5612e7a565b5b6136e28882890161356a565b925050608086013567ffffffffffffffff81111561370357613702612e7a565b5b61370f8882890161361f565b9150509295509295909350565b61372581612e7f565b82525050565b6000602082019050613740600083018461371c565b92915050565b600080600080600060a0868803121561376257613761612e75565b5b600061377088828901612f83565b955050602061378188828901612f83565b945050604061379288828901612fb9565b93505060606137a388828901612fb9565b925050608086013567ffffffffffffffff8111156137c4576137c3612e7a565b5b6137d08882890161361f565b9150509295509295909350565b6000602082840312156137f3576137f2612e75565b5b600061380184828501612f83565b91505092915050565b600060408201905061381f6000830185613021565b61382c6020830184613021565b9392505050565b600082825260208201905092915050565b7f4d61726b6574706c6163653a2050657263656e74616765206d7573742062652060008201527f6c657373206f7220657175616c207468616e2031303000000000000000000000602082015250565b60006138a0603683613833565b91506138ab82613844565b604082019050919050565b600060208201905081810360008301526138cf81613893565b9050919050565b7f4d61726b6574706c6163653a204e65772070657263656e74616765206973207460008201527f68652073616d65206173207468652063757272656e74206f6e65000000000000602082015250565b6000613932603a83613833565b915061393d826138d6565b604082019050919050565b6000602082019050818103600083015261396181613925565b9050919050565b7f4d61726b6574706c6163653a204e6f7468696e6720746f20776974686472617760008201527f2e00000000000000000000000000000000000000000000000000000000000000602082015250565b60006139c4602183613833565b91506139cf82613968565b604082019050919050565b600060208201905081810360008301526139f3816139b7565b9050919050565b7f4e487b7100000000000000000000000000000000000000000000000000000000600052601160045260246000fd5b6000613a3482612f98565b9150613a3f83612f98565b9250828203905081811115613a5757613a566139fa565b5b92915050565b6000613a68826131c5565b9150613a73836131c5565b9250828202613a81816131c5565b9150808214613a9357613a926139fa565b5b5092915050565b6000613aa5826131c5565b9150613ab0836131c5565b9250828201905067ffffffffffffffff811115613ad057613acf6139fa565b5b92915050565b6000613ae182612f98565b9150613aec83612f98565b9250828201905080821115613b0457613b036139fa565b5b92915050565b600082825260208201905092915050565b50565b6000613b2b600083613b0a565b9150613b3682613b1b565b600082019050919050565b600060a082019050613b566000830187613312565b613b636020830186613312565b613b706040830185613021565b613b7d6060830184613021565b8181036080830152613b8e81613b1e565b905095945050505050565b7f4f776e61626c653a206e6577206f776e657220697320746865207a65726f206160008201527f6464726573730000000000000000000000000000000000000000000000000000602082015250565b6000613bf5602683613833565b9150613c0082613b99565b604082019050919050565b60006020820190508181036000830152613c2481613be8565b9050919050565b6000613c36826130b1565b9150613c41836130b1565b9250828202613c4f816130b1565b9150808214613c6157613c606139fa565b5b5092915050565b7f4e487b7100000000000000000000000000000000000000000000000000000000600052601260045260246000fd5b6000613ca2826130b1565b9150613cad836130b1565b925082613cbd57613cbc613c68565b5b600160000383147fffffffffffffffffffffffffffffffff8000000000000000000000000000000083141615613cf657613cf56139fa565b5b828205905092915050565b7f4d61726b6574706c6163653a204f66666572206e6f7420666f756e6400000000600082015250565b6000613d37601c83613833565b9150613d4282613d01565b602082019050919050565b60006020820190508181036000830152613d6681613d2a565b9050919050565b7f4d61726b6574706c6163653a2057726f6e672042757965720000000000000000600082015250565b6000613da3601883613833565b9150613dae82613d6d565b602082019050919050565b60006020820190508181036000830152613dd281613d96565b9050919050565b7f4d61726b6574706c6163653a204f6666657220616c726561647920776173206360008201527f616e63656c6c6564000000000000000000000000000000000000000000000000602082015250565b6000613e35602883613833565b9150613e4082613dd9565b604082019050919050565b60006020820190508181036000830152613e6481613e28565b9050919050565b7f4f776e61626c653a2063616c6c6572206973206e6f7420746865206f776e6572600082015250565b6000613ea1602083613833565b9150613eac82613e6b565b602082019050919050565b60006020820190508181036000830152613ed081613e94565b9050919050565b7f4d61726b6574706c6163653a204e4654206e6f74206c69737465640000000000600082015250565b6000613f0d601b83613833565b9150613f1882613ed7565b602082019050919050565b60006020820190508181036000830152613f3c81613f00565b9050919050565b7f4d61726b6574706c6163653a205072696365206d75737420626520677265617460008201527f6572207468616e206f6666657200000000000000000000000000000000000000602082015250565b6000613f9f602d83613833565b9150613faa82613f43565b604082019050919050565b60006020820190508181036000830152613fce81613f92565b9050919050565b7f4d61726b6574706c6163653a205072696365206d757374206265206c6573732060008201527f7468616e204e4654207072696365000000000000000000000000000000000000602082015250565b6000614031602e83613833565b915061403c82613fd5565b604082019050919050565b6000602082019050818103600083015261406081614024565b9050919050565b7f4d61726b6574706c6163653a204f666665722065787069726564000000000000600082015250565b600061409d601a83613833565b91506140a882614067565b602082019050919050565b600060208201905081810360008301526140cc81614090565b9050919050565b7f4d61726b6574706c6163653a20596f75206172656e27742073656c6c696e672060008201527f746865204e465400000000000000000000000000000000000000000000000000602082015250565b600061412f602783613833565b915061413a826140d3565b604082019050919050565b6000602082019050818103600083015261415e81614122565b9050919050565b7f4d61726b6574706c6163653a20436f756e7465726f6666657220616c7265616460008201527f7920657869737473000000000000000000000000000000000000000000000000602082015250565b60006141c1602883613833565b91506141cc82614165565b604082019050919050565b600060208201905081810360008301526141f0816141b4565b9050919050565b7f4d61726b6574706c6163653a204e65772070726963652069732074686520736160008201527f6d652061732063757272656e7420707269636500000000000000000000000000602082015250565b6000614253603383613833565b915061425e826141f7565b604082019050919050565b6000602082019050818103600083015261428281614246565b9050919050565b7f4d61726b6574706c6163653a2053656e6465722073686f756c6420626520746860008201527f652073656c6c6572000000000000000000000000000000000000000000000000602082015250565b60006142e5602883613833565b91506142f082614289565b604082019050919050565b60006020820190508181036000830152614314816142d8565b9050919050565b7f4d61726b6574706c6163653a204e4654206e6f7420666f756e64000000000000600082015250565b6000614351601a83613833565b915061435c8261431b565b602082019050919050565b6000602082019050818103600083015261438081614344565b9050919050565b7f4d61726b6574706c6163653a204f6666657220646f65736e2774206578697374600082015250565b60006143bd602083613833565b91506143c882614387565b602082019050919050565b600060208201905081810360008301526143ec816143b0565b9050919050565b7f4d61726b6574706c6163653a204f666665722077617320757365640000000000600082015250565b6000614429601b83613833565b9150614434826143f3565b602082019050919050565b600060208201905081810360008301526144588161441c565b9050919050565b7f4e487b7100000000000000000000000000000000000000000000000000000000600052603260045260246000fd5b7f4d61726b6574706c6163653a205072696365206d75737420626520677265617460008201527f6572206f7220657175616c207468616e20746865206d696e696d756d206f666660208201527f657220707269636520666f722074686174204e4654202863616c6c206d696e5060408201527f726963654f666665722829290000000000000000000000000000000000000000606082015250565b6000614536606c83613833565b91506145418261448e565b608082019050919050565b6000602082019050818103600083015261456581614529565b9050919050565b7f4d61726b6574706c6163653a20436f756e7465726f66666572206e6f7420666f60008201527f756e640000000000000000000000000000000000000000000000000000000000602082015250565b60006145c8602383613833565b91506145d38261456c565b604082019050919050565b600060208201905081810360008301526145f7816145bb565b9050919050565b7f4d61726b6574706c6163653a20596f75206469646e2774206d616b652074686560008201527f206f666665720000000000000000000000000000000000000000000000000000602082015250565b600061465a602683613833565b9150614665826145fe565b604082019050919050565b600060208201905081810360008301526146898161464d565b9050919050565b7f4d61726b6574706c6163653a20436f756e7465726f666665722065787069726560008201527f6400000000000000000000000000000000000000000000000000000000000000602082015250565b60006146ec602183613833565b91506146f782614690565b604082019050919050565b6000602082019050818103600083015261471b816146df565b9050919050565b7f4d61726b6574706c6163653a20496e73756666696369656e742066756e647300600082015250565b6000614758601f83613833565b915061476382614722565b602082019050919050565b600060208201905081810360008301526147878161474b565b9050919050565b7f4d61726b6574706c6163653a2053656e7420616d6f756e74206e6f7420656e6f60008201527f7567680000000000000000000000000000000000000000000000000000000000602082015250565b60006147ea602383613833565b91506147f58261478e565b604082019050919050565b60006020820190508181036000830152614819816147dd565b9050919050565b7f4d61726b6574706c6163653a204e465420616c7265616479206c697374656400600082015250565b6000614856601f83613833565b915061486182614820565b602082019050919050565b6000602082019050818103600083015261488581614849565b9050919050565b7f4d61726b6574706c6163653a20596f7520646f6e2774206f776e20746865204e60008201527f4654000000000000000000000000000000000000000000000000000000000000602082015250565b60006148e8602283613833565b91506148f38261488c565b604082019050919050565b60006020820190508181036000830152614917816148db565b9050919050565b7f4d61726b6574706c6163653a205072696365206d75737420626520677265617460008201527f6572207468616e20300000000000000000000000000000000000000000000000602082015250565b600061497a602983613833565b91506149858261491e565b604082019050919050565b600060208201905081810360008301526149a98161496d565b9050919050565b60006040820190506149c56000830185613312565b6149d26020830184613021565b9392505050565b6000815190506149e881612fa2565b92915050565b600060208284031215614a0457614a03612e75565b5b6000614a12848285016149d9565b9150509291505056fea2646970667358221220bf9c2284a37a1f4847f77d3743f495cec5a7b850dbc1f7cfb8efef6dffcb9b4064736f6c63430008120033",
  "devdoc": {
    "kind": "dev",
    "methods": {
      "owner()": {
        "details": "Returns the address of the current owner."
      },
      "renounceOwnership()": {
        "details": "Leaves the contract without owner. It will not be possible to call `onlyOwner` functions anymore. Can only be called by the current owner. NOTE: Renouncing ownership will leave the contract without an owner, thereby removing any functionality that is only available to the owner."
      },
      "supportsInterface(bytes4)": {
        "details": "See {IERC165-supportsInterface}."
      },
      "transferOwnership(address)": {
        "details": "Transfers ownership of the contract to a new account (`newOwner`). Can only be called by the current owner."
      }
    },
    "version": 1
  },
  "userdoc": {
    "kind": "user",
    "methods": {},
    "version": 1
  },
  "storageLayout": {
    "storage": [
      {
        "astId": 7,
        "contract": "contracts/Marketplace.sol:Marketplace",
        "label": "_owner",
        "offset": 0,
        "slot": "0",
        "type": "t_address"
      },
      {
        "astId": 2293,
        "contract": "contracts/Marketplace.sol:Marketplace",
        "label": "feeRatio",
        "offset": 0,
        "slot": "1",
        "type": "t_int128"
      },
      {
        "astId": 2302,
        "contract": "contracts/Marketplace.sol:Marketplace",
        "label": "floorRatio",
        "offset": 16,
        "slot": "1",
        "type": "t_int128"
      },
      {
        "astId": 2320,
        "contract": "contracts/Marketplace.sol:Marketplace",
        "label": "fusyBenefitsAccumulated",
        "offset": 0,
        "slot": "2",
        "type": "t_uint256"
      },
      {
        "astId": 2327,
        "contract": "contracts/Marketplace.sol:Marketplace",
        "label": "nftsListed",
        "offset": 0,
        "slot": "3",
        "type": "t_mapping(t_address,t_mapping(t_uint256,t_struct(NFTForSale)2284_storage))"
      },
      {
        "astId": 2331,
        "contract": "contracts/Marketplace.sol:Marketplace",
        "label": "counteroffers",
        "offset": 0,
        "slot": "4",
        "type": "t_array(t_struct(Counteroffer)2127_storage)dyn_storage"
      }
    ],
    "types": {
      "t_address": {
        "encoding": "inplace",
        "label": "address",
        "numberOfBytes": "20"
      },
      "t_array(t_struct(Counteroffer)2127_storage)dyn_storage": {
        "base": "t_struct(Counteroffer)2127_storage",
        "encoding": "dynamic_array",
        "label": "struct IMarketplace.Counteroffer[]",
        "numberOfBytes": "32"
      },
      "t_bool": {
        "encoding": "inplace",
        "label": "bool",
        "numberOfBytes": "1"
      },
      "t_int128": {
        "encoding": "inplace",
        "label": "int128",
        "numberOfBytes": "16"
      },
      "t_mapping(t_address,t_mapping(t_uint256,t_struct(NFTForSale)2284_storage))": {
        "encoding": "mapping",
        "key": "t_address",
        "label": "mapping(address => mapping(uint256 => struct Marketplace.NFTForSale))",
        "numberOfBytes": "32",
        "value": "t_mapping(t_uint256,t_struct(NFTForSale)2284_storage)"
      },
      "t_mapping(t_uint256,t_struct(NFTForSale)2284_storage)": {
        "encoding": "mapping",
        "key": "t_uint256",
        "label": "mapping(uint256 => struct Marketplace.NFTForSale)",
        "numberOfBytes": "32",
        "value": "t_struct(NFTForSale)2284_storage"
      },
      "t_mapping(t_uint256,t_struct(Offer)2073_storage)": {
        "encoding": "mapping",
        "key": "t_uint256",
        "label": "mapping(uint256 => struct IMarketplace.Offer)",
        "numberOfBytes": "32",
        "value": "t_struct(Offer)2073_storage"
      },
      "t_struct(Counteroffer)2127_storage": {
        "encoding": "inplace",
        "label": "struct IMarketplace.Counteroffer",
        "members": [
          {
            "astId": 2118,
            "contract": "contracts/Marketplace.sol:Marketplace",
            "label": "collection",
            "offset": 0,
            "slot": "0",
            "type": "t_address"
          },
          {
            "astId": 2120,
            "contract": "contracts/Marketplace.sol:Marketplace",
            "label": "nftId",
            "offset": 0,
            "slot": "1",
            "type": "t_uint256"
          },
          {
            "astId": 2122,
            "contract": "contracts/Marketplace.sol:Marketplace",
            "label": "offerId",
            "offset": 0,
            "slot": "2",
            "type": "t_uint256"
          },
          {
            "astId": 2124,
            "contract": "contracts/Marketplace.sol:Marketplace",
            "label": "price",
            "offset": 0,
            "slot": "3",
            "type": "t_uint256"
          },
          {
            "astId": 2126,
            "contract": "contracts/Marketplace.sol:Marketplace",
            "label": "expirationDate",
            "offset": 0,
            "slot": "4",
            "type": "t_uint64"
          }
        ],
        "numberOfBytes": "160"
      },
      "t_struct(NFTForSale)2284_storage": {
        "encoding": "inplace",
        "label": "struct Marketplace.NFTForSale",
        "members": [
          {
            "astId": 2272,
            "contract": "contracts/Marketplace.sol:Marketplace",
            "label": "listed",
            "offset": 0,
            "slot": "0",
            "type": "t_bool"
          },
          {
            "astId": 2274,
            "contract": "contracts/Marketplace.sol:Marketplace",
            "label": "price",
            "offset": 0,
            "slot": "1",
            "type": "t_uint256"
          },
          {
            "astId": 2276,
            "contract": "contracts/Marketplace.sol:Marketplace",
            "label": "seller",
            "offset": 0,
            "slot": "2",
            "type": "t_address"
          },
          {
            "astId": 2281,
            "contract": "contracts/Marketplace.sol:Marketplace",
            "label": "offers",
            "offset": 0,
            "slot": "3",
            "type": "t_mapping(t_uint256,t_struct(Offer)2073_storage)"
          },
          {
            "astId": 2283,
            "contract": "contracts/Marketplace.sol:Marketplace",
            "label": "totalOffers",
            "offset": 0,
            "slot": "4",
            "type": "t_uint256"
          }
        ],
        "numberOfBytes": "160"
      },
      "t_struct(Offer)2073_storage": {
        "encoding": "inplace",
        "label": "struct IMarketplace.Offer",
        "members": [
          {
            "astId": 2064,
            "contract": "contracts/Marketplace.sol:Marketplace",
            "label": "isInitialized",
            "offset": 0,
            "slot": "0",
            "type": "t_bool"
          },
          {
            "astId": 2066,
            "contract": "contracts/Marketplace.sol:Marketplace",
            "label": "buyer",
            "offset": 1,
            "slot": "0",
            "type": "t_address"
          },
          {
            "astId": 2068,
            "contract": "contracts/Marketplace.sol:Marketplace",
            "label": "price",
            "offset": 0,
            "slot": "1",
            "type": "t_uint256"
          },
          {
            "astId": 2070,
            "contract": "contracts/Marketplace.sol:Marketplace",
            "label": "expirationDate",
            "offset": 0,
            "slot": "2",
            "type": "t_uint64"
          },
          {
            "astId": 2072,
            "contract": "contracts/Marketplace.sol:Marketplace",
            "label": "counterofferId",
            "offset": 0,
            "slot": "3",
            "type": "t_uint256"
          }
        ],
        "numberOfBytes": "128"
      },
      "t_uint256": {
        "encoding": "inplace",
        "label": "uint256",
        "numberOfBytes": "32"
      },
      "t_uint64": {
        "encoding": "inplace",
        "label": "uint64",
        "numberOfBytes": "8"
      }
    }
  }
}