{
  "address": "0xEb257B3b3f1fFcc3497C0324d0608335347e63e6",
  "abi": [
    {
      "inputs": [
        {
          "internalType": "uint256",
          "name": "ethReceived",
          "type": "uint256"
        },
        {
          "internalType": "uint256",
          "name": "minValueToSend",
          "type": "uint256"
        }
      ],
      "name": "IMsgValuePaymentMarketplace__InsufficientEthReceived",
      "type": "error"
    },
    {
      "anonymous": false,
      "inputs": [
        {
          "indexed": true,
          "internalType": "address",
          "name": "collection",
          "type": "address"
        },
        {
          "indexed": true,
          "internalType": "uint256",
          "name": "tokenId",
          "type": "uint256"
        },
        {
          "indexed": false,
          "internalType": "uint256",
          "name": "indexOfOfferMapping",
          "type": "uint256"
        },
        {
          "indexed": false,
          "internalType": "uint256",
          "name": "priceOffer",
          "type": "uint256"
        },
        {
          "indexed": true,
          "internalType": "address",
          "name": "buyer",
          "type": "address"
        }
      ],
      "name": "CancelledOffer",
      "type": "event"
    },
    {
      "anonymous": false,
      "inputs": [
        {
          "indexed": true,
          "internalType": "address",
          "name": "collection",
          "type": "address"
        },
        {
          "indexed": true,
          "internalType": "uint256",
          "name": "nftId",
          "type": "uint256"
        },
        {
          "indexed": true,
          "internalType": "uint256",
          "name": "offerId",
          "type": "uint256"
        },
        {
          "indexed": false,
          "internalType": "uint256",
          "name": "counterofferId",
          "type": "uint256"
        }
      ],
      "name": "CounterofferMade",
      "type": "event"
    },
    {
      "anonymous": false,
      "inputs": [
        {
          "indexed": true,
          "internalType": "uint256",
          "name": "id",
          "type": "uint256"
        },
        {
          "indexed": false,
          "internalType": "uint256",
          "name": "price",
          "type": "uint256"
        },
        {
          "indexed": true,
          "internalType": "address",
          "name": "seller",
          "type": "address"
        }
      ],
      "name": "CounterofferTaken",
      "type": "event"
    },
    {
      "anonymous": false,
      "inputs": [
        {
          "indexed": true,
          "internalType": "address",
          "name": "seller",
          "type": "address"
        },
        {
          "indexed": true,
          "internalType": "address",
          "name": "collection",
          "type": "address"
        },
        {
          "indexed": false,
          "internalType": "uint256",
          "name": "nftId",
          "type": "uint256"
        },
        {
          "indexed": false,
          "internalType": "uint256",
          "name": "price",
          "type": "uint256"
        }
      ],
      "name": "NFTListed",
      "type": "event"
    },
    {
      "anonymous": false,
      "inputs": [
        {
          "indexed": true,
          "internalType": "address",
          "name": "collection",
          "type": "address"
        },
        {
          "indexed": true,
          "internalType": "uint256",
          "name": "nftId",
          "type": "uint256"
        },
        {
          "indexed": false,
          "internalType": "uint256",
          "name": "newPrice",
          "type": "uint256"
        }
      ],
      "name": "NFTPriceChanged",
      "type": "event"
    },
    {
      "anonymous": false,
      "inputs": [
        {
          "indexed": true,
          "internalType": "address",
          "name": "buyer",
          "type": "address"
        },
        {
          "indexed": true,
          "internalType": "address",
          "name": "seller",
          "type": "address"
        },
        {
          "indexed": true,
          "internalType": "address",
          "name": "collection",
          "type": "address"
        },
        {
          "indexed": false,
          "internalType": "uint256",
          "name": "nftId",
          "type": "uint256"
        },
        {
          "indexed": false,
          "internalType": "uint256",
          "name": "price",
          "type": "uint256"
        }
      ],
      "name": "NFTSold",
      "type": "event"
    },
    {
      "anonymous": false,
      "inputs": [
        {
          "indexed": true,
          "internalType": "address",
          "name": "buyer",
          "type": "address"
        },
        {
          "indexed": true,
          "internalType": "address",
          "name": "collection",
          "type": "address"
        },
        {
          "indexed": true,
          "internalType": "uint256",
          "name": "nftId",
          "type": "uint256"
        },
        {
          "indexed": false,
          "internalType": "uint256",
          "name": "offerId",
          "type": "uint256"
        }
      ],
      "name": "OfferMade",
      "type": "event"
    },
    {
      "anonymous": false,
      "inputs": [
        {
          "indexed": true,
          "internalType": "address",
          "name": "previousOwner",
          "type": "address"
        },
        {
          "indexed": true,
          "internalType": "address",
          "name": "newOwner",
          "type": "address"
        }
      ],
      "name": "OwnershipTransferred",
      "type": "event"
    },
    {
      "anonymous": false,
      "inputs": [
        {
          "indexed": true,
          "internalType": "address",
          "name": "beneficiary",
          "type": "address"
        },
        {
          "indexed": false,
          "internalType": "uint256",
          "name": "amount",
          "type": "uint256"
        }
      ],
      "name": "RootWithdrawal",
      "type": "event"
    },
    {
      "anonymous": false,
      "inputs": [
        {
          "indexed": true,
          "internalType": "address",
          "name": "collection",
          "type": "address"
        },
        {
          "indexed": true,
          "internalType": "uint256",
          "name": "tokenId",
          "type": "uint256"
        },
        {
          "indexed": true,
          "internalType": "address",
          "name": "beneficiary",
          "type": "address"
        },
        {
          "indexed": false,
          "internalType": "uint256",
          "name": "royalty",
          "type": "uint256"
        }
      ],
      "name": "RoyaltyPayment",
      "type": "event"
    },
    {
      "inputs": [
        {
          "internalType": "address",
          "name": "collection",
          "type": "address"
        },
        {
          "internalType": "uint256",
          "name": "nftId",
          "type": "uint256"
        }
      ],
      "name": "buy",
      "outputs": [],
      "stateMutability": "payable",
      "type": "function"
    },
    {
      "inputs": [
        {
          "internalType": "address",
          "name": "collection",
          "type": "address"
        },
        {
          "internalType": "uint256",
          "name": "tokenId",
          "type": "uint256"
        },
        {
          "internalType": "uint256",
          "name": "indexOfOfferMapping",
          "type": "uint256"
        }
      ],
      "name": "cancelOffer",
      "outputs": [],
      "stateMutability": "nonpayable",
      "type": "function"
    },
    {
      "inputs": [
        {
          "internalType": "address",
          "name": "collection",
          "type": "address"
        },
        {
          "internalType": "uint256",
          "name": "tokenId",
          "type": "uint256"
        },
        {
          "internalType": "uint256",
          "name": "newPrice",
          "type": "uint256"
        }
      ],
      "name": "changePriceOf",
      "outputs": [],
      "stateMutability": "nonpayable",
      "type": "function"
    },
    {
      "inputs": [],
      "name": "feeRatio",
      "outputs": [
        {
          "internalType": "int128",
          "name": "",
          "type": "int128"
        }
      ],
      "stateMutability": "view",
      "type": "function"
    },
    {
      "inputs": [],
      "name": "floorRatio",
      "outputs": [
        {
          "internalType": "int128",
          "name": "",
          "type": "int128"
        }
      ],
      "stateMutability": "view",
      "type": "function"
    },
    {
      "inputs": [],
      "name": "fusyBenefitsAccumulated",
      "outputs": [
        {
          "internalType": "uint256",
          "name": "",
          "type": "uint256"
        }
      ],
      "stateMutability": "view",
      "type": "function"
    },
    {
      "inputs": [
        {
          "internalType": "uint256",
          "name": "counterofferId",
          "type": "uint256"
        }
      ],
      "name": "getCounteroffer",
      "outputs": [
        {
          "components": [
            {
              "internalType": "address",
              "name": "collection",
              "type": "address"
            },
            {
              "internalType": "uint256",
              "name": "nftId",
              "type": "uint256"
            },
            {
              "internalType": "uint256",
              "name": "offerId",
              "type": "uint256"
            },
            {
              "internalType": "uint256",
              "name": "price",
              "type": "uint256"
            },
            {
              "internalType": "uint64",
              "name": "expirationDate",
              "type": "uint64"
            }
          ],
          "internalType": "struct IMarketplace.Counteroffer",
          "name": "",
          "type": "tuple"
        }
      ],
      "stateMutability": "view",
      "type": "function"
    },
    {
      "inputs": [
        {
          "internalType": "address",
          "name": "collection",
          "type": "address"
        },
        {
          "internalType": "uint256",
          "name": "nftId",
          "type": "uint256"
        },
        {
          "internalType": "uint256",
          "name": "offerId",
          "type": "uint256"
        }
      ],
      "name": "getCounteroffer",
      "outputs": [
        {
          "components": [
            {
              "internalType": "address",
              "name": "collection",
              "type": "address"
            },
            {
              "internalType": "uint256",
              "name": "nftId",
              "type": "uint256"
            },
            {
              "internalType": "uint256",
              "name": "offerId",
              "type": "uint256"
            },
            {
              "internalType": "uint256",
              "name": "price",
              "type": "uint256"
            },
            {
              "internalType": "uint64",
              "name": "expirationDate",
              "type": "uint64"
            }
          ],
          "internalType": "struct IMarketplace.Counteroffer",
          "name": "",
          "type": "tuple"
        }
      ],
      "stateMutability": "view",
      "type": "function"
    },
    {
      "inputs": [
        {
          "internalType": "uint256",
          "name": "netPayment",
          "type": "uint256"
        }
      ],
      "name": "getFusyonaFeeFor",
      "outputs": [
        {
          "internalType": "uint256",
          "name": "",
          "type": "uint256"
        }
      ],
      "stateMutability": "view",
      "type": "function"
    },
    {
      "inputs": [
        {
          "internalType": "address",
          "name": "collection",
          "type": "address"
        },
        {
          "internalType": "uint256",
          "name": "tokenId",
          "type": "uint256"
        }
      ],
      "name": "getNftInfo",
      "outputs": [
        {
          "components": [
            {
              "internalType": "bool",
              "name": "listed",
              "type": "bool"
            },
            {
              "internalType": "uint256",
              "name": "price",
              "type": "uint256"
            },
            {
              "internalType": "address",
              "name": "seller",
              "type": "address"
            },
            {
              "internalType": "uint256",
              "name": "totalOffers",
              "type": "uint256"
            }
          ],
          "internalType": "struct IMarketplace.NftInfo",
          "name": "",
          "type": "tuple"
        }
      ],
      "stateMutability": "view",
      "type": "function"
    },
    {
      "inputs": [
        {
          "internalType": "address",
          "name": "collection",
          "type": "address"
        },
        {
          "internalType": "uint256",
          "name": "nftId",
          "type": "uint256"
        },
        {
          "internalType": "uint256",
          "name": "offerId",
          "type": "uint256"
        }
      ],
      "name": "getOffer",
      "outputs": [
        {
          "components": [
            {
              "internalType": "bool",
              "name": "isInitialized",
              "type": "bool"
            },
            {
              "internalType": "address",
              "name": "buyer",
              "type": "address"
            },
            {
              "internalType": "uint256",
              "name": "price",
              "type": "uint256"
            },
            {
              "internalType": "uint64",
              "name": "expirationDate",
              "type": "uint64"
            },
            {
              "internalType": "uint256",
              "name": "counterofferId",
              "type": "uint256"
            }
          ],
          "internalType": "struct IMarketplace.Offer",
          "name": "",
          "type": "tuple"
        }
      ],
      "stateMutability": "view",
      "type": "function"
    },
    {
      "inputs": [
        {
          "internalType": "address",
          "name": "collection",
          "type": "address"
        },
        {
          "internalType": "uint256",
          "name": "nftId",
          "type": "uint256"
        }
      ],
      "name": "isListed",
      "outputs": [
        {
          "internalType": "bool",
          "name": "",
          "type": "bool"
        }
      ],
      "stateMutability": "view",
      "type": "function"
    },
    {
      "inputs": [
        {
          "internalType": "address",
          "name": "collection",
          "type": "address"
        },
        {
          "internalType": "uint256",
          "name": "nftId",
          "type": "uint256"
        },
        {
          "internalType": "uint256",
          "name": "price",
          "type": "uint256"
        }
      ],
      "name": "list",
      "outputs": [],
      "stateMutability": "nonpayable",
      "type": "function"
    },
    {
      "inputs": [
        {
          "internalType": "address",
          "name": "collection",
          "type": "address"
        },
        {
          "internalType": "uint256",
          "name": "nftId",
          "type": "uint256"
        },
        {
          "internalType": "uint256",
          "name": "offerId",
          "type": "uint256"
        },
        {
          "internalType": "uint256",
          "name": "newPrice",
          "type": "uint256"
        },
        {
          "internalType": "uint64",
          "name": "durationInDays",
          "type": "uint64"
        }
      ],
      "name": "makeCounteroffer",
      "outputs": [],
      "stateMutability": "nonpayable",
      "type": "function"
    },
    {
      "inputs": [
        {
          "internalType": "address",
          "name": "collection",
          "type": "address"
        },
        {
          "internalType": "uint256",
          "name": "nftId",
          "type": "uint256"
        },
        {
          "internalType": "uint64",
          "name": "durationInDays",
          "type": "uint64"
        }
      ],
      "name": "makeOffer",
      "outputs": [],
      "stateMutability": "payable",
      "type": "function"
    },
    {
      "inputs": [
        {
          "internalType": "address",
          "name": "collection",
          "type": "address"
        },
        {
          "internalType": "uint256",
          "name": "nftId",
          "type": "uint256"
        }
      ],
      "name": "minPriceOffer",
      "outputs": [
        {
          "internalType": "uint256",
          "name": "",
          "type": "uint256"
        }
      ],
      "stateMutability": "view",
      "type": "function"
    },
    {
      "inputs": [
        {
          "internalType": "address",
          "name": "",
          "type": "address"
        },
        {
          "internalType": "address",
          "name": "",
          "type": "address"
        },
        {
          "internalType": "uint256[]",
          "name": "",
          "type": "uint256[]"
        },
        {
          "internalType": "uint256[]",
          "name": "",
          "type": "uint256[]"
        },
        {
          "internalType": "bytes",
          "name": "",
          "type": "bytes"
        }
      ],
      "name": "onERC1155BatchReceived",
      "outputs": [
        {
          "internalType": "bytes4",
          "name": "",
          "type": "bytes4"
        }
      ],
      "stateMutability": "nonpayable",
      "type": "function"
    },
    {
      "inputs": [
        {
          "internalType": "address",
          "name": "",
          "type": "address"
        },
        {
          "internalType": "address",
          "name": "",
          "type": "address"
        },
        {
          "internalType": "uint256",
          "name": "",
          "type": "uint256"
        },
        {
          "internalType": "uint256",
          "name": "",
          "type": "uint256"
        },
        {
          "internalType": "bytes",
          "name": "",
          "type": "bytes"
        }
      ],
      "name": "onERC1155Received",
      "outputs": [
        {
          "internalType": "bytes4",
          "name": "",
          "type": "bytes4"
        }
      ],
      "stateMutability": "nonpayable",
      "type": "function"
    },
    {
      "inputs": [
        {
          "internalType": "address",
          "name": "",
          "type": "address"
        },
        {
          "internalType": "address",
          "name": "",
          "type": "address"
        },
        {
          "internalType": "uint256",
          "name": "",
          "type": "uint256"
        },
        {
          "internalType": "bytes",
          "name": "",
          "type": "bytes"
        }
      ],
      "name": "onERC721Received",
      "outputs": [
        {
          "internalType": "bytes4",
          "name": "",
          "type": "bytes4"
        }
      ],
      "stateMutability": "nonpayable",
      "type": "function"
    },
    {
      "inputs": [],
      "name": "owner",
      "outputs": [
        {
          "internalType": "address",
          "name": "",
          "type": "address"
        }
      ],
      "stateMutability": "view",
      "type": "function"
    },
    {
      "inputs": [],
      "name": "renounceOwnership",
      "outputs": [],
      "stateMutability": "nonpayable",
      "type": "function"
    },
    {
      "inputs": [
        {
          "internalType": "address",
          "name": "collection",
          "type": "address"
        },
        {
          "internalType": "uint256",
          "name": "nftId",
          "type": "uint256"
        },
        {
          "internalType": "uint256",
          "name": "salePrice",
          "type": "uint256"
        }
      ],
      "name": "royaltyInfo",
      "outputs": [
        {
          "internalType": "address",
          "name": "",
          "type": "address"
        },
        {
          "internalType": "uint256",
          "name": "",
          "type": "uint256"
        }
      ],
      "stateMutability": "view",
      "type": "function"
    },
    {
      "inputs": [
        {
          "internalType": "uint8",
          "name": "percentage",
          "type": "uint8"
        }
      ],
      "name": "setFeeRatioFromPercentage",
      "outputs": [],
      "stateMutability": "nonpayable",
      "type": "function"
    },
    {
      "inputs": [
        {
          "internalType": "uint8",
          "name": "percentage",
          "type": "uint8"
        }
      ],
      "name": "setFloorRatioFromPercentage",
      "outputs": [],
      "stateMutability": "nonpayable",
      "type": "function"
    },
    {
      "inputs": [
        {
          "internalType": "bytes4",
          "name": "interfaceId",
          "type": "bytes4"
        }
      ],
      "name": "supportsInterface",
      "outputs": [
        {
          "internalType": "bool",
          "name": "",
          "type": "bool"
        }
      ],
      "stateMutability": "view",
      "type": "function"
    },
    {
      "inputs": [
        {
          "internalType": "address",
          "name": "collection",
          "type": "address"
        }
      ],
      "name": "supportsRoyalties",
      "outputs": [
        {
          "internalType": "bool",
          "name": "",
          "type": "bool"
        }
      ],
      "stateMutability": "view",
      "type": "function"
    },
    {
      "inputs": [
        {
          "internalType": "uint256",
          "name": "id",
          "type": "uint256"
        }
      ],
      "name": "takeCounteroffer",
      "outputs": [],
      "stateMutability": "payable",
      "type": "function"
    },
    {
      "inputs": [
        {
          "internalType": "address",
          "name": "collection",
          "type": "address"
        },
        {
          "internalType": "uint256",
          "name": "tokenId",
          "type": "uint256"
        },
        {
          "internalType": "uint256",
          "name": "indexOfOfferMapping",
          "type": "uint256"
        }
      ],
      "name": "takeOffer",
      "outputs": [],
      "stateMutability": "nonpayable",
      "type": "function"
    },
    {
      "inputs": [
        {
          "internalType": "address",
          "name": "newOwner",
          "type": "address"
        }
      ],
      "name": "transferOwnership",
      "outputs": [],
      "stateMutability": "nonpayable",
      "type": "function"
    },
    {
      "inputs": [],
      "name": "withdraw",
      "outputs": [],
      "stateMutability": "nonpayable",
      "type": "function"
    },
    {
      "stateMutability": "payable",
      "type": "receive"
    }
  ],
  "transactionHash": "0x75ac5e94858db9704a326d80f17bb976716b338ef022e0cfab09430aa137063e",
  "args": [],
  "numDeployments": 1,
  "solcInputHash": "a3945bf07dbc095795a73d9ef1709127",
  "bytecode": "0x60806040526200001b6002620000dc60201b620019961760201c565b600160006101000a8154816fffffffffffffffffffffffffffffffff0219169083600f0b6fffffffffffffffffffffffffffffffff1602179055506200006d6014620000dc60201b620019961760201c565b600160106101000a8154816fffffffffffffffffffffffffffffffff0219169083600f0b6fffffffffffffffffffffffffffffffff160217905550348015620000b557600080fd5b50620000d6620000ca6200010a60201b60201c565b6200011260201b60201c565b620002fb565b600060646801000000000000000083620000f7919062000212565b62000103919062000287565b9050919050565b600033905090565b60008060009054906101000a900473ffffffffffffffffffffffffffffffffffffffff169050816000806101000a81548173ffffffffffffffffffffffffffffffffffffffff021916908373ffffffffffffffffffffffffffffffffffffffff1602179055508173ffffffffffffffffffffffffffffffffffffffff168173ffffffffffffffffffffffffffffffffffffffff167f8be0079c531659141344cd1fd0a4f28419497f9722a3daafe3b4186f6b6457e060405160405180910390a35050565b600081600f0b9050919050565b7f4e487b7100000000000000000000000000000000000000000000000000000000600052601160045260246000fd5b60006200021f82620001d6565b91506200022c83620001d6565b92508282026200023c81620001d6565b9150808214620002515762000250620001e3565b5b5092915050565b7f4e487b7100000000000000000000000000000000000000000000000000000000600052601260045260246000fd5b60006200029482620001d6565b9150620002a183620001d6565b925082620002b457620002b362000258565b5b600160000383147fffffffffffffffffffffffffffffffff8000000000000000000000000000000083141615620002f057620002ef620001e3565b5b828205905092915050565b614f85806200030b6000396000f3fe6080604052600436106101d15760003560e01c80638a82626f116100f7578063bc197c8111610095578063dda342bb11610064578063dda342bb146106b5578063f23a6e61146106de578063f2fde38b1461071b578063fe4f0dde14610744576101d8565b8063bc197c81146105e2578063cce7ec131461061f578063cdb3cd251461063b578063dbde383014610678576101d8565b806392e3a5d6116100d157806392e3a5d6146105305780639ccc3fc71461056d5780639dd806ec146105aa578063a5e51355146105c6576101d8565b80638a82626f1461049d5780638da5cb5b146104da5780638ed457e014610505576101d8565b806341744dd41161016f5780636425cb051161013e5780636425cb05146103f7578063715018a6146104345780637766ba921461044b57806384d8cf2014610474576101d8565b806341744dd41461032857806345348a8c1461035357806350e9950314610390578063538bd5ea146103b9576101d8565b8063150b7a02116101ab578063150b7a021461028057806320546607146102bd57806329a1a8f2146102e85780633ccfd60b14610311576101d8565b806301ffc9a7146101dd5780630b75e33b1461021a5780630e030d6a14610257576101d8565b366101d857005b600080fd5b3480156101e957600080fd5b5061020460048036038101906101ff919061335b565b61076d565b60405161021191906133a3565b60405180910390f35b34801561022657600080fd5b50610241600480360381019061023c919061341c565b61077f565b60405161024e91906133a3565b60405180910390f35b34801561026357600080fd5b5061027e6004803603810190610279919061347f565b61079e565b005b34801561028c57600080fd5b506102a760048036038101906102a29190613618565b6108da565b6040516102b491906136aa565b60405180910390f35b3480156102c957600080fd5b506102d26108ee565b6040516102df91906136d4565b60405180910390f35b3480156102f457600080fd5b5061030f600480360381019061030a9190613728565b6108f4565b005b34801561031d57600080fd5b506103266109ea565b005b34801561033457600080fd5b5061033d610aaf565b60405161034a9190613771565b60405180910390f35b34801561035f57600080fd5b5061037a6004803603810190610375919061378c565b610ac2565b604051610387919061384e565b60405180910390f35b34801561039c57600080fd5b506103b760048036038101906103b291906138a9565b610b9d565b005b3480156103c557600080fd5b506103e060048036038101906103db919061347f565b610c81565b6040516103ee929190613933565b60405180910390f35b34801561040357600080fd5b5061041e6004803603810190610419919061347f565b610d11565b60405161042b91906139d3565b60405180910390f35b34801561044057600080fd5b50610449610e48565b005b34801561045757600080fd5b50610472600480360381019061046d919061347f565b610e5c565b005b34801561048057600080fd5b5061049b6004803603810190610496919061347f565b610f18565b005b3480156104a957600080fd5b506104c460048036038101906104bf91906139ee565b6110fe565b6040516104d19190613a83565b60405180910390f35b3480156104e657600080fd5b506104ef61116a565b6040516104fc9190613a9e565b60405180910390f35b34801561051157600080fd5b5061051a611193565b6040516105279190613771565b60405180910390f35b34801561053c57600080fd5b506105576004803603810190610552919061378c565b6111a6565b60405161056491906136d4565b60405180910390f35b34801561057957600080fd5b50610594600480360381019061058f919061347f565b61123e565b6040516105a19190613a83565b60405180910390f35b6105c460048036038101906105bf9190613ab9565b61126c565b005b6105e060048036038101906105db91906139ee565b611283565b005b3480156105ee57600080fd5b5061060960048036038101906106049190613bd4565b6113ec565b60405161061691906136aa565b60405180910390f35b6106396004803603810190610634919061378c565b611401565b005b34801561064757600080fd5b50610662600480360381019061065d919061378c565b611521565b60405161066f91906133a3565b60405180910390f35b34801561068457600080fd5b5061069f600480360381019061069a91906139ee565b611591565b6040516106ac91906136d4565b60405180910390f35b3480156106c157600080fd5b506106dc60048036038101906106d7919061347f565b6115bf565b005b3480156106ea57600080fd5b5061070560048036038101906107009190613ca3565b611808565b60405161071291906136aa565b60405180910390f35b34801561072757600080fd5b50610742600480360381019061073d919061341c565b61181d565b005b34801561075057600080fd5b5061076b60048036038101906107669190613728565b6118a0565b005b6000610778826119c0565b9050919050565b600080632a55205a60e01b90506107968382611a3a565b915050919050565b6107a9838383611a5f565b6000600360008573ffffffffffffffffffffffffffffffffffffffff1673ffffffffffffffffffffffffffffffffffffffff16815260200190815260200160002060008481526020019081526020016000206003016000838152602001908152602001600020905060008160000160006101000a81548160ff02191690831515021790555060008160010154905060008260000160019054906101000a900473ffffffffffffffffffffffffffffffffffffffff16905061086a8183611ce0565b8073ffffffffffffffffffffffffffffffffffffffff16858773ffffffffffffffffffffffffffffffffffffffff167f728d55bc695c93d61e4428fa1324993d6ae3da4efa718b13361fa0d70fd53eaf87866040516108ca929190613d3a565b60405180910390a4505050505050565b600063150b7a0260e01b9050949350505050565b60025481565b6108fc611d5f565b60648160ff161115610943576040517f08c379a000000000000000000000000000000000000000000000000000000000815260040161093a90613de6565b60405180910390fd5b60006109518260ff16611996565b9050600160109054906101000a9004600f0b600f0b81600f0b036109aa576040517f08c379a00000000000000000000000000000000000000000000000000000000081526004016109a190613e78565b60405180910390fd5b80600160106101000a8154816fffffffffffffffffffffffffffffffff0219169083600f0b6fffffffffffffffffffffffffffffffff1602179055505050565b6109f2611d5f565b600060025411610a37576040517f08c379a0000000000000000000000000000000000000000000000000000000008152600401610a2e90613f0a565b60405180910390fd5b600060025490506000600281905550610a57610a5161116a565b82611ce0565b610a5f61116a565b73ffffffffffffffffffffffffffffffffffffffff167f4a5596857f699aca8f90f020d443f83690ee93f5c4e147e3353a22c79da0506f82604051610aa491906136d4565b60405180910390a250565b600160009054906101000a9004600f0b81565b610aca61320f565b6000600360008573ffffffffffffffffffffffffffffffffffffffff1673ffffffffffffffffffffffffffffffffffffffff1681526020019081526020016000206000848152602001908152602001600020905060405180608001604052808260000160009054906101000a900460ff1615158152602001826001015481526020018260020160009054906101000a900473ffffffffffffffffffffffffffffffffffffffff1673ffffffffffffffffffffffffffffffffffffffff168152602001826004015481525091505092915050565b6000600360008773ffffffffffffffffffffffffffffffffffffffff1673ffffffffffffffffffffffffffffffffffffffff1681526020019081526020016000206000868152602001908152602001600020905060008160030160008681526020019081526020016000209050610c15828286611ddd565b6000610c2588888888888761204f565b905085878973ffffffffffffffffffffffffffffffffffffffff167f26754258c853565574afb716245befc7213e9016fa1d4eef5cda7d8508acc15784604051610c6f91906136d4565b60405180910390a45050505050505050565b60008060008590508073ffffffffffffffffffffffffffffffffffffffff16632a55205a86866040518363ffffffff1660e01b8152600401610cc4929190613d3a565b6040805180830381865afa158015610ce0573d6000803e3d6000fd5b505050506040513d601f19601f82011682018060405250810190610d049190613f54565b9250925050935093915050565b610d1961324f565b600360008573ffffffffffffffffffffffffffffffffffffffff1673ffffffffffffffffffffffffffffffffffffffff168152602001908152602001600020600084815260200190815260200160002060030160008381526020019081526020016000206040518060a00160405290816000820160009054906101000a900460ff161515151581526020016000820160019054906101000a900473ffffffffffffffffffffffffffffffffffffffff1673ffffffffffffffffffffffffffffffffffffffff1673ffffffffffffffffffffffffffffffffffffffff168152602001600182015481526020016002820160009054906101000a900467ffffffffffffffff1667ffffffffffffffff1667ffffffffffffffff16815260200160038201548152505090509392505050565b610e50611d5f565b610e5a600061218d565b565b6000600360008573ffffffffffffffffffffffffffffffffffffffff1673ffffffffffffffffffffffffffffffffffffffff16815260200190815260200160002060008481526020019081526020016000209050610eba8183612251565b818160010181905550828473ffffffffffffffffffffffffffffffffffffffff167f8fc4ddb47ef20cd66b81525933f0644f462c23d7783cd012c20bc360d4458a5584604051610f0a91906136d4565b60405180910390a350505050565b6000600360008573ffffffffffffffffffffffffffffffffffffffff1673ffffffffffffffffffffffffffffffffffffffff168152602001908152602001600020600084815260200190815260200160002090506000816003016000848152602001908152602001600020905061105282826040518060a00160405290816000820160009054906101000a900460ff161515151581526020016000820160019054906101000a900473ffffffffffffffffffffffffffffffffffffffff1673ffffffffffffffffffffffffffffffffffffffff1673ffffffffffffffffffffffffffffffffffffffff168152602001600182015481526020016002820160009054906101000a900467ffffffffffffffff1667ffffffffffffffff1667ffffffffffffffff1681526020016003820154815250508561237e565b60008260020160009054906101000a900473ffffffffffffffffffffffffffffffffffffffff16905060008260000160019054906101000a900473ffffffffffffffffffffffffffffffffffffffff16905060008360010154905060008560000160006101000a81548160ff02191690831515021790555060008460000160006101000a81548160ff0219169083151502179055506110f482848a8a85612559565b5050505050505050565b6111066132a0565b60008211801561111b57506004805490508211155b61115a576040517f08c379a000000000000000000000000000000000000000000000000000000000815260040161115190614006565b60405180910390fd5b61116382612604565b9050919050565b60008060009054906101000a900473ffffffffffffffffffffffffffffffffffffffff16905090565b600160109054906101000a9004600f0b81565b600080600360008573ffffffffffffffffffffffffffffffffffffffff1673ffffffffffffffffffffffffffffffffffffffff1681526020019081526020016000206000848152602001908152602001600020905060008160010154905061122981600160109054906101000a9004600f0b600f0b6126f290919063ffffffff16565b816112349190614055565b9250505092915050565b6112466132a0565b6000611253858585610d11565b90506112628160800151612604565b9150509392505050565b600034905061127d848483856127ac565b50505050565b61128c816129de565b600061129782612b4a565b905060006112a483612604565b9050600060036000836000015173ffffffffffffffffffffffffffffffffffffffff1673ffffffffffffffffffffffffffffffffffffffff16815260200190815260200160002060008360200151815260200190815260200160002090506000836040015183606001516113189190614055565b9050600061132582612b90565b905060008360000160006101000a81548160ff02191690831515021790555061134e8183612be1565b60008360020160009054906101000a900473ffffffffffffffffffffffffffffffffffffffff1690506113903382876000015188602001518960600151612559565b8073ffffffffffffffffffffffffffffffffffffffff16877f332175f2dcab833624be15496835f787a7b519737d4a85f212022ac3bcd030ad87606001516040516113db91906136d4565b60405180910390a350505050505050565b600063bc197c8160e01b905095945050505050565b6000600360008473ffffffffffffffffffffffffffffffffffffffff1673ffffffffffffffffffffffffffffffffffffffff1681526020019081526020016000206000838152602001908152602001600020905060008160020160009054906101000a900473ffffffffffffffffffffffffffffffffffffffff169050600082600101549050600061149282612b90565b90508360000160009054906101000a900460ff166114e5576040517f08c379a00000000000000000000000000000000000000000000000000000000081526004016114dc906140d5565b60405180910390fd5b60008460000160006101000a81548160ff02191690831515021790555061150c8183612be1565b6115193384888886612559565b505050505050565b600080600360008573ffffffffffffffffffffffffffffffffffffffff1673ffffffffffffffffffffffffffffffffffffffff168152602001908152602001600020600084815260200190815260200160002090508060000160009054906101000a900460ff1691505092915050565b60006115b882600160009054906101000a9004600f0b600f0b6126f290919063ffffffff16565b9050919050565b6115c98383611521565b15611609576040517f08c379a000000000000000000000000000000000000000000000000000000000815260040161160090614141565b60405180910390fd5b600061161484612c47565b90508061162a576116258484612c66565b611635565b6116348484612d1d565b5b611674576040517f08c379a000000000000000000000000000000000000000000000000000000000815260040161166b906141d3565b60405180910390fd5b600082116116b7576040517f08c379a00000000000000000000000000000000000000000000000000000000081526004016116ae90614265565b60405180910390fd5b600033905081156116d1576116cc8585612daa565b6116dc565b6116db8585612dba565b5b6000600360008773ffffffffffffffffffffffffffffffffffffffff1673ffffffffffffffffffffffffffffffffffffffff1681526020019081526020016000206000868152602001908152602001600020905060018160000160006101000a81548160ff021916908315150217905550838160010181905550818160020160006101000a81548173ffffffffffffffffffffffffffffffffffffffff021916908373ffffffffffffffffffffffffffffffffffffffff1602179055508573ffffffffffffffffffffffffffffffffffffffff168273ffffffffffffffffffffffffffffffffffffffff167fbeab3a2bb824b124a8a1eb465eec003338d61b414db132d37e9b3a984fdcf01087876040516117f8929190613d3a565b60405180910390a3505050505050565b600063f23a6e6160e01b905095945050505050565b611825611d5f565b600073ffffffffffffffffffffffffffffffffffffffff168173ffffffffffffffffffffffffffffffffffffffff1603611894576040517f08c379a000000000000000000000000000000000000000000000000000000000815260040161188b906142f7565b60405180910390fd5b61189d8161218d565b50565b6118a8611d5f565b60648160ff1611156118ef576040517f08c379a00000000000000000000000000000000000000000000000000000000081526004016118e690613de6565b60405180910390fd5b60006118fd8260ff16611996565b905080600f0b600160009054906101000a9004600f0b600f0b03611956576040517f08c379a000000000000000000000000000000000000000000000000000000000815260040161194d90613e78565b60405180910390fd5b80600160006101000a8154816fffffffffffffffffffffffffffffffff0219169083600f0b6fffffffffffffffffffffffffffffffff1602179055505050565b6000606468010000000000000000836119af9190614317565b6119b99190614383565b9050919050565b60007f4e2312e0000000000000000000000000000000000000000000000000000000007bffffffffffffffffffffffffffffffffffffffffffffffffffffffff1916827bffffffffffffffffffffffffffffffffffffffffffffffffffffffff19161480611a335750611a3282612dca565b5b9050919050565b6000611a4583612e34565b8015611a575750611a568383612e81565b5b905092915050565b6000600360008573ffffffffffffffffffffffffffffffffffffffff1673ffffffffffffffffffffffffffffffffffffffff1681526020019081526020016000206000848152602001908152602001600020905081816004015411611af9576040517f08c379a0000000000000000000000000000000000000000000000000000000008152600401611af090614439565b60405180910390fd5b6000600360008673ffffffffffffffffffffffffffffffffffffffff1673ffffffffffffffffffffffffffffffffffffffff168152602001908152602001600020600085815260200190815260200160002060030160008481526020019081526020016000206040518060a00160405290816000820160009054906101000a900460ff161515151581526020016000820160019054906101000a900473ffffffffffffffffffffffffffffffffffffffff1673ffffffffffffffffffffffffffffffffffffffff1673ffffffffffffffffffffffffffffffffffffffff168152602001600182015481526020016002820160009054906101000a900467ffffffffffffffff1667ffffffffffffffff1667ffffffffffffffff1681526020016003820154815250509050806020015173ffffffffffffffffffffffffffffffffffffffff163373ffffffffffffffffffffffffffffffffffffffff1614611c95576040517f08c379a0000000000000000000000000000000000000000000000000000000008152600401611c8c906144a5565b60405180910390fd5b8060000151611cd9576040517f08c379a0000000000000000000000000000000000000000000000000000000008152600401611cd090614537565b60405180910390fd5b5050505050565b60008273ffffffffffffffffffffffffffffffffffffffff1682604051611d0690614588565b60006040518083038185875af1925050503d8060008114611d43576040519150601f19603f3d011682016040523d82523d6000602084013e611d48565b606091505b5050905080611d5a57611d5961459d565b5b505050565b611d67612f40565b73ffffffffffffffffffffffffffffffffffffffff16611d8561116a565b73ffffffffffffffffffffffffffffffffffffffff1614611ddb576040517f08c379a0000000000000000000000000000000000000000000000000000000008152600401611dd290614618565b60405180910390fd5b565b8260000160009054906101000a900460ff16611e2e576040517f08c379a0000000000000000000000000000000000000000000000000000000008152600401611e25906140d5565b60405180910390fd5b8160000160009054906101000a900460ff16611e7f576040517f08c379a0000000000000000000000000000000000000000000000000000000008152600401611e7690614439565b60405180910390fd5b81600101548111611ec5576040517f08c379a0000000000000000000000000000000000000000000000000000000008152600401611ebc906146aa565b60405180910390fd5b82600101548110611f0b576040517f08c379a0000000000000000000000000000000000000000000000000000000008152600401611f029061473c565b60405180910390fd5b428260020160009054906101000a900467ffffffffffffffff1667ffffffffffffffff161015611f70576040517f08c379a0000000000000000000000000000000000000000000000000000000008152600401611f67906147a8565b60405180910390fd5b8260020160009054906101000a900473ffffffffffffffffffffffffffffffffffffffff1673ffffffffffffffffffffffffffffffffffffffff163373ffffffffffffffffffffffffffffffffffffffff1614612002576040517f08c379a0000000000000000000000000000000000000000000000000000000008152600401611ff99061483a565b60405180910390fd5b61200b82612f48565b61204a576040517f08c379a0000000000000000000000000000000000000000000000000000000008152600401612041906148cc565b60405180910390fd5b505050565b600060046040518060a001604052808973ffffffffffffffffffffffffffffffffffffffff168152602001888152602001878152602001868152602001620151808661209b91906148ec565b426120a69190614929565b67ffffffffffffffff16815250908060018154018082558091505060019003906000526020600020906005020160009091909190915060008201518160000160006101000a81548173ffffffffffffffffffffffffffffffffffffffff021916908373ffffffffffffffffffffffffffffffffffffffff16021790555060208201518160010155604082015181600201556060820151816003015560808201518160040160006101000a81548167ffffffffffffffff021916908367ffffffffffffffff160217905550505060048054905090508082600301819055509695505050505050565b60008060009054906101000a900473ffffffffffffffffffffffffffffffffffffffff169050816000806101000a81548173ffffffffffffffffffffffffffffffffffffffff021916908373ffffffffffffffffffffffffffffffffffffffff1602179055508173ffffffffffffffffffffffffffffffffffffffff168173ffffffffffffffffffffffffffffffffffffffff167f8be0079c531659141344cd1fd0a4f28419497f9722a3daafe3b4186f6b6457e060405160405180910390a35050565b8160000160009054906101000a900460ff166122a2576040517f08c379a0000000000000000000000000000000000000000000000000000000008152600401612299906140d5565b60405180910390fd5b8160020160009054906101000a900473ffffffffffffffffffffffffffffffffffffffff1673ffffffffffffffffffffffffffffffffffffffff163373ffffffffffffffffffffffffffffffffffffffff1614612334576040517f08c379a000000000000000000000000000000000000000000000000000000000815260040161232b9061483a565b60405180910390fd5b8160010154810361237a576040517f08c379a0000000000000000000000000000000000000000000000000000000008152600401612371906149d7565b60405180910390fd5b5050565b60008360020160009054906101000a900473ffffffffffffffffffffffffffffffffffffffff16905060008460000160009054906101000a900460ff1690506000856004015490506000856060015190508373ffffffffffffffffffffffffffffffffffffffff163373ffffffffffffffffffffffffffffffffffffffff161461243d576040517f08c379a000000000000000000000000000000000000000000000000000000000815260040161243490614a69565b60405180910390fd5b8261247d576040517f08c379a000000000000000000000000000000000000000000000000000000000815260040161247490614ad5565b60405180910390fd5b8482116124bf576040517f08c379a00000000000000000000000000000000000000000000000000000000081526004016124b690614b41565b60405180910390fd5b8560000151612503576040517f08c379a00000000000000000000000000000000000000000000000000000000081526004016124fa90614bad565b60405180910390fd5b428167ffffffffffffffff161015612550576040517f08c379a0000000000000000000000000000000000000000000000000000000008152600401612547906147a8565b60405180910390fd5b50505050505050565b6000612566848484612f58565b9050612573858383612fff565b61257e86858561304b565b8373ffffffffffffffffffffffffffffffffffffffff168573ffffffffffffffffffffffffffffffffffffffff168773ffffffffffffffffffffffffffffffffffffffff167f1b81ea9818518fffa07ee623cfd9ce8af1900f3e0c918f2ca4fcfc9745cdc16586866040516125f4929190613d3a565b60405180910390a4505050505050565b61260c6132a0565b600460018361261b9190614055565b8154811061262c5761262b614bcd565b5b90600052602060002090600502016040518060a00160405290816000820160009054906101000a900473ffffffffffffffffffffffffffffffffffffffff1673ffffffffffffffffffffffffffffffffffffffff1673ffffffffffffffffffffffffffffffffffffffff1681526020016001820154815260200160028201548152602001600382015481526020016004820160009054906101000a900467ffffffffffffffff1667ffffffffffffffff1667ffffffffffffffff16815250509050919050565b600080820361270457600090506127a6565b600083600f0b121561271557600080fd5b600060406fffffffffffffffffffffffffffffffff841685600f0b02901c90506000608084901c85600f0b02905077ffffffffffffffffffffffffffffffffffffffffffffffff81111561276857600080fd5b604081901b9050817fffffffffffffffffffffffffffffffffffffffffffffffffffffffffffffffff0381111561279e57600080fd5b818101925050505b92915050565b60006127b783612b90565b90506127c485858361307c565b600033905060006040518060a001604052806001151581526020018373ffffffffffffffffffffffffffffffffffffffff168152602001848152602001620151808661281091906148ec565b4261281b9190614929565b67ffffffffffffffff168152602001600081525090506000600360008973ffffffffffffffffffffffffffffffffffffffff1673ffffffffffffffffffffffffffffffffffffffff168152602001908152602001600020600088815260200190815260200160002090506000816004015490508282600301600083815260200190815260200160002060008201518160000160006101000a81548160ff02191690831515021790555060208201518160000160016101000a81548173ffffffffffffffffffffffffffffffffffffffff021916908373ffffffffffffffffffffffffffffffffffffffff1602179055506040820151816001015560608201518160020160006101000a81548167ffffffffffffffff021916908367ffffffffffffffff1602179055506080820151816003015590505060018260040160008282546129669190614bfc565b92505081905550878973ffffffffffffffffffffffffffffffffffffffff168573ffffffffffffffffffffffffffffffffffffffff167f6a7a64ee90bd2fcf9f942e947c6a521c6e27711befb22fa80f887ccb8a6f3fd0846040516129cb91906136d4565b60405180910390a4505050505050505050565b60008111612a21576040517f08c379a0000000000000000000000000000000000000000000000000000000008152600401612a1890614006565b60405180910390fd5b600480549050811115612a69576040517f08c379a0000000000000000000000000000000000000000000000000000000008152600401612a6090614006565b60405180910390fd5b6000612a7482612b4a565b90503373ffffffffffffffffffffffffffffffffffffffff16816020015173ffffffffffffffffffffffffffffffffffffffff1614612ae8576040517f08c379a0000000000000000000000000000000000000000000000000000000008152600401612adf90614ca2565b60405180910390fd5b6000612af383612604565b905042816080015167ffffffffffffffff1611612b45576040517f08c379a0000000000000000000000000000000000000000000000000000000008152600401612b3c90614d34565b60405180910390fd5b505050565b612b5261324f565b6000612b5d83612604565b9050600081600001519050600082602001519050600083604001519050612b85838383610d11565b945050505050919050565b600081341015612bd95734826040517f0f3d689d000000000000000000000000000000000000000000000000000000008152600401612bd0929190613d3a565b60405180910390fd5b349050919050565b60008183612bef9190614055565b90506000811115612c42573373ffffffffffffffffffffffffffffffffffffffff166108fc829081150290604051600060405180830381858888f19350505050158015612c40573d6000803e3d6000fd5b505b505050565b60008063d9b67a2660e01b9050612c5e8382612e81565b915050919050565b6000808390503373ffffffffffffffffffffffffffffffffffffffff168173ffffffffffffffffffffffffffffffffffffffff16636352211e856040518263ffffffff1660e01b8152600401612cbc91906136d4565b602060405180830381865afa158015612cd9573d6000803e3d6000fd5b505050506040513d601f19601f82011682018060405250810190612cfd9190614d54565b73ffffffffffffffffffffffffffffffffffffffff161491505092915050565b60008083905060008173ffffffffffffffffffffffffffffffffffffffff1662fdd58e33866040518363ffffffff1660e01b8152600401612d5f929190613933565b602060405180830381865afa158015612d7c573d6000803e3d6000fd5b505050506040513d601f19601f82011682018060405250810190612da09190614d81565b1191505092915050565b612db682823330613116565b5050565b612dc682823330613194565b5050565b60007f01ffc9a7000000000000000000000000000000000000000000000000000000007bffffffffffffffffffffffffffffffffffffffffffffffffffffffff1916827bffffffffffffffffffffffffffffffffffffffffffffffffffffffff1916149050919050565b6000612e60827f01ffc9a700000000000000000000000000000000000000000000000000000000612e81565b8015612e7a5750612e788263ffffffff60e01b612e81565b155b9050919050565b6000806301ffc9a760e01b83604051602401612e9d91906136aa565b604051602081830303815290604052907bffffffffffffffffffffffffffffffffffffffffffffffffffffffff19166020820180517bffffffffffffffffffffffffffffffffffffffffffffffffffffffff838183161783525050505090506000806000602060008551602087018a617530fa92503d91506000519050828015612f28575060208210155b8015612f345750600081115b94505050505092915050565b600033905090565b6000808260030154149050919050565b6000612f638461077f565b612f705760009050612ff8565b600080612f7e868686610c81565b91509150612f8c8282611ce0565b8173ffffffffffffffffffffffffffffffffffffffff16858773ffffffffffffffffffffffffffffffffffffffff167fff2e45a3ef00a9f7ac5964f5c99b4076de5ac15411f355f6163e1f9bb5f2c9a984604051612fea91906136d4565b60405180910390a480925050505b9392505050565b600061300a83611591565b9050806002600082825461301e9190614bfc565b92505081905550613045848383866130369190614055565b6130409190614055565b611ce0565b50505050565b61305482612c47565b1561306a5761306582823086613116565b613077565b61307682823086613194565b5b505050565b61308683836111a6565b8110156130c8576040517f08c379a00000000000000000000000000000000000000000000000000000000081526004016130bf90614e6c565b60405180910390fd5b6130d28383611521565b613111576040517f08c379a0000000000000000000000000000000000000000000000000000000008152600401613108906140d5565b60405180910390fd5b505050565b60008490508073ffffffffffffffffffffffffffffffffffffffff1663f242432a84848760016040518563ffffffff1660e01b815260040161315b9493929190614ec0565b600060405180830381600087803b15801561317557600080fd5b505af1158015613189573d6000803e3d6000fd5b505050505050505050565b60008490508073ffffffffffffffffffffffffffffffffffffffff166342842e0e8484876040518463ffffffff1660e01b81526004016131d693929190614f18565b600060405180830381600087803b1580156131f057600080fd5b505af1158015613204573d6000803e3d6000fd5b505050505050505050565b604051806080016040528060001515815260200160008152602001600073ffffffffffffffffffffffffffffffffffffffff168152602001600081525090565b6040518060a00160405280600015158152602001600073ffffffffffffffffffffffffffffffffffffffff16815260200160008152602001600067ffffffffffffffff168152602001600081525090565b6040518060a00160405280600073ffffffffffffffffffffffffffffffffffffffff168152602001600081526020016000815260200160008152602001600067ffffffffffffffff1681525090565b6000604051905090565b600080fd5b600080fd5b60007fffffffff0000000000000000000000000000000000000000000000000000000082169050919050565b61333881613303565b811461334357600080fd5b50565b6000813590506133558161332f565b92915050565b600060208284031215613371576133706132f9565b5b600061337f84828501613346565b91505092915050565b60008115159050919050565b61339d81613388565b82525050565b60006020820190506133b86000830184613394565b92915050565b600073ffffffffffffffffffffffffffffffffffffffff82169050919050565b60006133e9826133be565b9050919050565b6133f9816133de565b811461340457600080fd5b50565b600081359050613416816133f0565b92915050565b600060208284031215613432576134316132f9565b5b600061344084828501613407565b91505092915050565b6000819050919050565b61345c81613449565b811461346757600080fd5b50565b60008135905061347981613453565b92915050565b600080600060608486031215613498576134976132f9565b5b60006134a686828701613407565b93505060206134b78682870161346a565b92505060406134c88682870161346a565b9150509250925092565b600080fd5b600080fd5b6000601f19601f8301169050919050565b7f4e487b7100000000000000000000000000000000000000000000000000000000600052604160045260246000fd5b613525826134dc565b810181811067ffffffffffffffff82111715613544576135436134ed565b5b80604052505050565b60006135576132ef565b9050613563828261351c565b919050565b600067ffffffffffffffff821115613583576135826134ed565b5b61358c826134dc565b9050602081019050919050565b82818337600083830152505050565b60006135bb6135b684613568565b61354d565b9050828152602081018484840111156135d7576135d66134d7565b5b6135e2848285613599565b509392505050565b600082601f8301126135ff576135fe6134d2565b5b813561360f8482602086016135a8565b91505092915050565b60008060008060808587031215613632576136316132f9565b5b600061364087828801613407565b945050602061365187828801613407565b93505060406136628782880161346a565b925050606085013567ffffffffffffffff811115613683576136826132fe565b5b61368f878288016135ea565b91505092959194509250565b6136a481613303565b82525050565b60006020820190506136bf600083018461369b565b92915050565b6136ce81613449565b82525050565b60006020820190506136e960008301846136c5565b92915050565b600060ff82169050919050565b613705816136ef565b811461371057600080fd5b50565b600081359050613722816136fc565b92915050565b60006020828403121561373e5761373d6132f9565b5b600061374c84828501613713565b91505092915050565b600081600f0b9050919050565b61376b81613755565b82525050565b60006020820190506137866000830184613762565b92915050565b600080604083850312156137a3576137a26132f9565b5b60006137b185828601613407565b92505060206137c28582860161346a565b9150509250929050565b6137d581613388565b82525050565b6137e481613449565b82525050565b6137f3816133de565b82525050565b60808201600082015161380f60008501826137cc565b50602082015161382260208501826137db565b50604082015161383560408501826137ea565b50606082015161384860608501826137db565b50505050565b600060808201905061386360008301846137f9565b92915050565b600067ffffffffffffffff82169050919050565b61388681613869565b811461389157600080fd5b50565b6000813590506138a38161387d565b92915050565b600080600080600060a086880312156138c5576138c46132f9565b5b60006138d388828901613407565b95505060206138e48882890161346a565b94505060406138f58882890161346a565b93505060606139068882890161346a565b925050608061391788828901613894565b9150509295509295909350565b61392d816133de565b82525050565b60006040820190506139486000830185613924565b61395560208301846136c5565b9392505050565b61396581613869565b82525050565b60a08201600082015161398160008501826137cc565b50602082015161399460208501826137ea565b5060408201516139a760408501826137db565b5060608201516139ba606085018261395c565b5060808201516139cd60808501826137db565b50505050565b600060a0820190506139e8600083018461396b565b92915050565b600060208284031215613a0457613a036132f9565b5b6000613a128482850161346a565b91505092915050565b60a082016000820151613a3160008501826137ea565b506020820151613a4460208501826137db565b506040820151613a5760408501826137db565b506060820151613a6a60608501826137db565b506080820151613a7d608085018261395c565b50505050565b600060a082019050613a986000830184613a1b565b92915050565b6000602082019050613ab36000830184613924565b92915050565b600080600060608486031215613ad257613ad16132f9565b5b6000613ae086828701613407565b9350506020613af18682870161346a565b9250506040613b0286828701613894565b9150509250925092565b600067ffffffffffffffff821115613b2757613b266134ed565b5b602082029050602081019050919050565b600080fd5b6000613b50613b4b84613b0c565b61354d565b90508083825260208201905060208402830185811115613b7357613b72613b38565b5b835b81811015613b9c5780613b88888261346a565b845260208401935050602081019050613b75565b5050509392505050565b600082601f830112613bbb57613bba6134d2565b5b8135613bcb848260208601613b3d565b91505092915050565b600080600080600060a08688031215613bf057613bef6132f9565b5b6000613bfe88828901613407565b9550506020613c0f88828901613407565b945050604086013567ffffffffffffffff811115613c3057613c2f6132fe565b5b613c3c88828901613ba6565b935050606086013567ffffffffffffffff811115613c5d57613c5c6132fe565b5b613c6988828901613ba6565b925050608086013567ffffffffffffffff811115613c8a57613c896132fe565b5b613c96888289016135ea565b9150509295509295909350565b600080600080600060a08688031215613cbf57613cbe6132f9565b5b6000613ccd88828901613407565b9550506020613cde88828901613407565b9450506040613cef8882890161346a565b9350506060613d008882890161346a565b925050608086013567ffffffffffffffff811115613d2157613d206132fe565b5b613d2d888289016135ea565b9150509295509295909350565b6000604082019050613d4f60008301856136c5565b613d5c60208301846136c5565b9392505050565b600082825260208201905092915050565b7f4d61726b6574706c6163653a2050657263656e74616765206d7573742062652060008201527f6c657373206f7220657175616c207468616e2031303000000000000000000000602082015250565b6000613dd0603683613d63565b9150613ddb82613d74565b604082019050919050565b60006020820190508181036000830152613dff81613dc3565b9050919050565b7f4d61726b6574706c6163653a204e65772070657263656e74616765206973207460008201527f68652073616d65206173207468652063757272656e74206f6e65000000000000602082015250565b6000613e62603a83613d63565b9150613e6d82613e06565b604082019050919050565b60006020820190508181036000830152613e9181613e55565b9050919050565b7f4d61726b6574706c6163653a204e6f7468696e6720746f20776974686472617760008201527f2e00000000000000000000000000000000000000000000000000000000000000602082015250565b6000613ef4602183613d63565b9150613eff82613e98565b604082019050919050565b60006020820190508181036000830152613f2381613ee7565b9050919050565b600081519050613f39816133f0565b92915050565b600081519050613f4e81613453565b92915050565b60008060408385031215613f6b57613f6a6132f9565b5b6000613f7985828601613f2a565b9250506020613f8a85828601613f3f565b9150509250929050565b7f4d61726b6574706c6163653a20436f756e7465726f66666572206e6f7420666f60008201527f756e640000000000000000000000000000000000000000000000000000000000602082015250565b6000613ff0602383613d63565b9150613ffb82613f94565b604082019050919050565b6000602082019050818103600083015261401f81613fe3565b9050919050565b7f4e487b7100000000000000000000000000000000000000000000000000000000600052601160045260246000fd5b600061406082613449565b915061406b83613449565b925082820390508181111561408357614082614026565b5b92915050565b7f4d61726b6574706c6163653a204e4654206e6f74206c69737465640000000000600082015250565b60006140bf601b83613d63565b91506140ca82614089565b602082019050919050565b600060208201905081810360008301526140ee816140b2565b9050919050565b7f4d61726b6574706c6163653a204e465420616c7265616479206c697374656400600082015250565b600061412b601f83613d63565b9150614136826140f5565b602082019050919050565b6000602082019050818103600083015261415a8161411e565b9050919050565b7f4d61726b6574706c6163653a20596f7520646f6e2774206f776e20746865204e60008201527f4654000000000000000000000000000000000000000000000000000000000000602082015250565b60006141bd602283613d63565b91506141c882614161565b604082019050919050565b600060208201905081810360008301526141ec816141b0565b9050919050565b7f4d61726b6574706c6163653a205072696365206d75737420626520677265617460008201527f6572207468616e20300000000000000000000000000000000000000000000000602082015250565b600061424f602983613d63565b915061425a826141f3565b604082019050919050565b6000602082019050818103600083015261427e81614242565b9050919050565b7f4f776e61626c653a206e6577206f776e657220697320746865207a65726f206160008201527f6464726573730000000000000000000000000000000000000000000000000000602082015250565b60006142e1602683613d63565b91506142ec82614285565b604082019050919050565b60006020820190508181036000830152614310816142d4565b9050919050565b600061432282613755565b915061432d83613755565b925082820261433b81613755565b915080821461434d5761434c614026565b5b5092915050565b7f4e487b7100000000000000000000000000000000000000000000000000000000600052601260045260246000fd5b600061438e82613755565b915061439983613755565b9250826143a9576143a8614354565b5b600160000383147fffffffffffffffffffffffffffffffff80000000000000000000000000000000831416156143e2576143e1614026565b5b828205905092915050565b7f4d61726b6574706c6163653a204f66666572206e6f7420666f756e6400000000600082015250565b6000614423601c83613d63565b915061442e826143ed565b602082019050919050565b6000602082019050818103600083015261445281614416565b9050919050565b7f4d61726b6574706c6163653a2057726f6e672042757965720000000000000000600082015250565b600061448f601883613d63565b915061449a82614459565b602082019050919050565b600060208201905081810360008301526144be81614482565b9050919050565b7f4d61726b6574706c6163653a204f6666657220616c726561647920776173206360008201527f616e63656c6c6564000000000000000000000000000000000000000000000000602082015250565b6000614521602883613d63565b915061452c826144c5565b604082019050919050565b6000602082019050818103600083015261455081614514565b9050919050565b600081905092915050565b50565b6000614572600083614557565b915061457d82614562565b600082019050919050565b600061459382614565565b9150819050919050565b7f4e487b7100000000000000000000000000000000000000000000000000000000600052600160045260246000fd5b7f4f776e61626c653a2063616c6c6572206973206e6f7420746865206f776e6572600082015250565b6000614602602083613d63565b915061460d826145cc565b602082019050919050565b60006020820190508181036000830152614631816145f5565b9050919050565b7f4d61726b6574706c6163653a205072696365206d75737420626520677265617460008201527f6572207468616e206f6666657200000000000000000000000000000000000000602082015250565b6000614694602d83613d63565b915061469f82614638565b604082019050919050565b600060208201905081810360008301526146c381614687565b9050919050565b7f4d61726b6574706c6163653a205072696365206d757374206265206c6573732060008201527f7468616e204e4654207072696365000000000000000000000000000000000000602082015250565b6000614726602e83613d63565b9150614731826146ca565b604082019050919050565b6000602082019050818103600083015261475581614719565b9050919050565b7f4d61726b6574706c6163653a204f666665722065787069726564000000000000600082015250565b6000614792601a83613d63565b915061479d8261475c565b602082019050919050565b600060208201905081810360008301526147c181614785565b9050919050565b7f4d61726b6574706c6163653a20596f75206172656e27742073656c6c696e672060008201527f746865204e465400000000000000000000000000000000000000000000000000602082015250565b6000614824602783613d63565b915061482f826147c8565b604082019050919050565b6000602082019050818103600083015261485381614817565b9050919050565b7f4d61726b6574706c6163653a20436f756e7465726f6666657220616c7265616460008201527f7920657869737473000000000000000000000000000000000000000000000000602082015250565b60006148b6602883613d63565b91506148c18261485a565b604082019050919050565b600060208201905081810360008301526148e5816148a9565b9050919050565b60006148f782613869565b915061490283613869565b925082820261491081613869565b915080821461492257614921614026565b5b5092915050565b600061493482613869565b915061493f83613869565b9250828201905067ffffffffffffffff81111561495f5761495e614026565b5b92915050565b7f4d61726b6574706c6163653a204e65772070726963652069732074686520736160008201527f6d652061732063757272656e7420707269636500000000000000000000000000602082015250565b60006149c1603383613d63565b91506149cc82614965565b604082019050919050565b600060208201905081810360008301526149f0816149b4565b9050919050565b7f4d61726b6574706c6163653a2053656e6465722073686f756c6420626520746860008201527f652073656c6c6572000000000000000000000000000000000000000000000000602082015250565b6000614a53602883613d63565b9150614a5e826149f7565b604082019050919050565b60006020820190508181036000830152614a8281614a46565b9050919050565b7f4d61726b6574706c6163653a204e4654206e6f7420666f756e64000000000000600082015250565b6000614abf601a83613d63565b9150614aca82614a89565b602082019050919050565b60006020820190508181036000830152614aee81614ab2565b9050919050565b7f4d61726b6574706c6163653a204f6666657220646f65736e2774206578697374600082015250565b6000614b2b602083613d63565b9150614b3682614af5565b602082019050919050565b60006020820190508181036000830152614b5a81614b1e565b9050919050565b7f4d61726b6574706c6163653a204f666665722077617320757365640000000000600082015250565b6000614b97601b83613d63565b9150614ba282614b61565b602082019050919050565b60006020820190508181036000830152614bc681614b8a565b9050919050565b7f4e487b7100000000000000000000000000000000000000000000000000000000600052603260045260246000fd5b6000614c0782613449565b9150614c1283613449565b9250828201905080821115614c2a57614c29614026565b5b92915050565b7f4d61726b6574706c6163653a20596f75206469646e2774206d616b652074686560008201527f206f666665720000000000000000000000000000000000000000000000000000602082015250565b6000614c8c602683613d63565b9150614c9782614c30565b604082019050919050565b60006020820190508181036000830152614cbb81614c7f565b9050919050565b7f4d61726b6574706c6163653a20436f756e7465726f666665722065787069726560008201527f6400000000000000000000000000000000000000000000000000000000000000602082015250565b6000614d1e602183613d63565b9150614d2982614cc2565b604082019050919050565b60006020820190508181036000830152614d4d81614d11565b9050919050565b600060208284031215614d6a57614d696132f9565b5b6000614d7884828501613f2a565b91505092915050565b600060208284031215614d9757614d966132f9565b5b6000614da584828501613f3f565b91505092915050565b7f4d61726b6574706c6163653a205072696365206d75737420626520677265617460008201527f6572206f7220657175616c207468616e20746865206d696e696d756d206f666660208201527f657220707269636520666f722074686174204e4654202863616c6c206d696e5060408201527f726963654f666665722829290000000000000000000000000000000000000000606082015250565b6000614e56606c83613d63565b9150614e6182614dae565b608082019050919050565b60006020820190508181036000830152614e8581614e49565b9050919050565b600082825260208201905092915050565b6000614eaa600083614e8c565b9150614eb582614562565b600082019050919050565b600060a082019050614ed56000830187613924565b614ee26020830186613924565b614eef60408301856136c5565b614efc60608301846136c5565b8181036080830152614f0d81614e9d565b905095945050505050565b6000606082019050614f2d6000830186613924565b614f3a6020830185613924565b614f4760408301846136c5565b94935050505056fea26469706673582212208bec0fcc30c4d504269e7042fd8774e9c678332352df90c778cd910ff9d2e45e64736f6c63430008120033",
  "devdoc": {
    "kind": "dev",
    "methods": {
      "onERC721Received(address,address,uint256,bytes)": {
        "details": "See {IERC721Receiver-onERC721Received}. Always returns `IERC721Receiver.onERC721Received.selector`."
      },
      "owner()": {
        "details": "Returns the address of the current owner."
      },
      "renounceOwnership()": {
        "details": "Leaves the contract without owner. It will not be possible to call `onlyOwner` functions anymore. Can only be called by the current owner. NOTE: Renouncing ownership will leave the contract without an owner, thereby removing any functionality that is only available to the owner."
      },
      "supportsInterface(bytes4)": {
        "details": "See {IERC165-supportsInterface}."
      },
      "transferOwnership(address)": {
        "details": "Transfers ownership of the contract to a new account (`newOwner`). Can only be called by the current owner."
      }
    },
    "version": 1
  },
  "userdoc": {
    "kind": "user",
    "methods": {},
    "version": 1
  },
  "storageLayout": {
    "storage": [
      {
        "astId": 546,
        "contract": "contracts/MsgValuePaymentMarketplace.sol:MsgValuePaymentMarketplace",
        "label": "_owner",
        "offset": 0,
        "slot": "0",
        "type": "t_address"
      },
      {
        "astId": 7872,
        "contract": "contracts/MsgValuePaymentMarketplace.sol:MsgValuePaymentMarketplace",
        "label": "feeRatio",
        "offset": 0,
        "slot": "1",
        "type": "t_int128"
      },
      {
        "astId": 7881,
        "contract": "contracts/MsgValuePaymentMarketplace.sol:MsgValuePaymentMarketplace",
        "label": "floorRatio",
        "offset": 16,
        "slot": "1",
        "type": "t_int128"
      },
      {
        "astId": 7899,
        "contract": "contracts/MsgValuePaymentMarketplace.sol:MsgValuePaymentMarketplace",
        "label": "fusyBenefitsAccumulated",
        "offset": 0,
        "slot": "2",
        "type": "t_uint256"
      },
      {
        "astId": 7906,
        "contract": "contracts/MsgValuePaymentMarketplace.sol:MsgValuePaymentMarketplace",
        "label": "nftsListed",
        "offset": 0,
        "slot": "3",
        "type": "t_mapping(t_address,t_mapping(t_uint256,t_struct(NFTForSale)7863_storage))"
      },
      {
        "astId": 7910,
        "contract": "contracts/MsgValuePaymentMarketplace.sol:MsgValuePaymentMarketplace",
        "label": "counteroffers",
        "offset": 0,
        "slot": "4",
        "type": "t_array(t_struct(Counteroffer)7663_storage)dyn_storage"
      }
    ],
    "types": {
      "t_address": {
        "encoding": "inplace",
        "label": "address",
        "numberOfBytes": "20"
      },
      "t_array(t_struct(Counteroffer)7663_storage)dyn_storage": {
        "base": "t_struct(Counteroffer)7663_storage",
        "encoding": "dynamic_array",
        "label": "struct IMarketplace.Counteroffer[]",
        "numberOfBytes": "32"
      },
      "t_bool": {
        "encoding": "inplace",
        "label": "bool",
        "numberOfBytes": "1"
      },
      "t_int128": {
        "encoding": "inplace",
        "label": "int128",
        "numberOfBytes": "16"
      },
      "t_mapping(t_address,t_mapping(t_uint256,t_struct(NFTForSale)7863_storage))": {
        "encoding": "mapping",
        "key": "t_address",
        "label": "mapping(address => mapping(uint256 => struct Marketplace.NFTForSale))",
        "numberOfBytes": "32",
        "value": "t_mapping(t_uint256,t_struct(NFTForSale)7863_storage)"
      },
      "t_mapping(t_uint256,t_struct(NFTForSale)7863_storage)": {
        "encoding": "mapping",
        "key": "t_uint256",
        "label": "mapping(uint256 => struct Marketplace.NFTForSale)",
        "numberOfBytes": "32",
        "value": "t_struct(NFTForSale)7863_storage"
      },
      "t_mapping(t_uint256,t_struct(Offer)7601_storage)": {
        "encoding": "mapping",
        "key": "t_uint256",
        "label": "mapping(uint256 => struct IMarketplace.Offer)",
        "numberOfBytes": "32",
        "value": "t_struct(Offer)7601_storage"
      },
      "t_struct(Counteroffer)7663_storage": {
        "encoding": "inplace",
        "label": "struct IMarketplace.Counteroffer",
        "members": [
          {
            "astId": 7654,
            "contract": "contracts/MsgValuePaymentMarketplace.sol:MsgValuePaymentMarketplace",
            "label": "collection",
            "offset": 0,
            "slot": "0",
            "type": "t_address"
          },
          {
            "astId": 7656,
            "contract": "contracts/MsgValuePaymentMarketplace.sol:MsgValuePaymentMarketplace",
            "label": "nftId",
            "offset": 0,
            "slot": "1",
            "type": "t_uint256"
          },
          {
            "astId": 7658,
            "contract": "contracts/MsgValuePaymentMarketplace.sol:MsgValuePaymentMarketplace",
            "label": "offerId",
            "offset": 0,
            "slot": "2",
            "type": "t_uint256"
          },
          {
            "astId": 7660,
            "contract": "contracts/MsgValuePaymentMarketplace.sol:MsgValuePaymentMarketplace",
            "label": "price",
            "offset": 0,
            "slot": "3",
            "type": "t_uint256"
          },
          {
            "astId": 7662,
            "contract": "contracts/MsgValuePaymentMarketplace.sol:MsgValuePaymentMarketplace",
            "label": "expirationDate",
            "offset": 0,
            "slot": "4",
            "type": "t_uint64"
          }
        ],
        "numberOfBytes": "160"
      },
      "t_struct(NFTForSale)7863_storage": {
        "encoding": "inplace",
        "label": "struct Marketplace.NFTForSale",
        "members": [
          {
            "astId": 7851,
            "contract": "contracts/MsgValuePaymentMarketplace.sol:MsgValuePaymentMarketplace",
            "label": "listed",
            "offset": 0,
            "slot": "0",
            "type": "t_bool"
          },
          {
            "astId": 7853,
            "contract": "contracts/MsgValuePaymentMarketplace.sol:MsgValuePaymentMarketplace",
            "label": "price",
            "offset": 0,
            "slot": "1",
            "type": "t_uint256"
          },
          {
            "astId": 7855,
            "contract": "contracts/MsgValuePaymentMarketplace.sol:MsgValuePaymentMarketplace",
            "label": "seller",
            "offset": 0,
            "slot": "2",
            "type": "t_address"
          },
          {
            "astId": 7860,
            "contract": "contracts/MsgValuePaymentMarketplace.sol:MsgValuePaymentMarketplace",
            "label": "offers",
            "offset": 0,
            "slot": "3",
            "type": "t_mapping(t_uint256,t_struct(Offer)7601_storage)"
          },
          {
            "astId": 7862,
            "contract": "contracts/MsgValuePaymentMarketplace.sol:MsgValuePaymentMarketplace",
            "label": "totalOffers",
            "offset": 0,
            "slot": "4",
            "type": "t_uint256"
          }
        ],
        "numberOfBytes": "160"
      },
      "t_struct(Offer)7601_storage": {
        "encoding": "inplace",
        "label": "struct IMarketplace.Offer",
        "members": [
          {
            "astId": 7592,
            "contract": "contracts/MsgValuePaymentMarketplace.sol:MsgValuePaymentMarketplace",
            "label": "isInitialized",
            "offset": 0,
            "slot": "0",
            "type": "t_bool"
          },
          {
            "astId": 7594,
            "contract": "contracts/MsgValuePaymentMarketplace.sol:MsgValuePaymentMarketplace",
            "label": "buyer",
            "offset": 1,
            "slot": "0",
            "type": "t_address"
          },
          {
            "astId": 7596,
            "contract": "contracts/MsgValuePaymentMarketplace.sol:MsgValuePaymentMarketplace",
            "label": "price",
            "offset": 0,
            "slot": "1",
            "type": "t_uint256"
          },
          {
            "astId": 7598,
            "contract": "contracts/MsgValuePaymentMarketplace.sol:MsgValuePaymentMarketplace",
            "label": "expirationDate",
            "offset": 0,
            "slot": "2",
            "type": "t_uint64"
          },
          {
            "astId": 7600,
            "contract": "contracts/MsgValuePaymentMarketplace.sol:MsgValuePaymentMarketplace",
            "label": "counterofferId",
            "offset": 0,
            "slot": "3",
            "type": "t_uint256"
          }
        ],
        "numberOfBytes": "128"
      },
      "t_uint256": {
        "encoding": "inplace",
        "label": "uint256",
        "numberOfBytes": "32"
      },
      "t_uint64": {
        "encoding": "inplace",
        "label": "uint64",
        "numberOfBytes": "8"
      }
    }
  }
}